{
  "contractName": "C",
  "abi": [
    {
      "inputs": [],
      "name": "data",
      "outputs": [
        {
          "internalType": "uint256",
          "name": "",
          "type": "uint256"
        }
      ],
      "stateMutability": "view",
      "type": "function"
    }
  ],
  "bytecode": "0x6080604052602a60005534801561001557600080fd5b5060b3806100246000396000f3fe6080604052348015600f57600080fd5b506004361060285760003560e01c806373d4a13a14602d575b600080fd5b60336047565b604051603e9190605a565b60405180910390f35b60005481565b6054816073565b82525050565b6000602082019050606d6000830184604d565b92915050565b600081905091905056fea2646970667358221220cb4dddbb5345c39312841a5aa6263e78ba03c5fc03e5b3d232f8c6fa2da15df364736f6c63430008060033",
  "immutableReferences": {},
  "source": "pragma solidity ^0.8.0;\n\nimport \"@openzeppelin/contracts/utils/math/Math.sol\";\n\nimport \"./Loan.sol\";\n\ncontract C {\n    uint public data = 42;\n}\n\ncontract DynamicCollateralLending {\n\n    using Math for uint;\n\n    struct User {\n        uint8 tscore;\n        bool isFraud;\n        address activeLoan;\n        address[] activeSupplies;\n        address[] activeRecommendations;\n        address orbitDbIndexHash;\n    }\n\n    // Store all users with their address\n    mapping(address => User) public users;\n    address[] userAddr;\n\n    uint addressRegistryCount;\n\n    /** @dev Modifiers\n    *\n    */\n\n    // Can be mofified only by the\n\n    // Can invest only if a user doesn't have any loan in progress\n    modifier canInvest(address user) {\n        require(users[user].activeLoan == address(0));\n        _;\n    }\n\n    // Can recommend only if a user doesn't have any loan in progress\n    modifier canRecommend(address user) {\n        require(users[user].activeLoan == address(0));\n        _;\n    }\n\n\n    // Can borrow only if a user doens't have any loan in progress and doesn't recommend or invest in any project\n    modifier canBorrow(address user) {\n        require(users[user].activeLoan == address(0) &&\n        (users[user].activeRecommendations.length == 0) &&\n            (users[user].activeSupplies.length == 0));\n        _;\n    }\n\n\n    /** @dev Events\n    *\n    */\n    event LogLoanRequestedPosted(address indexed _address, uint indexed timestamp);\n\n    function applyForLoan(uint _requestedAmount, uint _repaymentsCount, uint _interest) public canBorrow(msg.sender) {\n\n        // The user not fraudulent\n        /* require(users[msg.sender].isFraud == false);\n\n         // The user must not have any loan in progress\n         assert(users[msg.sender].activeLoan == address(0));*/\n        C c = new C();\n\n        /*\n        address loanAddr = address(new Loan(msg.sender, _requestedAmount, _repaymentsCount, _interest));\n        //        address loanAddr = address(0);\n\n        users[msg.sender].activeLoan = loanAddr;\n        users[msg.sender].orbitDbIndexHash = loanAddr;\n        userAddr.push(msg.sender);\n        addressRegistryCount++;*/\n\n        emit LogLoanRequestedPosted(msg.sender, block.timestamp);\n    }\n\n    function getHashesOfLoanRequests() public view returns (address[] memory){\n        address[] memory ret = new address[](addressRegistryCount);\n        for (uint i = 0; i < addressRegistryCount; i++) {\n            ret[i] = users[userAddr[i]].orbitDbIndexHash;\n        }\n        return ret;\n    }\n\n    function invest(address _loanContract) public canInvest(msg.sender) payable {\n        Loan(_loanContract).lend{value: msg.value}();\n    }\n\n    function recommend(address _loanContract) public canRecommend(msg.sender) payable {\n        Loan(_loanContract).recommend{value: msg.value}();\n    }\n\n    function getBalance() public view returns (uint256) {\n        return Loan(users[msg.sender].activeLoan).getBalance();\n    }\n\n    /** @dev Sets user fraudlent status true.\n     * @param _borrower The user's address.\n     * @return users[_borrower].isFraud Boolean of the new fraud status.\n     */\n    function setFraudStatus(address _borrower) external returns (bool) {\n        // Update user fraud status.\n        users[_borrower].isFraud = true;\n\n        // Log fraud status.\n        //LogUserSetFraud(_borrower, users[_borrower].isFraud, block.timestamp);\n\n        return users[_borrower].isFraud;\n    }\n\n    /** @dev Function to switch active state of a credit.\n      * @param _loanContract The credit's address.\n      * @param state New state.\n      */\n    function changeCreditState (Loan _loanContract, Loan.State state) public{\n        // Call credit contract changeStage.\n        Loan loan = Loan(_loanContract);\n        loan.changeState(state);\n\n        // Log state change.\n        //LogCreditStateChanged(credit, state, block.timestamp);\n    }\n\n}\n",
  "sourcePath": "/Users/nikitaterekhov/Projects/LiquidityProtocol/contracts/DynamicCollateralLending.sol",
  "compiler": {
    "name": "solc",
    "version": "0.8.6+commit.11564f7e.Emscripten.clang"
  },
  "schemaVersion": "3.4.1",
  "updatedAt": "2021-07-12T18:34:12.753Z",
  "devdoc": {
    "kind": "dev",
    "methods": {},
    "version": 1
  },
  "userdoc": {
    "kind": "user",
    "methods": {},
    "version": 1
  }
}