{
  "contractName": "DynamicCollateralLending",
  "abi": [
    {
      "inputs": [
        {
          "internalType": "address",
          "name": "",
          "type": "address"
        }
      ],
      "name": "users",
      "outputs": [
        {
          "internalType": "bool",
          "name": "fraudStatus",
          "type": "bool"
        },
        {
          "internalType": "address",
          "name": "activeLoan",
          "type": "address"
        },
        {
          "internalType": "address",
          "name": "activeSupply",
          "type": "address"
        }
      ],
      "stateMutability": "view",
      "type": "function",
      "constant": true
    },
    {
      "inputs": [
        {
          "internalType": "uint256",
          "name": "_requestedAmount",
          "type": "uint256"
        },
        {
          "internalType": "uint256",
          "name": "_repaymentsCount",
          "type": "uint256"
        },
        {
          "internalType": "uint256",
          "name": "_interest",
          "type": "uint256"
        },
        {
          "internalType": "bytes32",
          "name": "_loanDescription",
          "type": "bytes32"
        }
      ],
      "name": "applyForLoan",
      "outputs": [
        {
          "internalType": "address",
          "name": "",
          "type": "address"
        }
      ],
      "stateMutability": "nonpayable",
      "type": "function"
    }
  ],
  "bytecode": "0x608060405234801561001057600080fd5b506104cc806100206000396000f3fe608060405234801561001057600080fd5b50600436106100365760003560e01c80638852648c1461003b578063a87430ba1461006b575b600080fd5b6100556004803603810190610050919061032c565b61009d565b60405161006291906103ad565b60405180910390f35b61008560048036038101906100809190610303565b61024d565b604051610094939291906103c8565b60405180910390f35b60008015156000803373ffffffffffffffffffffffffffffffffffffffff1673ffffffffffffffffffffffffffffffffffffffff16815260200190815260200160002060000160009054906101000a900460ff161515146100fd57600080fd5b600073ffffffffffffffffffffffffffffffffffffffff166000803373ffffffffffffffffffffffffffffffffffffffff1673ffffffffffffffffffffffffffffffffffffffff16815260200190815260200160002060000160019054906101000a900473ffffffffffffffffffffffffffffffffffffffff1673ffffffffffffffffffffffffffffffffffffffff16146101c1577f4e487b7100000000000000000000000000000000000000000000000000000000600052600160045260246000fd5b336000803373ffffffffffffffffffffffffffffffffffffffff1673ffffffffffffffffffffffffffffffffffffffff16815260200190815260200160002060000160016101000a81548173ffffffffffffffffffffffffffffffffffffffff021916908373ffffffffffffffffffffffffffffffffffffffff16021790555060009050949350505050565b60006020528060005260406000206000915090508060000160009054906101000a900460ff16908060000160019054906101000a900473ffffffffffffffffffffffffffffffffffffffff16908060010160009054906101000a900473ffffffffffffffffffffffffffffffffffffffff16905083565b6000813590506102d381610451565b92915050565b6000813590506102e881610468565b92915050565b6000813590506102fd8161047f565b92915050565b60006020828403121561031557600080fd5b6000610323848285016102c4565b91505092915050565b6000806000806080858703121561034257600080fd5b6000610350878288016102ee565b9450506020610361878288016102ee565b9350506040610372878288016102ee565b9250506060610383878288016102d9565b91505092959194509250565b610398816103ff565b82525050565b6103a781610411565b82525050565b60006020820190506103c2600083018461038f565b92915050565b60006060820190506103dd600083018661039e565b6103ea602083018561038f565b6103f7604083018461038f565b949350505050565b600061040a82610427565b9050919050565b60008115159050919050565b6000819050919050565b600073ffffffffffffffffffffffffffffffffffffffff82169050919050565b6000819050919050565b61045a816103ff565b811461046557600080fd5b50565b6104718161041d565b811461047c57600080fd5b50565b61048881610447565b811461049357600080fd5b5056fea26469706673582212201b5012aee55ed52f2471948147e55156f99081b0f4d24d8fec78ab1bd6c25d1d64736f6c63430008000033",
  "immutableReferences": {},
  "source": "pragma solidity ^0.8.0;\n\nimport \"@openzeppelin/contracts/utils/math/Math.sol\";\n\nimport \"./Loan.sol\";\n\ncontract DynamicCollateralLending {\n\n    using Math for uint;\n\n    struct User {\n        bool fraudStatus;\n        address activeLoan;\n        address activeSupply;\n    }\n\n    // Store all users with their address\n    mapping(address => User) public users;\n\n    function applyForLoan(uint _requestedAmount, uint _repaymentsCount, uint _interest, bytes32 _loanDescription) public returns(address) {\n\n        // The user not fraudulent\n        require(users[msg.sender].fraudStatus == false);\n\n        // The user must not have any loan in progress\n        assert(users[msg.sender].activeLoan == address(0));\n\n//        Loan loan = new Loan(_requestedAmount, _repaymentsCount, _interest, _loanDescription);\n        users[msg.sender].activeLoan = address(msg.sender);\n//        users[msg.sender].activeLoan = address(loan);\n        return address(0);\n//        return address(loan);\n    }\n\n}\n",
  "sourcePath": "/Users/nikitaterekhov/Projects/LiquidityProtocol/contracts/DynamicCollateralLending.sol",
  "compiler": {
    "name": "solc",
    "version": "0.8.0+commit.c7dfd78e.Emscripten.clang"
  },
  "schemaVersion": "3.3.4",
  "updatedAt": "2021-06-21T10:25:01.261Z",
  "networkType": "ethereum",
  "devdoc": {
    "kind": "dev",
    "methods": {},
    "version": 1
  },
  "userdoc": {
    "kind": "user",
    "methods": {},
    "version": 1
  }
}