{
  "contractName": "DynamicCollateralLending",
  "abi": [
    {
      "anonymous": false,
      "inputs": [
        {
          "indexed": true,
          "internalType": "address",
          "name": "_address",
          "type": "address"
        },
        {
          "indexed": true,
          "internalType": "uint256",
          "name": "timestamp",
          "type": "uint256"
        }
      ],
      "name": "LogLoanRequestedPosted",
      "type": "event"
    },
    {
      "inputs": [
        {
          "internalType": "address",
          "name": "",
          "type": "address"
        }
      ],
      "name": "users",
      "outputs": [
        {
          "internalType": "bool",
          "name": "fraudStatus",
          "type": "bool"
        },
        {
          "internalType": "address",
          "name": "activeLoan",
          "type": "address"
        },
        {
          "internalType": "address",
          "name": "activeSupply",
          "type": "address"
        }
      ],
      "stateMutability": "view",
      "type": "function"
    },
    {
      "inputs": [
        {
          "internalType": "uint256",
          "name": "_requestedAmount",
          "type": "uint256"
        },
        {
          "internalType": "uint256",
          "name": "_repaymentsCount",
          "type": "uint256"
        },
        {
          "internalType": "uint256",
          "name": "_interest",
          "type": "uint256"
        }
      ],
      "name": "applyForLoan",
      "outputs": [],
      "stateMutability": "nonpayable",
      "type": "function"
    },
    {
      "inputs": [],
      "name": "test",
      "outputs": [],
      "stateMutability": "nonpayable",
      "type": "function"
    }
  ],
  "bytecode": "0x608060405234801561001057600080fd5b50611521806100206000396000f3fe608060405234801561001057600080fd5b50600436106100415760003560e01c8063a87430ba14610046578063f8a8fd6d14610078578063fc24578314610082575b600080fd5b610060600480360381019061005b9190610254565b61009e565b60405161006f939291906102f9565b60405180910390f35b610080610115565b005b61009c6004803603810190610097919061027d565b610117565b005b60006020528060005260406000206000915090508060000160009054906101000a900460ff16908060000160019054906101000a900473ffffffffffffffffffffffffffffffffffffffff16908060010160009054906101000a900473ffffffffffffffffffffffffffffffffffffffff16905083565b565b60008383836040516101289061021d565b61013493929190610330565b604051809103906000f080158015610150573d6000803e3d6000fd5b509050806000803373ffffffffffffffffffffffffffffffffffffffff1673ffffffffffffffffffffffffffffffffffffffff16815260200190815260200160002060000160016101000a81548173ffffffffffffffffffffffffffffffffffffffff021916908373ffffffffffffffffffffffffffffffffffffffff160217905550423373ffffffffffffffffffffffffffffffffffffffff167f048f2a6dafeed79f0a70dae0992f1d83d6dfe590811f1fc1f88677e1d8eedd1d60405160405180910390a350505050565b61110e806103de83390190565b600081359050610239816103af565b92915050565b60008135905061024e816103c6565b92915050565b60006020828403121561026657600080fd5b60006102748482850161022a565b91505092915050565b60008060006060848603121561029257600080fd5b60006102a08682870161023f565b93505060206102b18682870161023f565b92505060406102c28682870161023f565b9150509250925092565b6102d581610367565b82525050565b6102e481610379565b82525050565b6102f3816103a5565b82525050565b600060608201905061030e60008301866102db565b61031b60208301856102cc565b61032860408301846102cc565b949350505050565b600060608201905061034560008301866102ea565b61035260208301856102ea565b61035f60408301846102ea565b949350505050565b600061037282610385565b9050919050565b60008115159050919050565b600073ffffffffffffffffffffffffffffffffffffffff82169050919050565b6000819050919050565b6103b881610367565b81146103c357600080fd5b50565b6103cf816103a5565b81146103da57600080fd5b5056fe60806040526000600f553480156200001657600080fd5b506040516200110e3803806200110e83398181016040528101906200003c9190620000d9565b8260018190555081600281905550806003819055506000801b60048190555062000079600354600154620000aa60201b62000cb31790919060201c565b600681905550426007819055506000600560006101000a81548160ff021916908315150217905550505050620001df565b60008183620000ba91906200012f565b905092915050565b600081519050620000d381620001c5565b92915050565b600080600060608486031215620000ef57600080fd5b6000620000ff86828701620000c2565b93505060206200011286828701620000c2565b92505060406200012586828701620000c2565b9150509250925092565b60006200013c826200018c565b915062000149836200018c565b9250827fffffffffffffffffffffffffffffffffffffffffffffffffffffffffffffffff0382111562000181576200018062000196565b5b828201905092915050565b6000819050919050565b7f4e487b7100000000000000000000000000000000000000000000000000000000600052601160045260246000fd5b620001d0816200018c565b8114620001dc57600080fd5b50565b610f1f80620001ef6000396000f3fe6080604052600436106100555760003560e01c806312065fe01461005a57806328fd10d7146100855780633ccfd60b146100c2578063402d8883146100d957806397dffc61146100e3578063efd475ab146100ed575b600080fd5b34801561006657600080fd5b5061006f610104565b60405161007c9190610d56565b60405180910390f35b34801561009157600080fd5b506100ac60048036038101906100a79190610cf4565b61010c565b6040516100b99190610d3b565b60405180910390f35b3480156100ce57600080fd5b506100d761012c565b005b6100e16103b3565b005b6100eb610686565b005b3480156100f957600080fd5b5061010261095a565b005b600047905090565b600c6020528060005260406000206000915054906101000a900460ff1681565b60011515600560009054906101000a900460ff1615151461014c57600080fd5b60008054906101000a900473ffffffffffffffffffffffffffffffffffffffff1673ffffffffffffffffffffffffffffffffffffffff163373ffffffffffffffffffffffffffffffffffffffff16146101a457600080fd5b6001544710156101b357600080fd5b6005808111156101ec577f4e487b7100000000000000000000000000000000000000000000000000000000600052602160045260246000fd5b600e60009054906101000a900460ff166005811115610234577f4e487b7100000000000000000000000000000000000000000000000000000000600052602160045260246000fd5b141561023f57600080fd5b6001600e60006101000a81548160ff0219169083600581111561028b577f4e487b7100000000000000000000000000000000000000000000000000000000600052602160045260246000fd5b021790555042600e60009054906101000a900460ff1660058111156102d9577f4e487b7100000000000000000000000000000000000000000000000000000000600052602160045260246000fd5b7faaae373901e745122c2e0925ad006227969c6cd190b7d5ea2fb7fdbd1d955b3560405160405180910390a342473373ffffffffffffffffffffffffffffffffffffffff167f20734f14d107b526674905e470e35d0a474f9fb996a7bdb034c839c8894524e660405160405180910390a460008054906101000a900473ffffffffffffffffffffffffffffffffffffffff1673ffffffffffffffffffffffffffffffffffffffff166108fc479081150290604051600060405180830381858888f193505050501580156103b0573d6000803e3d6000fd5b50565b60008054906101000a900473ffffffffffffffffffffffffffffffffffffffff1673ffffffffffffffffffffffffffffffffffffffff163373ffffffffffffffffffffffffffffffffffffffff161461040b57600080fd5b60016005811115610445577f4e487b7100000000000000000000000000000000000000000000000000000000600052602160045260246000fd5b600e60009054906101000a900460ff16600581111561048d577f4e487b7100000000000000000000000000000000000000000000000000000000600052602160045260246000fd5b1461049757600080fd5b6000600954116104a657600080fd5b600a543410156104b557600080fd5b600654600b54106104ef577f4e487b7100000000000000000000000000000000000000000000000000000000600052600160045260246000fd5b426008819055506000600a543411156105e157610517600a5434610cc990919063ffffffff16565b905061052c8134610cc990919063ffffffff16565b600a5414610563577f4e487b7100000000000000000000000000000000000000000000000000000000600052600160045260246000fd5b348110610599577f4e487b7100000000000000000000000000000000000000000000000000000000600052600160045260246000fd5b3373ffffffffffffffffffffffffffffffffffffffff166108fc829081150290604051600060405180830381858888f193505050501580156105df573d6000803e3d6000fd5b505b600654600b54141561068357423373ffffffffffffffffffffffffffffffffffffffff167f25630de45a38a90cbca3a2eb35a8197e51b56d6d912581711e5e3773fe77cabc60405160405180910390a36002600e60006101000a81548160ff0219169083600581111561067d577f4e487b7100000000000000000000000000000000000000000000000000000000600052602160045260246000fd5b02179055505b50565b600060058111156106c0577f4e487b7100000000000000000000000000000000000000000000000000000000600052602160045260246000fd5b600e60009054906101000a900460ff166005811115610708577f4e487b7100000000000000000000000000000000000000000000000000000000600052602160045260246000fd5b1461071257600080fd5b600060015447106108585761073260015447610cc990919063ffffffff16565b90506107478147610cc990919063ffffffff16565b6001541461077e577f4e487b7100000000000000000000000000000000000000000000000000000000600052600160045260246000fd5b348111156107b5577f4e487b7100000000000000000000000000000000000000000000000000000000600052600160045260246000fd5b6000811115610806573373ffffffffffffffffffffffffffffffffffffffff166108fc829081150290604051600060405180830381858888f19350505050158015610804573d6000803e3d6000fd5b505b6001600e60006101000a81548160ff02191690836005811115610852577f4e487b7100000000000000000000000000000000000000000000000000000000600052602160045260246000fd5b02179055505b6001600c60003373ffffffffffffffffffffffffffffffffffffffff1673ffffffffffffffffffffffffffffffffffffffff16815260200190815260200160002060006101000a81548160ff0219169083151502179055506109146108c68234610cc990919063ffffffff16565b600d60003373ffffffffffffffffffffffffffffffffffffffff1673ffffffffffffffffffffffffffffffffffffffff16815260200190815260200160002054610cb390919063ffffffff16565b600d60003373ffffffffffffffffffffffffffffffffffffffff1673ffffffffffffffffffffffffffffffffffffffff1681526020019081526020016000208190555050565b60011515600560009054906101000a900460ff1615151461097a57600080fd5b60011515600c60003373ffffffffffffffffffffffffffffffffffffffff1673ffffffffffffffffffffffffffffffffffffffff16815260200190815260200160002060009054906101000a900460ff161515146109d757600080fd5b60026005811115610a11577f4e487b7100000000000000000000000000000000000000000000000000000000600052602160045260246000fd5b600e60009054906101000a900460ff166005811115610a59577f4e487b7100000000000000000000000000000000000000000000000000000000600052602160045260246000fd5b14610a6357600080fd5b6000600d60003373ffffffffffffffffffffffffffffffffffffffff1673ffffffffffffffffffffffffffffffffffffffff1681526020019081526020016000205411610aaf57600080fd5b6000600f54600654610ac19190610dc7565b905080471015610afa577f4e487b7100000000000000000000000000000000000000000000000000000000600052600160045260246000fd5b3373ffffffffffffffffffffffffffffffffffffffff166108fc829081150290604051600060405180830381858888f19350505050158015610b40573d6000803e3d6000fd5b5042813373ffffffffffffffffffffffffffffffffffffffff167f052f6685df2f773f854b17db1d82e2352e222010daaf8175761f02ef8782c40360405160405180910390a46000471415610cb0576000600560006101000a81548160ff02191690831515021790555042600560009054906101000a900460ff1615157f160914ea27c60aa29a5f3a69d74e6069869de36e38939de1e0a66b921d8623d260405160405180910390a36003600e60006101000a81548160ff02191690836005811115610c35577f4e487b7100000000000000000000000000000000000000000000000000000000600052602160045260246000fd5b021790555042600e60009054906101000a900460ff166005811115610c83577f4e487b7100000000000000000000000000000000000000000000000000000000600052602160045260246000fd5b7faaae373901e745122c2e0925ad006227969c6cd190b7d5ea2fb7fdbd1d955b3560405160405180910390a35b50565b60008183610cc19190610d71565b905092915050565b60008183610cd79190610df8565b905092915050565b600081359050610cee81610ed2565b92915050565b600060208284031215610d0657600080fd5b6000610d1484828501610cdf565b91505092915050565b610d2681610e3e565b82525050565b610d3581610e6a565b82525050565b6000602082019050610d506000830184610d1d565b92915050565b6000602082019050610d6b6000830184610d2c565b92915050565b6000610d7c82610e6a565b9150610d8783610e6a565b9250827fffffffffffffffffffffffffffffffffffffffffffffffffffffffffffffffff03821115610dbc57610dbb610e74565b5b828201905092915050565b6000610dd282610e6a565b9150610ddd83610e6a565b925082610ded57610dec610ea3565b5b828204905092915050565b6000610e0382610e6a565b9150610e0e83610e6a565b925082821015610e2157610e20610e74565b5b828203905092915050565b6000610e3782610e4a565b9050919050565b60008115159050919050565b600073ffffffffffffffffffffffffffffffffffffffff82169050919050565b6000819050919050565b7f4e487b7100000000000000000000000000000000000000000000000000000000600052601160045260246000fd5b7f4e487b7100000000000000000000000000000000000000000000000000000000600052601260045260246000fd5b610edb81610e2c565b8114610ee657600080fd5b5056fea2646970667358221220034eae9c8af89f9b6a660d0105b4a12220efa386a1bdc8a98920fadd2b73b0e364736f6c63430008000033a2646970667358221220c9536218362e967d5e9e4c13d5eee4ee36034ff12503f445aa37edba30a1a73b64736f6c63430008000033",
  "immutableReferences": {},
  "source": "pragma solidity ^0.8.0;\n\nimport \"@openzeppelin/contracts/utils/math/Math.sol\";\n\nimport \"./Loan.sol\";\n\ncontract DynamicCollateralLending {\n\n    using Math for uint;\n\n    struct User {\n        bool fraudStatus;\n        address activeLoan;\n        address activeSupply;\n    }\n\n    // Store all users with their address\n    mapping(address => User) public users;\n    uint addressRegistryCount;\n\n    /** @dev Events\n    *\n    */\n    event LogLoanRequestedPosted(address indexed _address, uint indexed timestamp);\n\n    function applyForLoan(uint _requestedAmount, uint _repaymentsCount, uint _interest) public {\n\n        // The user not fraudulent\n       /* require(users[msg.sender].fraudStatus == false);\n\n        // The user must not have any loan in progress\n        assert(users[msg.sender].activeLoan == address(0));*/\n\n        Loan loan = new Loan(_requestedAmount, _repaymentsCount, _interest);\n\n        users[msg.sender].activeLoan = address(loan);\n\n        emit LogLoanRequestedPosted(msg.sender, block.timestamp);\n    }\n\n    function test() public {\n\n    }\n\n}\n",
  "sourcePath": "/Users/nikitaterekhov/Projects/LiquidityProtocol/contracts/DynamicCollateralLending.sol",
  "compiler": {
    "name": "solc",
    "version": "0.8.0+commit.c7dfd78e.Emscripten.clang"
  },
  "schemaVersion": "3.4.1",
  "updatedAt": "2021-07-04T17:14:10.643Z",
  "devdoc": {
    "events": {
      "LogLoanRequestedPosted(address,uint256)": {
        "details": "Events"
      }
    },
    "kind": "dev",
    "methods": {},
    "version": 1
  },
  "userdoc": {
    "kind": "user",
    "methods": {},
    "version": 1
  }
}