{
  "contractName": "DynamicCollateralLending",
  "abi": [
    {
      "inputs": [],
      "stateMutability": "nonpayable",
      "type": "constructor"
    },
    {
      "anonymous": false,
      "inputs": [
        {
          "indexed": true,
          "internalType": "address",
          "name": "_address",
          "type": "address"
        },
        {
          "indexed": true,
          "internalType": "uint256",
          "name": "timestamp",
          "type": "uint256"
        },
        {
          "indexed": true,
          "internalType": "address",
          "name": "_loanAddress",
          "type": "address"
        },
        {
          "indexed": false,
          "internalType": "address",
          "name": "_userAddress",
          "type": "address"
        }
      ],
      "name": "LoanRequestedPosted",
      "type": "event"
    },
    {
      "anonymous": false,
      "inputs": [
        {
          "indexed": true,
          "internalType": "address",
          "name": "_address",
          "type": "address"
        },
        {
          "indexed": true,
          "internalType": "uint256",
          "name": "timestamp",
          "type": "uint256"
        }
      ],
      "name": "TScoreInitialized",
      "type": "event"
    },
    {
      "inputs": [
        {
          "internalType": "address",
          "name": "",
          "type": "address"
        }
      ],
      "name": "users",
      "outputs": [
        {
          "internalType": "contract User",
          "name": "",
          "type": "address"
        }
      ],
      "stateMutability": "view",
      "type": "function",
      "constant": true
    },
    {
      "inputs": [
        {
          "internalType": "uint256",
          "name": "_requestedAmount",
          "type": "uint256"
        },
        {
          "internalType": "uint256",
          "name": "_repaymentsCount",
          "type": "uint256"
        },
        {
          "internalType": "uint256",
          "name": "_interest",
          "type": "uint256"
        }
      ],
      "name": "applyForLoan",
      "outputs": [],
      "stateMutability": "nonpayable",
      "type": "function"
    },
    {
      "inputs": [],
      "name": "getHashesOfLoanRequests",
      "outputs": [
        {
          "internalType": "address[]",
          "name": "",
          "type": "address[]"
        }
      ],
      "stateMutability": "view",
      "type": "function",
      "constant": true
    },
    {
      "inputs": [],
      "name": "hasBorrow",
      "outputs": [
        {
          "internalType": "bool",
          "name": "",
          "type": "bool"
        }
      ],
      "stateMutability": "view",
      "type": "function",
      "constant": true
    },
    {
      "inputs": [],
      "name": "getBorrowerInfos",
      "outputs": [
        {
          "internalType": "uint256",
          "name": "",
          "type": "uint256"
        },
        {
          "internalType": "uint256",
          "name": "",
          "type": "uint256"
        },
        {
          "internalType": "uint256",
          "name": "",
          "type": "uint256"
        },
        {
          "internalType": "uint256",
          "name": "",
          "type": "uint256"
        },
        {
          "internalType": "uint256",
          "name": "",
          "type": "uint256"
        },
        {
          "internalType": "uint256",
          "name": "",
          "type": "uint256"
        },
        {
          "internalType": "uint256",
          "name": "",
          "type": "uint256"
        },
        {
          "internalType": "uint256",
          "name": "",
          "type": "uint256"
        }
      ],
      "stateMutability": "view",
      "type": "function",
      "constant": true
    },
    {
      "inputs": [
        {
          "internalType": "address",
          "name": "loanContract",
          "type": "address"
        }
      ],
      "name": "invest",
      "outputs": [],
      "stateMutability": "payable",
      "type": "function",
      "payable": true
    },
    {
      "inputs": [
        {
          "internalType": "address",
          "name": "loanContract",
          "type": "address"
        },
        {
          "internalType": "uint8",
          "name": "score",
          "type": "uint8"
        }
      ],
      "name": "recommend",
      "outputs": [],
      "stateMutability": "payable",
      "type": "function",
      "payable": true
    },
    {
      "inputs": [],
      "name": "getBalance",
      "outputs": [
        {
          "internalType": "uint256",
          "name": "",
          "type": "uint256"
        }
      ],
      "stateMutability": "view",
      "type": "function",
      "constant": true
    }
  ],
  "bytecode": "0x608060405234801561001057600080fd5b5060405161001d9061007f565b604051809103906000f080158015610039573d6000803e3d6000fd5b50600360006101000a81548173ffffffffffffffffffffffffffffffffffffffff021916908373ffffffffffffffffffffffffffffffffffffffff16021790555061008c565b61108c8061438083390190565b6142e58061009b6000396000f3fe608060405260043610620000865760003560e01c8063869b4da51162000055578063869b4da51462000142578063a87430ba1462000172578063abbbe18914620001b6578063fc24578314620001d65762000086565b806303f9c793146200008b57806312065fe014620000ab57806329c0445214620000db57806353d7c4f61462000112575b600080fd5b620000a96004803603810190620000a3919062000f19565b62000204565b005b348015620000b857600080fd5b50620000c362000277565b604051620000d29190620012c9565b60405180910390f35b348015620000e857600080fd5b50620000f3620003df565b60405162000109989796959493929190620012e6565b60405180910390f35b3480156200011f57600080fd5b506200012a62000567565b6040516200013991906200128f565b60405180910390f35b3480156200014f57600080fd5b506200015a6200067d565b6040516200016991906200126b565b60405180910390f35b3480156200017f57600080fd5b506200019e600480360381019062000198919062000f19565b620008db565b604051620001ad9190620012ac565b60405180910390f35b620001d46004803603810190620001ce919062000f71565b6200090e565b005b348015620001e357600080fd5b50620002026004803603810190620001fc919062000fde565b62000984565b005b8073ffffffffffffffffffffffffffffffffffffffff1663b656f2e334336040518363ffffffff1660e01b8152600401620002409190620011e1565b6000604051808303818588803b1580156200025a57600080fd5b505af11580156200026f573d6000803e3d6000fd5b505050505050565b60008060003373ffffffffffffffffffffffffffffffffffffffff1673ffffffffffffffffffffffffffffffffffffffff16815260200190815260200160002060009054906101000a900473ffffffffffffffffffffffffffffffffffffffff1673ffffffffffffffffffffffffffffffffffffffff1663b2700a886040518163ffffffff1660e01b815260040160206040518083038186803b1580156200031e57600080fd5b505afa15801562000333573d6000803e3d6000fd5b505050506040513d601f19601f8201168201806040525081019062000359919062000f45565b73ffffffffffffffffffffffffffffffffffffffff166312065fe06040518163ffffffff1660e01b815260040160206040518083038186803b1580156200039f57600080fd5b505afa158015620003b4573d6000803e3d6000fd5b505050506040513d601f19601f82011682018060405250810190620003da919062000fb2565b905090565b6000806000806000806000806000803373ffffffffffffffffffffffffffffffffffffffff1673ffffffffffffffffffffffffffffffffffffffff16815260200190815260200160002060009054906101000a900473ffffffffffffffffffffffffffffffffffffffff1673ffffffffffffffffffffffffffffffffffffffff1663b2700a886040518163ffffffff1660e01b815260040160206040518083038186803b1580156200049057600080fd5b505afa158015620004a5573d6000803e3d6000fd5b505050506040513d601f19601f82011682018060405250810190620004cb919062000f45565b73ffffffffffffffffffffffffffffffffffffffff1663045853c46040518163ffffffff1660e01b81526004016101006040518083038186803b1580156200051257600080fd5b505afa15801562000527573d6000803e3d6000fd5b505050506040513d601f19601f820116820180604052508101906200054d919062001034565b975097509750975097509750975097509091929394959697565b60008073ffffffffffffffffffffffffffffffffffffffff166000803373ffffffffffffffffffffffffffffffffffffffff1673ffffffffffffffffffffffffffffffffffffffff16815260200190815260200160002060009054906101000a900473ffffffffffffffffffffffffffffffffffffffff1673ffffffffffffffffffffffffffffffffffffffff1663b2700a886040518163ffffffff1660e01b815260040160206040518083038186803b1580156200062557600080fd5b505afa1580156200063a573d6000803e3d6000fd5b505050506040513d601f19601f8201168201806040525081019062000660919062000f45565b73ffffffffffffffffffffffffffffffffffffffff161415905090565b6060600060025467ffffffffffffffff811115620006c4577f4e487b7100000000000000000000000000000000000000000000000000000000600052604160045260246000fd5b604051908082528060200260200182016040528015620006f35781602001602082028036833780820191505090505b50905060005b600254811015620008d3576000806001838154811062000742577f4e487b7100000000000000000000000000000000000000000000000000000000600052603260045260246000fd5b9060005260206000200160009054906101000a900473ffffffffffffffffffffffffffffffffffffffff1673ffffffffffffffffffffffffffffffffffffffff1673ffffffffffffffffffffffffffffffffffffffff16815260200190815260200160002060009054906101000a900473ffffffffffffffffffffffffffffffffffffffff1673ffffffffffffffffffffffffffffffffffffffff1663ee62281a6040518163ffffffff1660e01b815260040160206040518083038186803b1580156200080e57600080fd5b505afa15801562000823573d6000803e3d6000fd5b505050506040513d601f19601f8201168201806040525081019062000849919062000f45565b82828151811062000883577f4e487b7100000000000000000000000000000000000000000000000000000000600052603260045260246000fd5b602002602001019073ffffffffffffffffffffffffffffffffffffffff16908173ffffffffffffffffffffffffffffffffffffffff16815250508080620008ca90620014b6565b915050620006f9565b508091505090565b60006020528060005260406000206000915054906101000a900473ffffffffffffffffffffffffffffffffffffffff1681565b8173ffffffffffffffffffffffffffffffffffffffff1663963e050d3483336040518463ffffffff1660e01b81526004016200094c92919062001374565b6000604051808303818588803b1580156200096657600080fd5b505af11580156200097b573d6000803e3d6000fd5b50505050505050565b600073ffffffffffffffffffffffffffffffffffffffff166000803373ffffffffffffffffffffffffffffffffffffffff1673ffffffffffffffffffffffffffffffffffffffff16815260200190815260200160002060009054906101000a900473ffffffffffffffffffffffffffffffffffffffff1673ffffffffffffffffffffffffffffffffffffffff161462000a1d5762000ac6565b60405162000a2b9062000e8a565b604051809103906000f08015801562000a48573d6000803e3d6000fd5b506000803373ffffffffffffffffffffffffffffffffffffffff1673ffffffffffffffffffffffffffffffffffffffff16815260200190815260200160002060006101000a81548173ffffffffffffffffffffffffffffffffffffffff021916908373ffffffffffffffffffffffffffffffffffffffff1602179055505b6000601e4262000ad79190620013da565b905060008060003373ffffffffffffffffffffffffffffffffffffffff1673ffffffffffffffffffffffffffffffffffffffff16815260200190815260200160002060009054906101000a900473ffffffffffffffffffffffffffffffffffffffff1685858585600360009054906101000a900473ffffffffffffffffffffffffffffffffffffffff1660405162000b6f9062000e98565b62000b8096959493929190620011fe565b604051809103906000f08015801562000b9d573d6000803e3d6000fd5b50905060008190506000803373ffffffffffffffffffffffffffffffffffffffff1673ffffffffffffffffffffffffffffffffffffffff16815260200190815260200160002060009054906101000a900473ffffffffffffffffffffffffffffffffffffffff1673ffffffffffffffffffffffffffffffffffffffff1663d977b13b826040518263ffffffff1660e01b815260040162000c3e9190620011e1565b600060405180830381600087803b15801562000c5957600080fd5b505af115801562000c6e573d6000803e3d6000fd5b505050506000803373ffffffffffffffffffffffffffffffffffffffff1673ffffffffffffffffffffffffffffffffffffffff16815260200190815260200160002060009054906101000a900473ffffffffffffffffffffffffffffffffffffffff1673ffffffffffffffffffffffffffffffffffffffff16633ae317a6826040518263ffffffff1660e01b815260040162000d0b9190620011e1565b600060405180830381600087803b15801562000d2657600080fd5b505af115801562000d3b573d6000803e3d6000fd5b505050506001339080600181540180825580915050600190039060005260206000200160009091909190916101000a81548173ffffffffffffffffffffffffffffffffffffffff021916908373ffffffffffffffffffffffffffffffffffffffff1602179055506002600081548092919062000db790620014b6565b91905055508073ffffffffffffffffffffffffffffffffffffffff16423373ffffffffffffffffffffffffffffffffffffffff167f6ae07efe6fa48fe5dd4b64c9fc0eb489619872a1b7be2b2b2e5f1ef0c3a334246000803373ffffffffffffffffffffffffffffffffffffffff1673ffffffffffffffffffffffffffffffffffffffff16815260200190815260200160002060009054906101000a900473ffffffffffffffffffffffffffffffffffffffff1660405162000e7a9190620011e1565b60405180910390a4505050505050565b610720806200158283390190565b61260e8062001ca283390190565b60008135905062000eb78162001533565b92915050565b60008151905062000ece8162001533565b92915050565b60008135905062000ee5816200154d565b92915050565b60008151905062000efc816200154d565b92915050565b60008135905062000f138162001567565b92915050565b60006020828403121562000f2c57600080fd5b600062000f3c8482850162000ea6565b91505092915050565b60006020828403121562000f5857600080fd5b600062000f688482850162000ebd565b91505092915050565b6000806040838503121562000f8557600080fd5b600062000f958582860162000ea6565b925050602062000fa88582860162000f02565b9150509250929050565b60006020828403121562000fc557600080fd5b600062000fd58482850162000eeb565b91505092915050565b60008060006060848603121562000ff457600080fd5b6000620010048682870162000ed4565b9350506020620010178682870162000ed4565b92505060406200102a8682870162000ed4565b9150509250925092565b600080600080600080600080610100898b0312156200105257600080fd5b6000620010628b828c0162000eeb565b9850506020620010758b828c0162000eeb565b9750506040620010888b828c0162000eeb565b96505060606200109b8b828c0162000eeb565b9550506080620010ae8b828c0162000eeb565b94505060a0620010c18b828c0162000eeb565b93505060c0620010d48b828c0162000eeb565b92505060e0620010e78b828c0162000eeb565b9150509295985092959890939650565b600062001105838362001111565b60208301905092915050565b6200111c8162001437565b82525050565b6200112d8162001437565b82525050565b60006200114082620013b1565b6200114c8185620013c9565b93506200115983620013a1565b8060005b8381101562001190578151620011748882620010f7565b97506200118183620013bc565b9250506001810190506200115d565b5085935050505092915050565b620011a8816200144b565b82525050565b620011b9816200148e565b82525050565b620011ca8162001477565b82525050565b620011db8162001481565b82525050565b6000602082019050620011f8600083018462001122565b92915050565b600060c08201905062001215600083018962001122565b620012246020830188620011bf565b620012336040830187620011bf565b620012426060830186620011bf565b620012516080830185620011bf565b6200126060a083018462001122565b979650505050505050565b6000602082019050818103600083015262001287818462001133565b905092915050565b6000602082019050620012a660008301846200119d565b92915050565b6000602082019050620012c36000830184620011ae565b92915050565b6000602082019050620012e06000830184620011bf565b92915050565b600061010082019050620012fe600083018b620011bf565b6200130d602083018a620011bf565b6200131c6040830189620011bf565b6200132b6060830188620011bf565b6200133a6080830187620011bf565b6200134960a0830186620011bf565b6200135860c0830185620011bf565b6200136760e0830184620011bf565b9998505050505050505050565b60006040820190506200138b6000830185620011d0565b6200139a602083018462001122565b9392505050565b6000819050602082019050919050565b600081519050919050565b6000602082019050919050565b600082825260208201905092915050565b6000620013e78262001477565b9150620013f48362001477565b9250827fffffffffffffffffffffffffffffffffffffffffffffffffffffffffffffffff038211156200142c576200142b62001504565b5b828201905092915050565b6000620014448262001457565b9050919050565b60008115159050919050565b600073ffffffffffffffffffffffffffffffffffffffff82169050919050565b6000819050919050565b600060ff82169050919050565b60006200149b82620014a2565b9050919050565b6000620014af8262001457565b9050919050565b6000620014c38262001477565b91507fffffffffffffffffffffffffffffffffffffffffffffffffffffffffffffffff821415620014f957620014f862001504565b5b600182019050919050565b7f4e487b7100000000000000000000000000000000000000000000000000000000600052601160045260246000fd5b6200153e8162001437565b81146200154a57600080fd5b50565b620015588162001477565b81146200156457600080fd5b50565b620015728162001481565b81146200157e57600080fd5b5056fe608060405234801561001057600080fd5b50610700806100206000396000f3fe608060405234801561001057600080fd5b506004361061009e5760003560e01c8063c12c4eb311610066578063c12c4eb314610135578063c361de5f14610153578063d977b13b1461016f578063e682cc7b1461018b578063ee62281a146101ad5761009e565b80632223a858146100a35780633ae317a6146100bf578063436d582f146100db578063b2700a88146100f9578063babd701214610117575b600080fd5b6100bd60048036038101906100b89190610446565b6101cb565b005b6100d960048036038101906100d49190610446565b61020f565b005b6100e3610253565b6040516100f09190610579565b60405180910390f35b610101610260565b60405161010e91906104f0565b60405180910390f35b61011f610286565b60405161012c91906104f0565b60405180910390f35b61013d6102ac565b60405161014a919061050b565b60405180910390f35b61016d6004803603810190610168919061046f565b6102bd565b005b61018960048036038101906101849190610446565b6102e5565b005b610193610329565b6040516101a4959493929190610526565b60405180910390f35b6101b561039d565b6040516101c291906104f0565b60405180910390f35b80600160006101000a81548173ffffffffffffffffffffffffffffffffffffffff021916908373ffffffffffffffffffffffffffffffffffffffff16021790555050565b80600260006101000a81548173ffffffffffffffffffffffffffffffffffffffff021916908373ffffffffffffffffffffffffffffffffffffffff16021790555050565b6000600360040154905090565b600060019054906101000a900473ffffffffffffffffffffffffffffffffffffffff1681565b600160009054906101000a900473ffffffffffffffffffffffffffffffffffffffff1681565b60008054906101000a900460ff1681565b806003600201600082015181600001559050506102d9816103c3565b60036004018190555050565b80600060016101000a81548173ffffffffffffffffffffffffffffffffffffffff021916908373ffffffffffffffffffffffffffffffffffffffff16021790555050565b600380600001604051806020016040529081600082015481525050908060010160405180602001604052908160008201548152505090806002016040518060200160405290816000820154815250509080600301604051806020016040529081600082015481525050908060040154905085565b600260009054906101000a900473ffffffffffffffffffffffffffffffffffffffff1681565b6000670de0b6b3a764000082600001516103dd91906105c5565b9050919050565b6000813590506103f38161069c565b92915050565b60006020828403121561040b57600080fd5b6104156020610594565b9050600061042584828501610431565b60008301525092915050565b600081359050610440816106b3565b92915050565b60006020828403121561045857600080fd5b6000610466848285016103e4565b91505092915050565b60006020828403121561048157600080fd5b600061048f848285016103f9565b91505092915050565b6104a1816105f6565b82525050565b6104b081610608565b82525050565b6020820160008201516104cc60008501826104d2565b50505050565b6104db81610634565b82525050565b6104ea81610634565b82525050565b60006020820190506105056000830184610498565b92915050565b600060208201905061052060008301846104a7565b92915050565b600060a08201905061053b60008301886104b6565b61054860208301876104b6565b61055560408301866104b6565b61056260608301856104b6565b61056f60808301846104e1565b9695505050505050565b600060208201905061058e60008301846104e1565b92915050565b6000604051905081810181811067ffffffffffffffff821117156105bb576105ba61066d565b5b8060405250919050565b60006105d082610634565b91506105db83610634565b9250826105eb576105ea61063e565b5b828204905092915050565b600061060182610614565b9050919050565b60008115159050919050565b600073ffffffffffffffffffffffffffffffffffffffff82169050919050565b6000819050919050565b7f4e487b7100000000000000000000000000000000000000000000000000000000600052601260045260246000fd5b7f4e487b7100000000000000000000000000000000000000000000000000000000600052604160045260246000fd5b6106a5816105f6565b81146106b057600080fd5b50565b6106bc81610634565b81146106c757600080fd5b5056fea2646970667358221220863edf5f2ebdbcced33f37193c6e17474a07bc2669b238743c8d0d47eff8810e64736f6c6343000800003360806040526000600560006101000a81548160ff021916908315150217905550600060155560006016553480156200003657600080fd5b506040516200260e3803806200260e83398181016040528101906200005c9190620001dd565b856000806101000a81548173ffffffffffffffffffffffffffffffffffffffff021916908373ffffffffffffffffffffffffffffffffffffffff16021790555084600281905550836003819055508260048190555081600781905550620000d66004546002546200019760201b620018cf1790919060201c565b60068190555060006002600c819055506000600d819055506000869050600083600160006101000a81548173ffffffffffffffffffffffffffffffffffffffff021916908373ffffffffffffffffffffffffffffffffffffffff1602179055506000601760006101000a81548160ff0219169083600581111562000183577f4e487b7100000000000000000000000000000000000000000000000000000000600052602160045260246000fd5b021790555050505050505050505062000371565b60008183620001a7919062000273565b905092915050565b600081519050620001c0816200033d565b92915050565b600081519050620001d78162000357565b92915050565b60008060008060008060c08789031215620001f757600080fd5b60006200020789828a01620001af565b96505060206200021a89828a01620001c6565b95505060406200022d89828a01620001c6565b94505060606200024089828a01620001c6565b93505060806200025389828a01620001c6565b92505060a06200026689828a01620001af565b9150509295509295509295565b6000620002808262000304565b91506200028d8362000304565b9250827fffffffffffffffffffffffffffffffffffffffffffffffffffffffffffffffff03821115620002c557620002c46200030e565b5b828201905092915050565b6000620002dd82620002e4565b9050919050565b600073ffffffffffffffffffffffffffffffffffffffff82169050919050565b6000819050919050565b7f4e487b7100000000000000000000000000000000000000000000000000000000600052601160045260246000fd5b6200034881620002d0565b81146200035457600080fd5b50565b620003628162000304565b81146200036e57600080fd5b50565b61228d80620003816000396000f3fe6080604052600436106100e85760003560e01c8063402d88831161008a578063b656f2e311610059578063b656f2e3146102c0578063c392f766146102dc578063e0cf9fea14610307578063efd475ab14610333576100e8565b8063402d888314610244578063788602681461024e578063963e050d14610279578063a89a851514610295576100e8565b80632488e683116100c65780632488e6831461018757806328fd10d7146101b35780633ccfd60b146101f05780633f82b8bd14610207576100e8565b8063045853c4146100ed57806312065fe01461011f57806319dc4b601461014a575b600080fd5b3480156100f957600080fd5b5061010261034a565b604051610116989796959493929190611ed3565b60405180910390f35b34801561012b57600080fd5b5061013461038d565b6040516101419190611e8f565b60405180910390f35b34801561015657600080fd5b50610171600480360381019061016c9190611b7e565b610395565b60405161017e9190611e54565b60405180910390f35b34801561019357600080fd5b5061019c6103b5565b6040516101aa929190611e1d565b60405180910390f35b3480156101bf57600080fd5b506101da60048036038101906101d59190611b7e565b6106e4565b6040516101e79190611e54565b60405180910390f35b3480156101fc57600080fd5b50610205610704565b005b34801561021357600080fd5b5061022e60048036038101906102299190611b7e565b61098b565b60405161023b9190611f51565b60405180910390f35b61024c6109ab565b005b34801561025a57600080fd5b50610263610c7e565b6040516102709190611e8f565b60405180910390f35b610293600480360381019061028e9190611bd0565b610c84565b005b3480156102a157600080fd5b506102aa611071565b6040516102b79190611e8f565b60405180910390f35b6102da60048036038101906102d59190611b7e565b611143565b005b3480156102e857600080fd5b506102f161155f565b6040516102fe9190611e8f565b60405180910390f35b34801561031357600080fd5b5061031c611565565b60405161032a929190611eaa565b60405180910390f35b34801561033f57600080fd5b50610348611576565b005b600080600080600080600080600254600454600354600d5460165461036d611071565b600c54600e54975097509750975097509750975097509091929394959697565b600047905090565b60116020528060005260406000206000915054906101000a900460ff1681565b606080600060165467ffffffffffffffff8111156103fc577f4e487b7100000000000000000000000000000000000000000000000000000000600052604160045260246000fd5b60405190808252806020026020018201604052801561043557816020015b610422611b2c565b81526020019060019003908161041a5790505b509050600060165467ffffffffffffffff81111561047c577f4e487b7100000000000000000000000000000000000000000000000000000000600052604160045260246000fd5b6040519080825280602002602001820160405280156104aa5781602001602082028036833780820191505090505b50905060005b6016548110156106d7576000601482815481106104f6577f4e487b7100000000000000000000000000000000000000000000000000000000600052603260045260246000fd5b9060005260206000200160009054906101000a900473ffffffffffffffffffffffffffffffffffffffff169050601160008273ffffffffffffffffffffffffffffffffffffffff1673ffffffffffffffffffffffffffffffffffffffff16815260200190815260200160002060009054906101000a900460ff16156106c35760006040518060200160405280601360008573ffffffffffffffffffffffffffffffffffffffff1673ffffffffffffffffffffffffffffffffffffffff1681526020019081526020016000205481525090506105e1816040518060200160405280600f548152506118e5565b905085848151811061061c577f4e487b7100000000000000000000000000000000000000000000000000000000600052603260045260246000fd5b6020026020010181905250601260008373ffffffffffffffffffffffffffffffffffffffff1673ffffffffffffffffffffffffffffffffffffffff16815260200190815260200160002060009054906101000a900460ff168484815181106106ad577f4e487b7100000000000000000000000000000000000000000000000000000000600052603260045260246000fd5b602002602001019060ff16908160ff1681525050505b5080806106cf9061216b565b9150506104b0565b5081819350935050509091565b60106020528060005260406000206000915054906101000a900460ff1681565b60011515600560009054906101000a900460ff1615151461072457600080fd5b60008054906101000a900473ffffffffffffffffffffffffffffffffffffffff1673ffffffffffffffffffffffffffffffffffffffff163373ffffffffffffffffffffffffffffffffffffffff161461077c57600080fd5b60025447101561078b57600080fd5b6005808111156107c4577f4e487b7100000000000000000000000000000000000000000000000000000000600052602160045260246000fd5b601760009054906101000a900460ff16600581111561080c577f4e487b7100000000000000000000000000000000000000000000000000000000600052602160045260246000fd5b141561081757600080fd5b6001601760006101000a81548160ff02191690836005811115610863577f4e487b7100000000000000000000000000000000000000000000000000000000600052602160045260246000fd5b021790555042601760009054906101000a900460ff1660058111156108b1577f4e487b7100000000000000000000000000000000000000000000000000000000600052602160045260246000fd5b7fe04b3979215729564ee00ff629e5f6e9a70fbf40d24b969dd4be1ada22bb486d60405160405180910390a342473373ffffffffffffffffffffffffffffffffffffffff167f20734f14d107b526674905e470e35d0a474f9fb996a7bdb034c839c8894524e660405160405180910390a460008054906101000a900473ffffffffffffffffffffffffffffffffffffffff1673ffffffffffffffffffffffffffffffffffffffff166108fc479081150290604051600060405180830381858888f19350505050158015610988573d6000803e3d6000fd5b50565b60126020528060005260406000206000915054906101000a900460ff1681565b60008054906101000a900473ffffffffffffffffffffffffffffffffffffffff1673ffffffffffffffffffffffffffffffffffffffff163373ffffffffffffffffffffffffffffffffffffffff1614610a0357600080fd5b60016005811115610a3d577f4e487b7100000000000000000000000000000000000000000000000000000000600052602160045260246000fd5b601760009054906101000a900460ff166005811115610a85577f4e487b7100000000000000000000000000000000000000000000000000000000600052602160045260246000fd5b14610a8f57600080fd5b600060095411610a9e57600080fd5b600a54341015610aad57600080fd5b600654600b5410610ae7577f4e487b7100000000000000000000000000000000000000000000000000000000600052600160045260246000fd5b426008819055506000600a54341115610bd957610b0f600a543461190c90919063ffffffff16565b9050610b24813461190c90919063ffffffff16565b600a5414610b5b577f4e487b7100000000000000000000000000000000000000000000000000000000600052600160045260246000fd5b348110610b91577f4e487b7100000000000000000000000000000000000000000000000000000000600052600160045260246000fd5b3373ffffffffffffffffffffffffffffffffffffffff166108fc829081150290604051600060405180830381858888f19350505050158015610bd7573d6000803e3d6000fd5b505b600654600b541415610c7b57423373ffffffffffffffffffffffffffffffffffffffff167f25630de45a38a90cbca3a2eb35a8197e51b56d6d912581711e5e3773fe77cabc60405160405180910390a36002601760006101000a81548160ff02191690836005811115610c75577f4e487b7100000000000000000000000000000000000000000000000000000000600052602160045260246000fd5b02179055505b50565b60025481565b60006005811115610cbe577f4e487b7100000000000000000000000000000000000000000000000000000000600052602160045260246000fd5b601760009054906101000a900460ff166005811115610d06577f4e487b7100000000000000000000000000000000000000000000000000000000600052602160045260246000fd5b148015610d1557506000600c54115b610d1e57600080fd5b60008260ff16118015610d35575060648260ff1611155b610d3e57600080fd5b601160008273ffffffffffffffffffffffffffffffffffffffff1673ffffffffffffffffffffffffffffffffffffffff16815260200190815260200160002060009054906101000a900460ff1615610dcb576040517f08c379a0000000000000000000000000000000000000000000000000000000008152600401610dc290611e6f565b60405180910390fd5b34600f6000828254610ddd9190611fef565b925050819055506001601160008373ffffffffffffffffffffffffffffffffffffffff1673ffffffffffffffffffffffffffffffffffffffff16815260200190815260200160002060006101000a81548160ff02191690831515021790555034601360008373ffffffffffffffffffffffffffffffffffffffff1673ffffffffffffffffffffffffffffffffffffffff1681526020019081526020016000208190555081601260008373ffffffffffffffffffffffffffffffffffffffff1673ffffffffffffffffffffffffffffffffffffffff16815260200190815260200160002060006101000a81548160ff021916908360ff1602179055506014819080600181540180825580915050600190039060005260206000200160009091909190916101000a81548173ffffffffffffffffffffffffffffffffffffffff021916908373ffffffffffffffffffffffffffffffffffffffff16021790555060166000815480929190610f4e9061216b565b9190505550600160009054906101000a900473ffffffffffffffffffffffffffffffffffffffff1673ffffffffffffffffffffffffffffffffffffffff166334bac6c53060008054906101000a900473ffffffffffffffffffffffffffffffffffffffff166000806040518563ffffffff1660e01b8152600401610fd59493929190611dd8565b602060405180830381600087803b158015610fef57600080fd5b505af1158015611003573d6000803e3d6000fd5b505050506040513d601f19601f820116820180604052508101906110279190611ba7565b5042348273ffffffffffffffffffffffffffffffffffffffff167f82d58b52dd2dfba7faa5635e75ad63a94470c74b2aa39449ed457f505899462960405160405180910390a45050565b6000600160009054906101000a900473ffffffffffffffffffffffffffffffffffffffff1673ffffffffffffffffffffffffffffffffffffffff1663fa1d784660008054906101000a900473ffffffffffffffffffffffffffffffffffffffff166040518263ffffffff1660e01b81526004016110ee9190611dbd565b60206040518083038186803b15801561110657600080fd5b505afa15801561111a573d6000803e3d6000fd5b505050506040513d601f19601f8201168201806040525081019061113e9190611ba7565b905090565b6000600581111561117d577f4e487b7100000000000000000000000000000000000000000000000000000000600052602160045260246000fd5b601760009054906101000a900460ff1660058111156111c5577f4e487b7100000000000000000000000000000000000000000000000000000000600052602160045260246000fd5b146111cf57600080fd5b60008047905060025447106113d3576111f36002544761190c90919063ffffffff16565b9150611208824761190c90919063ffffffff16565b6002541461123f577f4e487b7100000000000000000000000000000000000000000000000000000000600052600160045260246000fd5b34821115611276577f4e487b7100000000000000000000000000000000000000000000000000000000600052600160045260246000fd5b60008211156113d2578273ffffffffffffffffffffffffffffffffffffffff166108fc839081150290604051600060405180830381858888f193505050501580156112c5573d6000803e3d6000fd5b5042828473ffffffffffffffffffffffffffffffffffffffff167fa39a95c51a8eda9ac097faced5d7b26121bc7341634beed450754a13d7b4718a60405160405180910390a46001601760006101000a81548160ff02191690836005811115611357577f4e487b7100000000000000000000000000000000000000000000000000000000600052602160045260246000fd5b021790555042601760009054906101000a900460ff1660058111156113a5577f4e487b7100000000000000000000000000000000000000000000000000000000600052602160045260246000fd5b7fe04b3979215729564ee00ff629e5f6e9a70fbf40d24b969dd4be1ada22bb486d60405160405180910390a35b5b34600e60008282546113e59190611fef565b92505081905550600d60008154809291906113ff9061216b565b91905055506001601060008573ffffffffffffffffffffffffffffffffffffffff1673ffffffffffffffffffffffffffffffffffffffff16815260200190815260200160002060006101000a81548160ff0219169083151502179055506114c0611472833461190c90919063ffffffff16565b601360008673ffffffffffffffffffffffffffffffffffffffff1673ffffffffffffffffffffffffffffffffffffffff168152602001908152602001600020546118cf90919063ffffffff16565b601360008573ffffffffffffffffffffffffffffffffffffffff1673ffffffffffffffffffffffffffffffffffffffff1681526020019081526020016000208190555042611517833461190c90919063ffffffff16565b8473ffffffffffffffffffffffffffffffffffffffff167f9e9d071824fd57d062ca63fd8b786d8da48a6807eebbcb2d83f9e8d21398e28c60405160405180910390a4505050565b60045481565b600080600454600254915091509091565b60011515600560009054906101000a900460ff1615151461159657600080fd5b60011515601060003373ffffffffffffffffffffffffffffffffffffffff1673ffffffffffffffffffffffffffffffffffffffff16815260200190815260200160002060009054906101000a900460ff161515146115f357600080fd5b6002600581111561162d577f4e487b7100000000000000000000000000000000000000000000000000000000600052602160045260246000fd5b601760009054906101000a900460ff166005811115611675577f4e487b7100000000000000000000000000000000000000000000000000000000600052602160045260246000fd5b1461167f57600080fd5b6000601360003373ffffffffffffffffffffffffffffffffffffffff1673ffffffffffffffffffffffffffffffffffffffff16815260200190815260200160002054116116cb57600080fd5b60006015546006546116dd9190612045565b905080471015611716577f4e487b7100000000000000000000000000000000000000000000000000000000600052600160045260246000fd5b3373ffffffffffffffffffffffffffffffffffffffff166108fc829081150290604051600060405180830381858888f1935050505015801561175c573d6000803e3d6000fd5b5042813373ffffffffffffffffffffffffffffffffffffffff167f052f6685df2f773f854b17db1d82e2352e222010daaf8175761f02ef8782c40360405160405180910390a460004714156118cc576000600560006101000a81548160ff02191690831515021790555042600560009054906101000a900460ff1615157f160914ea27c60aa29a5f3a69d74e6069869de36e38939de1e0a66b921d8623d260405160405180910390a36003601760006101000a81548160ff02191690836005811115611851577f4e487b7100000000000000000000000000000000000000000000000000000000600052602160045260246000fd5b021790555042601760009054906101000a900460ff16600581111561189f577f4e487b7100000000000000000000000000000000000000000000000000000000600052602160045260246000fd5b7fe04b3979215729564ee00ff629e5f6e9a70fbf40d24b969dd4be1ada22bb486d60405160405180910390a35b50565b600081836118dd9190611fef565b905092915050565b60006118ef611b2c565b61190184600001518460000151611922565b915091509250929050565b6000818361191a91906120d0565b905092915050565b600061192c611b2c565b60008061194186670de0b6b3a7640000611aa1565b915091506000600381111561197f577f4e487b7100000000000000000000000000000000000000000000000000000000600052602160045260246000fd5b8260038111156119b8577f4e487b7100000000000000000000000000000000000000000000000000000000600052602160045260246000fd5b146119d9578160405180602001604052806000815250935093505050611a9a565b6000806119e68388611af9565b9150915060006003811115611a24577f4e487b7100000000000000000000000000000000000000000000000000000000600052602160045260246000fd5b826003811115611a5d577f4e487b7100000000000000000000000000000000000000000000000000000000600052602160045260246000fd5b14611a805781604051806020016040528060008152509550955050505050611a9a565b600060405180602001604052808381525095509550505050505b9250929050565b6000806000841415611ab95760008091509150611af2565b60008385611ac79190612076565b9050838582611ad69190612045565b14611ae957600260009250925050611af2565b60008192509250505b9250929050565b6000806000831415611b12576001600091509150611b25565b60008385611b209190612045565b915091505b9250929050565b6040518060200160405280600081525090565b600081359050611b4e81612212565b92915050565b600081519050611b6381612229565b92915050565b600081359050611b7881612240565b92915050565b600060208284031215611b9057600080fd5b6000611b9e84828501611b3f565b91505092915050565b600060208284031215611bb957600080fd5b6000611bc784828501611b54565b91505092915050565b60008060408385031215611be357600080fd5b6000611bf185828601611b69565b9250506020611c0285828601611b3f565b9150509250929050565b6000611c188383611d65565b60208301905092915050565b6000611c308383611d9f565b60208301905092915050565b611c4581612104565b82525050565b6000611c5682611f8c565b611c608185611fbc565b9350611c6b83611f6c565b8060005b83811015611c9c578151611c838882611c0c565b9750611c8e83611fa2565b925050600181019050611c6f565b5085935050505092915050565b6000611cb482611f97565b611cbe8185611fcd565b9350611cc983611f7c565b8060005b83811015611cfa578151611ce18882611c24565b9750611cec83611faf565b925050600181019050611ccd565b5085935050505092915050565b611d1081612116565b82525050565b611d1f81612159565b82525050565b6000611d32601c83611fde565b91507f596f75206861766520616c7265616479207265636f6d6d656e646564000000006000830152602082019050919050565b602082016000820151611d7b6000850182611d81565b50505050565b611d8a81612142565b82525050565b611d9981612142565b82525050565b611da88161214c565b82525050565b611db78161214c565b82525050565b6000602082019050611dd26000830184611c3c565b92915050565b6000608082019050611ded6000830187611c3c565b611dfa6020830186611c3c565b611e076040830185611d16565b611e146060830184611d16565b95945050505050565b60006040820190508181036000830152611e378185611c4b565b90508181036020830152611e4b8184611ca9565b90509392505050565b6000602082019050611e696000830184611d07565b92915050565b60006020820190508181036000830152611e8881611d25565b9050919050565b6000602082019050611ea46000830184611d90565b92915050565b6000604082019050611ebf6000830185611d90565b611ecc6020830184611d90565b9392505050565b600061010082019050611ee9600083018b611d90565b611ef6602083018a611d90565b611f036040830189611d90565b611f106060830188611d90565b611f1d6080830187611d90565b611f2a60a0830186611d90565b611f3760c0830185611d90565b611f4460e0830184611d90565b9998505050505050505050565b6000602082019050611f666000830184611dae565b92915050565b6000819050602082019050919050565b6000819050602082019050919050565b600081519050919050565b600081519050919050565b6000602082019050919050565b6000602082019050919050565b600082825260208201905092915050565b600082825260208201905092915050565b600082825260208201905092915050565b6000611ffa82612142565b915061200583612142565b9250827fffffffffffffffffffffffffffffffffffffffffffffffffffffffffffffffff0382111561203a576120396121b4565b5b828201905092915050565b600061205082612142565b915061205b83612142565b92508261206b5761206a6121e3565b5b828204905092915050565b600061208182612142565b915061208c83612142565b9250817fffffffffffffffffffffffffffffffffffffffffffffffffffffffffffffffff04831182151516156120c5576120c46121b4565b5b828202905092915050565b60006120db82612142565b91506120e683612142565b9250828210156120f9576120f86121b4565b5b828203905092915050565b600061210f82612122565b9050919050565b60008115159050919050565b600073ffffffffffffffffffffffffffffffffffffffff82169050919050565b6000819050919050565b600060ff82169050919050565b600061216482612142565b9050919050565b600061217682612142565b91507fffffffffffffffffffffffffffffffffffffffffffffffffffffffffffffffff8214156121a9576121a86121b4565b5b600182019050919050565b7f4e487b7100000000000000000000000000000000000000000000000000000000600052601160045260246000fd5b7f4e487b7100000000000000000000000000000000000000000000000000000000600052601260045260246000fd5b61221b81612104565b811461222657600080fd5b50565b61223281612142565b811461223d57600080fd5b50565b6122498161214c565b811461225457600080fd5b5056fea2646970667358221220fbf7049fdf46d112cd5589ee74f603976923aba8a3f7bad301d52335e5b5b9ff64736f6c63430008000033a2646970667358221220c08667891a3938dbfb5dddcb55e94f32ee3b8bd51a7113de9de302fdaff6c13964736f6c63430008000033608060405234801561001057600080fd5b50336000806101000a81548173ffffffffffffffffffffffffffffffffffffffff021916908373ffffffffffffffffffffffffffffffffffffffff16021790555061102c806100606000396000f3fe608060405234801561001057600080fd5b506004361061007d5760003560e01c8063e14602b71161005b578063e14602b714610112578063eccc475e14610142578063f851a44014610172578063fa1d7846146101905761007d565b806312606aab146100825780632bc6f127146100b257806334bac6c5146100e2575b600080fd5b61009c60048036038101906100979190610adb565b6101c0565b6040516100a99190610cad565b60405180910390f35b6100cc60048036038101906100c79190610adb565b61024f565b6040516100d99190610cad565b60405180910390f35b6100fc60048036038101906100f79190610adb565b6102de565b6040516101099190610cad565b60405180910390f35b61012c60048036038101906101279190610adb565b61053b565b6040516101399190610cad565b60405180910390f35b61015c60048036038101906101579190610adb565b6105ca565b6040516101699190610cad565b60405180910390f35b61017a610659565b6040516101879190610c55565b60405180910390f35b6101aa60048036038101906101a59190610ab2565b61067d565b6040516101b79190610cad565b60405180910390f35b6000808490508073ffffffffffffffffffffffffffffffffffffffff1663436d582f6040518163ffffffff1660e01b815260040160206040518083038186803b15801561020c57600080fd5b505afa158015610220573d6000803e3d6000fd5b505050506040513d601f19601f820116820180604052508101906102449190610baa565b915050949350505050565b6000808490508073ffffffffffffffffffffffffffffffffffffffff1663436d582f6040518163ffffffff1660e01b815260040160206040518083038186803b15801561029b57600080fd5b505afa1580156102af573d6000803e3d6000fd5b505050506040513d601f19601f820116820180604052508101906102d39190610baa565b915050949350505050565b600080849050600086905060006040518060200160405280600081525090506060808373ffffffffffffffffffffffffffffffffffffffff16632488e6836040518163ffffffff1660e01b815260040160006040518083038186803b15801561034657600080fd5b505afa15801561035a573d6000803e3d6000fd5b505050506040513d6000823e3d601f19601f820116820180604052508101906103839190610b3e565b809250819350505060005b82518110156104425761042d6104278483815181106103d6577f4e487b7100000000000000000000000000000000000000000000000000000000600052603260045260246000fd5b6020026020010151848481518110610417577f4e487b7100000000000000000000000000000000000000000000000000000000600052603260045260246000fd5b602002602001015160ff16610709565b85610735565b9350808061043a90610eca565b91505061038e565b508473ffffffffffffffffffffffffffffffffffffffff1663c361de5f846040518263ffffffff1660e01b815260040161047c9190610c92565b600060405180830381600087803b15801561049657600080fd5b505af11580156104aa573d6000803e3d6000fd5b505050508473ffffffffffffffffffffffffffffffffffffffff1663436d582f6040518163ffffffff1660e01b815260040160206040518083038186803b1580156104f457600080fd5b505afa158015610508573d6000803e3d6000fd5b505050506040513d601f19601f8201168201806040525081019061052c9190610baa565b95505050505050949350505050565b6000808490508073ffffffffffffffffffffffffffffffffffffffff1663436d582f6040518163ffffffff1660e01b815260040160206040518083038186803b15801561058757600080fd5b505afa15801561059b573d6000803e3d6000fd5b505050506040513d601f19601f820116820180604052508101906105bf9190610baa565b915050949350505050565b6000808490508073ffffffffffffffffffffffffffffffffffffffff1663436d582f6040518163ffffffff1660e01b815260040160206040518083038186803b15801561061657600080fd5b505afa15801561062a573d6000803e3d6000fd5b505050506040513d601f19601f8201168201806040525081019061064e9190610baa565b915050949350505050565b60008054906101000a900473ffffffffffffffffffffffffffffffffffffffff1681565b6000808290508073ffffffffffffffffffffffffffffffffffffffff1663436d582f6040518163ffffffff1660e01b815260040160206040518083038186803b1580156106c957600080fd5b505afa1580156106dd573d6000803e3d6000fd5b505050506040513d601f19601f820116820180604052508101906107019190610baa565b915050919050565b6107116108e7565b604051806020016040528061072a856000015185610765565b815250905092915050565b61073d6108e7565b604051806020016040528061075a856000015185600001516107af565b815250905092915050565b60006107a783836040518060400160405280601781526020017f6d756c7469706c69636174696f6e206f766572666c6f770000000000000000008152506107f9565b905092915050565b60006107f183836040518060400160405280601181526020017f6164646974696f6e206f766572666c6f77000000000000000000000000000000815250610884565b905092915050565b6000808414806108095750600083145b15610817576000905061087d565b600083856108259190610df4565b90508385826108349190610dc3565b148390610877576040517f08c379a000000000000000000000000000000000000000000000000000000000815260040161086e9190610c70565b60405180910390fd5b50809150505b9392505050565b60008083856108939190610d6d565b90508481101583906108db576040517f08c379a00000000000000000000000000000000000000000000000000000000081526004016108d29190610c70565b60405180910390fd5b50809150509392505050565b6040518060200160405280600081525090565b600061090d61090884610cf9565b610cc8565b9050808382526020820190508285602086028201111561092c57600080fd5b60005b8581101561095c57816109428882610a3b565b84526020840193506020830192505060018101905061092f565b5050509392505050565b600061097961097484610d25565b610cc8565b9050808382526020820190508285602086028201111561099857600080fd5b60005b858110156109c857816109ae8882610a9d565b84526020840193506020830192505060018101905061099b565b5050509392505050565b6000813590506109e181610fb1565b92915050565b600082601f8301126109f857600080fd5b8151610a088482602086016108fa565b91505092915050565b600082601f830112610a2257600080fd5b8151610a32848260208601610966565b91505092915050565b600060208284031215610a4d57600080fd5b610a576020610cc8565b90506000610a6784828501610a88565b60008301525092915050565b600081359050610a8281610fc8565b92915050565b600081519050610a9781610fc8565b92915050565b600081519050610aac81610fdf565b92915050565b600060208284031215610ac457600080fd5b6000610ad2848285016109d2565b91505092915050565b60008060008060808587031215610af157600080fd5b6000610aff878288016109d2565b9450506020610b10878288016109d2565b9350506040610b2187828801610a73565b9250506060610b3287828801610a73565b91505092959194509250565b60008060408385031215610b5157600080fd5b600083015167ffffffffffffffff811115610b6b57600080fd5b610b77858286016109e7565b925050602083015167ffffffffffffffff811115610b9457600080fd5b610ba085828601610a11565b9150509250929050565b600060208284031215610bbc57600080fd5b6000610bca84828501610a88565b91505092915050565b610bdc81610e4e565b82525050565b6000610bed82610d51565b610bf78185610d5c565b9350610c07818560208601610e97565b610c1081610fa0565b840191505092915050565b602082016000820151610c316000850182610c37565b50505050565b610c4081610e80565b82525050565b610c4f81610e80565b82525050565b6000602082019050610c6a6000830184610bd3565b92915050565b60006020820190508181036000830152610c8a8184610be2565b905092915050565b6000602082019050610ca76000830184610c1b565b92915050565b6000602082019050610cc26000830184610c46565b92915050565b6000604051905081810181811067ffffffffffffffff82111715610cef57610cee610f71565b5b8060405250919050565b600067ffffffffffffffff821115610d1457610d13610f71565b5b602082029050602081019050919050565b600067ffffffffffffffff821115610d4057610d3f610f71565b5b602082029050602081019050919050565b600081519050919050565b600082825260208201905092915050565b6000610d7882610e80565b9150610d8383610e80565b9250827fffffffffffffffffffffffffffffffffffffffffffffffffffffffffffffffff03821115610db857610db7610f13565b5b828201905092915050565b6000610dce82610e80565b9150610dd983610e80565b925082610de957610de8610f42565b5b828204905092915050565b6000610dff82610e80565b9150610e0a83610e80565b9250817fffffffffffffffffffffffffffffffffffffffffffffffffffffffffffffffff0483118215151615610e4357610e42610f13565b5b828202905092915050565b6000610e5982610e60565b9050919050565b600073ffffffffffffffffffffffffffffffffffffffff82169050919050565b6000819050919050565b600060ff82169050919050565b60005b83811015610eb5578082015181840152602081019050610e9a565b83811115610ec4576000848401525b50505050565b6000610ed582610e80565b91507fffffffffffffffffffffffffffffffffffffffffffffffffffffffffffffffff821415610f0857610f07610f13565b5b600182019050919050565b7f4e487b7100000000000000000000000000000000000000000000000000000000600052601160045260246000fd5b7f4e487b7100000000000000000000000000000000000000000000000000000000600052601260045260246000fd5b7f4e487b7100000000000000000000000000000000000000000000000000000000600052604160045260246000fd5b6000601f19601f8301169050919050565b610fba81610e4e565b8114610fc557600080fd5b50565b610fd181610e80565b8114610fdc57600080fd5b50565b610fe881610e8a565b8114610ff357600080fd5b5056fea26469706673582212200146840799acf44d88535b5dc401531bd06ae806aee8f7e95c371fc1079885f064736f6c63430008000033",
  "immutableReferences": {},
  "source": "pragma solidity ^0.8.0;\n\nimport \"@openzeppelin/contracts/utils/math/Math.sol\";\n\nimport \"./Loan.sol\";\nimport \"./User.sol\";\nimport \"./TScoreController.sol\";\n\ncontract DynamicCollateralLending {\n\n    using Math for uint;\n\n    // Store all users with their address\n    mapping(address => User) public users;\n    address[] userAddr;\n\n    uint addressRegistryCount;\n    address tScoreController;\n\n    constructor() {\n        tScoreController = address(new TScoreController());\n    }\n\n    /** @dev Events\n    *\n    */\n    event LoanRequestedPosted(address indexed _address, uint indexed timestamp, address indexed _loanAddress, address _userAddress);\n    event TScoreInitialized(address indexed _address, uint indexed timestamp);\n\n    function applyForLoan(uint _requestedAmount, uint _repaymentsCount, uint _interest) public {\n\n        if (users[msg.sender] != User(address(0))) {\n            // The user not fraudulent\n            /* require(users[msg.sender ].fraudStatus == false);\n\n             // The user must not have any loan in progress\n             assert(users[msg.sender].activeLoan == address(0));*/\n        } else {\n            users[msg.sender] = new User();\n        }\n\n        uint creationTime = block.timestamp+30;\n/*\n        TScore storage tScore;\n        if (users[msg.sender] == address(0x0)) {\n            initTScore();\n        } else {\n            tScore = users[msg.sender];\n        }*/\n\n        Loan loan = new Loan(address(users[msg.sender]), _requestedAmount, _repaymentsCount, _interest, creationTime, tScoreController);\n\n        address loanAddr = address(loan);\n\n        users[msg.sender].setActiveLoan(loanAddr);\n        users[msg.sender].setOrbitDbIndexHash(loanAddr);\n        userAddr.push(msg.sender);\n        addressRegistryCount++;\n\n        emit LoanRequestedPosted(msg.sender, block.timestamp, loanAddr, address(users[msg.sender]));\n    }\n\n    function getHashesOfLoanRequests() public view returns (address[] memory){\n        address[] memory ret = new address[](addressRegistryCount);\n        for (uint i = 0; i < addressRegistryCount; i++) {\n            ret[i] = users[userAddr[i]].orbitDbIndexHash();\n        }\n        return ret;\n    }\n\n    function hasBorrow() public view returns (bool) {\n        return users[msg.sender].activeLoan() != address(0);\n    }\n\n    function getBorrowerInfos() public view returns (\n        uint256,\n        uint256,\n        uint256,\n        uint256,\n        uint256,\n        uint256,\n        uint256,\n        uint256)\n    {\n        return Loan(users[msg.sender].activeLoan()).getInfosForBorrower();\n    }\n\n    function invest(address loanContract) public payable {\n       Loan(loanContract).lend{value: msg.value}(msg.sender);\n    }\n\n    function recommend(address loanContract, uint8 score) public payable {\n       Loan(loanContract).recommend{value: msg.value}(score, msg.sender);\n    }\n\n    function getBalance() public view returns (uint256) {\n        return Loan(users[msg.sender].activeLoan()).getBalance();\n    }\n\n    function initTScore() internal {\n        emit TScoreInitialized(msg.sender, block.timestamp);\n    }\n\n}\n",
  "sourcePath": "/Users/nikitaterekhov/Projects/LiquidityProtocol/contracts/DynamicCollateralLending.sol",
  "compiler": {
    "name": "solc",
    "version": "0.8.0+commit.c7dfd78e.Emscripten.clang"
  },
  "schemaVersion": "3.4.1",
  "updatedAt": "2021-08-24T06:14:46.428Z",
  "networkType": "ethereum",
  "devdoc": {
    "events": {
      "LoanRequestedPosted(address,uint256,address,address)": {
        "details": "Events"
      }
    },
    "kind": "dev",
    "methods": {},
    "version": 1
  },
  "userdoc": {
    "kind": "user",
    "methods": {},
    "version": 1
  }
}