{
  "contractName": "DynamicCollateralLending",
  "abi": [
    {
      "inputs": [
        {
          "internalType": "address",
          "name": "",
          "type": "address"
        }
      ],
      "name": "users",
      "outputs": [
        {
          "internalType": "bool",
          "name": "fraudStatus",
          "type": "bool"
        },
        {
          "internalType": "address",
          "name": "activeLoan",
          "type": "address"
        },
        {
          "internalType": "address",
          "name": "activeSupply",
          "type": "address"
        }
      ],
      "stateMutability": "view",
      "type": "function",
      "constant": true
    },
    {
      "inputs": [
        {
          "internalType": "uint256",
          "name": "_requestedAmount",
          "type": "uint256"
        },
        {
          "internalType": "uint256",
          "name": "_repaymentsCount",
          "type": "uint256"
        },
        {
          "internalType": "uint256",
          "name": "_interest",
          "type": "uint256"
        },
        {
          "internalType": "bytes32",
          "name": "_loanDescription",
          "type": "bytes32"
        }
      ],
      "name": "applyForLoan",
      "outputs": [
        {
          "internalType": "address",
          "name": "",
          "type": "address"
        }
      ],
      "stateMutability": "nonpayable",
      "type": "function"
    }
  ],
  "bytecode": "0x608060405234801561001057600080fd5b50611693806100206000396000f3fe608060405234801561001057600080fd5b50600436106100365760003560e01c80638852648c1461003b578063a87430ba1461006b575b600080fd5b61005560048036038101906100509190610377565b61009d565b6040516100629190610416565b60405180910390f35b6100856004803603810190610080919061034e565b61028b565b60405161009493929190610431565b60405180910390f35b60008015156000803373ffffffffffffffffffffffffffffffffffffffff1673ffffffffffffffffffffffffffffffffffffffff16815260200190815260200160002060000160009054906101000a900460ff161515146100fd57600080fd5b600073ffffffffffffffffffffffffffffffffffffffff166000803373ffffffffffffffffffffffffffffffffffffffff1673ffffffffffffffffffffffffffffffffffffffff16815260200190815260200160002060000160019054906101000a900473ffffffffffffffffffffffffffffffffffffffff1673ffffffffffffffffffffffffffffffffffffffff16146101c1577f4e487b7100000000000000000000000000000000000000000000000000000000600052600160045260246000fd5b6000858585856040516101d390610302565b6101e09493929190610468565b604051809103906000f0801580156101fc573d6000803e3d6000fd5b509050806000803373ffffffffffffffffffffffffffffffffffffffff1673ffffffffffffffffffffffffffffffffffffffff16815260200190815260200160002060000160016101000a81548173ffffffffffffffffffffffffffffffffffffffff021916908373ffffffffffffffffffffffffffffffffffffffff16021790555080915050949350505050565b60006020528060005260406000206000915090508060000160009054906101000a900460ff16908060000160019054906101000a900473ffffffffffffffffffffffffffffffffffffffff16908060010160009054906101000a900473ffffffffffffffffffffffffffffffffffffffff16905083565b6111198061054583390190565b60008135905061031e816104ff565b92915050565b60008135905061033381610516565b92915050565b6000813590506103488161052d565b92915050565b60006020828403121561036057600080fd5b600061036e8482850161030f565b91505092915050565b6000806000806080858703121561038d57600080fd5b600061039b87828801610339565b94505060206103ac87828801610339565b93505060406103bd87828801610339565b92505060606103ce87828801610324565b91505092959194509250565b6103e3816104ad565b82525050565b6103f2816104bf565b82525050565b610401816104cb565b82525050565b610410816104f5565b82525050565b600060208201905061042b60008301846103da565b92915050565b600060608201905061044660008301866103e9565b61045360208301856103da565b61046060408301846103da565b949350505050565b600060808201905061047d6000830187610407565b61048a6020830186610407565b6104976040830185610407565b6104a460608301846103f8565b95945050505050565b60006104b8826104d5565b9050919050565b60008115159050919050565b6000819050919050565b600073ffffffffffffffffffffffffffffffffffffffff82169050919050565b6000819050919050565b610508816104ad565b811461051357600080fd5b50565b61051f816104cb565b811461052a57600080fd5b50565b610536816104f5565b811461054157600080fd5b5056fe60806040526001600b60006101000a81548160ff0219169083151502179055506000600f553480156200003157600080fd5b5060405162001119380380620011198339818101604052810190620000579190620000ee565b8360018190555082600281905550816003819055508060048190555062000091600354600154620000a860201b62000c6f1790919060201c565b60058190555042600681905550505050506200022e565b60008183620000b891906200015a565b905092915050565b600081519050620000d181620001fa565b92915050565b600081519050620000e88162000214565b92915050565b600080600080608085870312156200010557600080fd5b60006200011587828801620000d7565b94505060206200012887828801620000d7565b93505060406200013b87828801620000d7565b92505060606200014e87828801620000c0565b91505092959194509250565b60006200016782620001c1565b91506200017483620001c1565b9250827fffffffffffffffffffffffffffffffffffffffffffffffffffffffffffffffff03821115620001ac57620001ab620001cb565b5b828201905092915050565b6000819050919050565b6000819050919050565b7f4e487b7100000000000000000000000000000000000000000000000000000000600052601160045260246000fd5b6200020581620001b7565b81146200021157600080fd5b50565b6200021f81620001c1565b81146200022b57600080fd5b50565b610edb806200023e6000396000f3fe6080604052600436106100555760003560e01c806312065fe01461005a57806328fd10d7146100855780633ccfd60b146100c2578063402d8883146100d957806397dffc61146100e3578063efd475ab146100ed575b600080fd5b34801561006657600080fd5b5061006f610104565b60405161007c9190610d12565b60405180910390f35b34801561009157600080fd5b506100ac60048036038101906100a79190610cb0565b61010c565b6040516100b99190610cf7565b60405180910390f35b3480156100ce57600080fd5b506100d761012c565b005b6100e16103b3565b005b6100eb610642565b005b3480156100f957600080fd5b50610102610916565b005b600047905090565b600c6020528060005260406000206000915054906101000a900460ff1681565b60011515600b60009054906101000a900460ff1615151461014c57600080fd5b60008054906101000a900473ffffffffffffffffffffffffffffffffffffffff1673ffffffffffffffffffffffffffffffffffffffff163373ffffffffffffffffffffffffffffffffffffffff16146101a457600080fd5b6001544710156101b357600080fd5b6005808111156101ec577f4e487b7100000000000000000000000000000000000000000000000000000000600052602160045260246000fd5b600e60009054906101000a900460ff166005811115610234577f4e487b7100000000000000000000000000000000000000000000000000000000600052602160045260246000fd5b141561023f57600080fd5b6001600e60006101000a81548160ff0219169083600581111561028b577f4e487b7100000000000000000000000000000000000000000000000000000000600052602160045260246000fd5b021790555042600e60009054906101000a900460ff1660058111156102d9577f4e487b7100000000000000000000000000000000000000000000000000000000600052602160045260246000fd5b7faaae373901e745122c2e0925ad006227969c6cd190b7d5ea2fb7fdbd1d955b3560405160405180910390a342473373ffffffffffffffffffffffffffffffffffffffff167f20734f14d107b526674905e470e35d0a474f9fb996a7bdb034c839c8894524e660405160405180910390a460008054906101000a900473ffffffffffffffffffffffffffffffffffffffff1673ffffffffffffffffffffffffffffffffffffffff166108fc479081150290604051600060405180830381858888f193505050501580156103b0573d6000803e3d6000fd5b50565b60008054906101000a900473ffffffffffffffffffffffffffffffffffffffff1673ffffffffffffffffffffffffffffffffffffffff163373ffffffffffffffffffffffffffffffffffffffff161461040b57600080fd5b60016005811115610445577f4e487b7100000000000000000000000000000000000000000000000000000000600052602160045260246000fd5b600e60009054906101000a900460ff16600581111561048d577f4e487b7100000000000000000000000000000000000000000000000000000000600052602160045260246000fd5b1461049757600080fd5b6000600854116104a657600080fd5b6009543410156104b557600080fd5b600554600a54106104ef577f4e487b7100000000000000000000000000000000000000000000000000000000600052600160045260246000fd5b4260078190555060006009543411156105e15761051760095434610c8590919063ffffffff16565b905061052c8134610c8590919063ffffffff16565b60095414610563577f4e487b7100000000000000000000000000000000000000000000000000000000600052600160045260246000fd5b348110610599577f4e487b7100000000000000000000000000000000000000000000000000000000600052600160045260246000fd5b3373ffffffffffffffffffffffffffffffffffffffff166108fc829081150290604051600060405180830381858888f193505050501580156105df573d6000803e3d6000fd5b505b600554600a54141561063f576002600e60006101000a81548160ff02191690836005811115610639577f4e487b7100000000000000000000000000000000000000000000000000000000600052602160045260246000fd5b02179055505b50565b6000600581111561067c577f4e487b7100000000000000000000000000000000000000000000000000000000600052602160045260246000fd5b600e60009054906101000a900460ff1660058111156106c4577f4e487b7100000000000000000000000000000000000000000000000000000000600052602160045260246000fd5b146106ce57600080fd5b60006001544710610814576106ee60015447610c8590919063ffffffff16565b90506107038147610c8590919063ffffffff16565b6001541461073a577f4e487b7100000000000000000000000000000000000000000000000000000000600052600160045260246000fd5b34811115610771577f4e487b7100000000000000000000000000000000000000000000000000000000600052600160045260246000fd5b60008111156107c2573373ffffffffffffffffffffffffffffffffffffffff166108fc829081150290604051600060405180830381858888f193505050501580156107c0573d6000803e3d6000fd5b505b6001600e60006101000a81548160ff0219169083600581111561080e577f4e487b7100000000000000000000000000000000000000000000000000000000600052602160045260246000fd5b02179055505b6001600c60003373ffffffffffffffffffffffffffffffffffffffff1673ffffffffffffffffffffffffffffffffffffffff16815260200190815260200160002060006101000a81548160ff0219169083151502179055506108d06108828234610c8590919063ffffffff16565b600d60003373ffffffffffffffffffffffffffffffffffffffff1673ffffffffffffffffffffffffffffffffffffffff16815260200190815260200160002054610c6f90919063ffffffff16565b600d60003373ffffffffffffffffffffffffffffffffffffffff1673ffffffffffffffffffffffffffffffffffffffff1681526020019081526020016000208190555050565b60011515600b60009054906101000a900460ff1615151461093657600080fd5b60011515600c60003373ffffffffffffffffffffffffffffffffffffffff1673ffffffffffffffffffffffffffffffffffffffff16815260200190815260200160002060009054906101000a900460ff1615151461099357600080fd5b600260058111156109cd577f4e487b7100000000000000000000000000000000000000000000000000000000600052602160045260246000fd5b600e60009054906101000a900460ff166005811115610a15577f4e487b7100000000000000000000000000000000000000000000000000000000600052602160045260246000fd5b14610a1f57600080fd5b6000600d60003373ffffffffffffffffffffffffffffffffffffffff1673ffffffffffffffffffffffffffffffffffffffff1681526020019081526020016000205411610a6b57600080fd5b6000600f54600554610a7d9190610d83565b905080471015610ab6577f4e487b7100000000000000000000000000000000000000000000000000000000600052600160045260246000fd5b3373ffffffffffffffffffffffffffffffffffffffff166108fc829081150290604051600060405180830381858888f19350505050158015610afc573d6000803e3d6000fd5b5042813373ffffffffffffffffffffffffffffffffffffffff167f052f6685df2f773f854b17db1d82e2352e222010daaf8175761f02ef8782c40360405160405180910390a46000471415610c6c576000600b60006101000a81548160ff02191690831515021790555042600b60009054906101000a900460ff1615157f160914ea27c60aa29a5f3a69d74e6069869de36e38939de1e0a66b921d8623d260405160405180910390a36003600e60006101000a81548160ff02191690836005811115610bf1577f4e487b7100000000000000000000000000000000000000000000000000000000600052602160045260246000fd5b021790555042600e60009054906101000a900460ff166005811115610c3f577f4e487b7100000000000000000000000000000000000000000000000000000000600052602160045260246000fd5b7faaae373901e745122c2e0925ad006227969c6cd190b7d5ea2fb7fdbd1d955b3560405160405180910390a35b50565b60008183610c7d9190610d2d565b905092915050565b60008183610c939190610db4565b905092915050565b600081359050610caa81610e8e565b92915050565b600060208284031215610cc257600080fd5b6000610cd084828501610c9b565b91505092915050565b610ce281610dfa565b82525050565b610cf181610e26565b82525050565b6000602082019050610d0c6000830184610cd9565b92915050565b6000602082019050610d276000830184610ce8565b92915050565b6000610d3882610e26565b9150610d4383610e26565b9250827fffffffffffffffffffffffffffffffffffffffffffffffffffffffffffffffff03821115610d7857610d77610e30565b5b828201905092915050565b6000610d8e82610e26565b9150610d9983610e26565b925082610da957610da8610e5f565b5b828204905092915050565b6000610dbf82610e26565b9150610dca83610e26565b925082821015610ddd57610ddc610e30565b5b828203905092915050565b6000610df382610e06565b9050919050565b60008115159050919050565b600073ffffffffffffffffffffffffffffffffffffffff82169050919050565b6000819050919050565b7f4e487b7100000000000000000000000000000000000000000000000000000000600052601160045260246000fd5b7f4e487b7100000000000000000000000000000000000000000000000000000000600052601260045260246000fd5b610e9781610de8565b8114610ea257600080fd5b5056fea264697066735822122019b2f903d33a513b1964656173896c44432b3ca983f64db8dfdd324c3560a85264736f6c63430008000033a2646970667358221220c2f3fb3611fa802cf89b70078f97aea920ee1e27da3c06ee19085f454f3d645f64736f6c63430008000033",
  "immutableReferences": {},
  "source": "pragma solidity ^0.8.0;\n\nimport \"@openzeppelin/contracts/utils/math/Math.sol\";\n\nimport \"./Loan.sol\";\n\ncontract DynamicCollateralLending {\n\n    using Math for uint;\n\n    struct User {\n        bool fraudStatus;\n        address activeLoan;\n        address activeSupply;\n    }\n\n    // Store all users with their address\n    mapping(address => User) public users;\n\n    function applyForLoan(uint _requestedAmount, uint _repaymentsCount, uint _interest, bytes32 _loanDescription) public returns(address) {\n\n        // The user not fraudulent\n        require(users[msg.sender].fraudStatus == false);\n\n        // The user must not have any loan in progress\n        assert(users[msg.sender].activeLoan == address(0));\n\n        Loan loan = new Loan(_requestedAmount, _repaymentsCount, _interest, _loanDescription);\n\n        users[msg.sender].activeLoan = address(loan);\n\n        return address(loan);\n    }\n\n}\n",
  "sourcePath": "/Users/nikitaterekhov/Projects/LiquidityProtocol/contracts/DynamicCollateralLending.sol",
  "compiler": {
    "name": "solc",
    "version": "0.8.0+commit.c7dfd78e.Emscripten.clang"
  },
  "schemaVersion": "3.3.4",
  "updatedAt": "2021-06-17T21:27:18.212Z",
  "networkType": "ethereum",
  "devdoc": {
    "kind": "dev",
    "methods": {},
    "version": 1
  },
  "userdoc": {
    "kind": "user",
    "methods": {},
    "version": 1
  }
}