{
  "contractName": "DynamicCollateralLending",
  "abi": [
    {
      "anonymous": false,
      "inputs": [
        {
          "indexed": true,
          "internalType": "address",
          "name": "_address",
          "type": "address"
        },
        {
          "indexed": true,
          "internalType": "uint256",
          "name": "timestamp",
          "type": "uint256"
        }
      ],
      "name": "LogLoanRequestedPosted",
      "type": "event"
    },
    {
      "inputs": [
        {
          "internalType": "address",
          "name": "",
          "type": "address"
        }
      ],
      "name": "users",
      "outputs": [
        {
          "internalType": "bool",
          "name": "fraudStatus",
          "type": "bool"
        },
        {
          "internalType": "address",
          "name": "activeLoan",
          "type": "address"
        },
        {
          "internalType": "address",
          "name": "activeSupply",
          "type": "address"
        },
        {
          "internalType": "address",
          "name": "orbitDbIndexHash",
          "type": "address"
        }
      ],
      "stateMutability": "view",
      "type": "function",
      "constant": true
    },
    {
      "inputs": [
        {
          "internalType": "uint256",
          "name": "_requestedAmount",
          "type": "uint256"
        },
        {
          "internalType": "uint256",
          "name": "_repaymentsCount",
          "type": "uint256"
        },
        {
          "internalType": "uint256",
          "name": "_interest",
          "type": "uint256"
        }
      ],
      "name": "applyForLoan",
      "outputs": [],
      "stateMutability": "nonpayable",
      "type": "function"
    },
    {
      "inputs": [],
      "name": "getHashesOfLoanRequests",
      "outputs": [
        {
          "internalType": "address[]",
          "name": "",
          "type": "address[]"
        }
      ],
      "stateMutability": "view",
      "type": "function",
      "constant": true
    },
    {
      "inputs": [],
      "name": "test",
      "outputs": [],
      "stateMutability": "nonpayable",
      "type": "function"
    }
  ],
  "bytecode": "0x608060405234801561001057600080fd5b506118dc806100206000396000f3fe60806040523480156200001157600080fd5b5060043610620000525760003560e01c8063869b4da51462000057578063a87430ba1462000079578063f8a8fd6d14620000b2578063fc24578314620000be575b600080fd5b62000061620000de565b6040516200007091906200065d565b60405180910390f35b620000976004803603810190620000919190620004ba565b62000252565b604051620000a9949392919062000681565b60405180910390f35b620000bc620002ef565b005b620000dc6004803603810190620000d69190620004ec565b620002f1565b005b6060600060025467ffffffffffffffff811115620001015762000100620007fd565b5b604051908082528060200260200182016040528015620001305781602001602082028036833780820191505090505b50905060005b6002548110156200024a57600080600183815481106200015b576200015a620007ce565b5b9060005260206000200160009054906101000a900473ffffffffffffffffffffffffffffffffffffffff1673ffffffffffffffffffffffffffffffffffffffff1673ffffffffffffffffffffffffffffffffffffffff16815260200190815260200160002060020160009054906101000a900473ffffffffffffffffffffffffffffffffffffffff16828281518110620001fa57620001f9620007ce565b5b602002602001019073ffffffffffffffffffffffffffffffffffffffff16908173ffffffffffffffffffffffffffffffffffffffff16815250508080620002419062000751565b91505062000136565b508091505090565b60006020528060005260406000206000915090508060000160009054906101000a900460ff16908060000160019054906101000a900473ffffffffffffffffffffffffffffffffffffffff16908060010160009054906101000a900473ffffffffffffffffffffffffffffffffffffffff16908060020160009054906101000a900473ffffffffffffffffffffffffffffffffffffffff16905084565b565b60003384848460405162000305906200047e565b62000314949392919062000610565b604051809103906000f08015801562000331573d6000803e3d6000fd5b509050806000803373ffffffffffffffffffffffffffffffffffffffff1673ffffffffffffffffffffffffffffffffffffffff16815260200190815260200160002060000160016101000a81548173ffffffffffffffffffffffffffffffffffffffff021916908373ffffffffffffffffffffffffffffffffffffffff160217905550806000803373ffffffffffffffffffffffffffffffffffffffff1673ffffffffffffffffffffffffffffffffffffffff16815260200190815260200160002060020160006101000a81548173ffffffffffffffffffffffffffffffffffffffff021916908373ffffffffffffffffffffffffffffffffffffffff160217905550423373ffffffffffffffffffffffffffffffffffffffff167f048f2a6dafeed79f0a70dae0992f1d83d6dfe590811f1fc1f88677e1d8eedd1d60405160405180910390a350505050565b611041806200086683390190565b6000813590506200049d8162000831565b92915050565b600081359050620004b4816200084b565b92915050565b600060208284031215620004d357620004d26200082c565b5b6000620004e3848285016200048c565b91505092915050565b6000806000606084860312156200050857620005076200082c565b5b60006200051886828701620004a3565b93505060206200052b86828701620004a3565b92505060406200053e86828701620004a3565b9150509250925092565b600062000556838362000562565b60208301905092915050565b6200056d8162000707565b82525050565b6200057e8162000707565b82525050565b60006200059182620006de565b6200059d8185620006f6565b9350620005aa83620006ce565b8060005b83811015620005e1578151620005c5888262000548565b9750620005d283620006e9565b925050600181019050620005ae565b5085935050505092915050565b620005f9816200071b565b82525050565b6200060a8162000747565b82525050565b600060808201905062000627600083018762000573565b620006366020830186620005ff565b620006456040830185620005ff565b620006546060830184620005ff565b95945050505050565b6000602082019050818103600083015262000679818462000584565b905092915050565b6000608082019050620006986000830187620005ee565b620006a7602083018662000573565b620006b6604083018562000573565b620006c5606083018462000573565b95945050505050565b6000819050602082019050919050565b600081519050919050565b6000602082019050919050565b600082825260208201905092915050565b6000620007148262000727565b9050919050565b60008115159050919050565b600073ffffffffffffffffffffffffffffffffffffffff82169050919050565b6000819050919050565b60006200075e8262000747565b91507fffffffffffffffffffffffffffffffffffffffffffffffffffffffffffffffff8214156200079457620007936200079f565b5b600182019050919050565b7f4e487b7100000000000000000000000000000000000000000000000000000000600052601160045260246000fd5b7f4e487b7100000000000000000000000000000000000000000000000000000000600052603260045260246000fd5b7f4e487b7100000000000000000000000000000000000000000000000000000000600052604160045260246000fd5b600080fd5b6200083c8162000707565b81146200084857600080fd5b50565b620008568162000747565b81146200086257600080fd5b5056fe60806040526000600e553480156200001657600080fd5b50604051620010413803806200104183398181016040528101906200003c919062000166565b836000806101000a81548173ffffffffffffffffffffffffffffffffffffffff021916908373ffffffffffffffffffffffffffffffffffffffff160217905550826001819055508160028190555080600381905550620000af6003546001546200010860201b62000a061790919060201c565b600581905550426006819055506000600460006101000a81548160ff0219169083151502179055506000808490506000620000f985836200012060201b62000a1c1790919060201c565b90505050505050505062000342565b60008183620001189190620001d8565b905092915050565b6000818362000130919062000235565b905092915050565b60008151905062000149816200030e565b92915050565b600081519050620001608162000328565b92915050565b6000806000806080858703121562000183576200018262000309565b5b6000620001938782880162000138565b9450506020620001a6878288016200014f565b9350506040620001b9878288016200014f565b9250506060620001cc878288016200014f565b91505092959194509250565b6000620001e582620002a1565b9150620001f283620002a1565b9250827fffffffffffffffffffffffffffffffffffffffffffffffffffffffffffffffff038211156200022a5762000229620002ab565b5b828201905092915050565b60006200024282620002a1565b91506200024f83620002a1565b925082620002625762000261620002da565b5b828204905092915050565b60006200027a8262000281565b9050919050565b600073ffffffffffffffffffffffffffffffffffffffff82169050919050565b6000819050919050565b7f4e487b7100000000000000000000000000000000000000000000000000000000600052601160045260246000fd5b7f4e487b7100000000000000000000000000000000000000000000000000000000600052601260045260246000fd5b600080fd5b62000319816200026d565b81146200032557600080fd5b50565b6200033381620002a1565b81146200033f57600080fd5b50565b610cef80620003526000396000f3fe6080604052600436106100705760003560e01c8063402d88831161004e578063402d8883146100f457806397dffc61146100fe578063a89a851514610108578063efd475ab1461013357610070565b806312065fe01461007557806328fd10d7146100a05780633ccfd60b146100dd575b600080fd5b34801561008157600080fd5b5061008a61014a565b6040516100979190610ac3565b60405180910390f35b3480156100ac57600080fd5b506100c760048036038101906100c29190610a5d565b610152565b6040516100d49190610aa8565b60405180910390f35b3480156100e957600080fd5b506100f2610172565b005b6100fc610361565b005b610106610550565b005b34801561011457600080fd5b5061011d610766565b60405161012a9190610ac3565b60405180910390f35b34801561013f57600080fd5b5061014861076b565b005b600047905090565b600b6020528060005260406000206000915054906101000a900460ff1681565b60011515600460009054906101000a900460ff1615151461019257600080fd5b60008054906101000a900473ffffffffffffffffffffffffffffffffffffffff1673ffffffffffffffffffffffffffffffffffffffff163373ffffffffffffffffffffffffffffffffffffffff16146101ea57600080fd5b6001544710156101f957600080fd5b60058081111561020c5761020b610c6e565b5b600d60009054906101000a900460ff16600581111561022e5761022d610c6e565b5b141561023957600080fd5b6001600d60006101000a81548160ff0219169083600581111561025f5761025e610c6e565b5b021790555042600d60009054906101000a900460ff16600581111561028757610286610c6e565b5b7faaae373901e745122c2e0925ad006227969c6cd190b7d5ea2fb7fdbd1d955b3560405160405180910390a342473373ffffffffffffffffffffffffffffffffffffffff167f20734f14d107b526674905e470e35d0a474f9fb996a7bdb034c839c8894524e660405160405180910390a460008054906101000a900473ffffffffffffffffffffffffffffffffffffffff1673ffffffffffffffffffffffffffffffffffffffff166108fc479081150290604051600060405180830381858888f1935050505015801561035e573d6000803e3d6000fd5b50565b60008054906101000a900473ffffffffffffffffffffffffffffffffffffffff1673ffffffffffffffffffffffffffffffffffffffff163373ffffffffffffffffffffffffffffffffffffffff16146103b957600080fd5b600160058111156103cd576103cc610c6e565b5b600d60009054906101000a900460ff1660058111156103ef576103ee610c6e565b5b146103f957600080fd5b60006008541161040857600080fd5b60095434101561041757600080fd5b600554600a541061042b5761042a610be1565b5b4260078190555060006009543411156104d15761045360095434610a3290919063ffffffff16565b90506104688134610a3290919063ffffffff16565b6009541461047957610478610be1565b5b34811061048957610488610be1565b5b3373ffffffffffffffffffffffffffffffffffffffff166108fc829081150290604051600060405180830381858888f193505050501580156104cf573d6000803e3d6000fd5b505b600554600a54141561054d57423373ffffffffffffffffffffffffffffffffffffffff167f25630de45a38a90cbca3a2eb35a8197e51b56d6d912581711e5e3773fe77cabc60405160405180910390a36002600d60006101000a81548160ff0219169083600581111561054757610546610c6e565b5b02179055505b50565b6000600581111561056457610563610c6e565b5b600d60009054906101000a900460ff16600581111561058657610585610c6e565b5b1461059057600080fd5b60006001544710610664576105b060015447610a3290919063ffffffff16565b90506105c58147610a3290919063ffffffff16565b600154146105d6576105d5610be1565b5b348111156105e7576105e6610be1565b5b6000811115610638573373ffffffffffffffffffffffffffffffffffffffff166108fc829081150290604051600060405180830381858888f19350505050158015610636573d6000803e3d6000fd5b505b6001600d60006101000a81548160ff0219169083600581111561065e5761065d610c6e565b5b02179055505b6001600b60003373ffffffffffffffffffffffffffffffffffffffff1673ffffffffffffffffffffffffffffffffffffffff16815260200190815260200160002060006101000a81548160ff0219169083151502179055506107206106d28234610a3290919063ffffffff16565b600c60003373ffffffffffffffffffffffffffffffffffffffff1673ffffffffffffffffffffffffffffffffffffffff16815260200190815260200160002054610a0690919063ffffffff16565b600c60003373ffffffffffffffffffffffffffffffffffffffff1673ffffffffffffffffffffffffffffffffffffffff1681526020019081526020016000208190555050565b600090565b60011515600460009054906101000a900460ff1615151461078b57600080fd5b60011515600b60003373ffffffffffffffffffffffffffffffffffffffff1673ffffffffffffffffffffffffffffffffffffffff16815260200190815260200160002060009054906101000a900460ff161515146107e857600080fd5b600260058111156107fc576107fb610c6e565b5b600d60009054906101000a900460ff16600581111561081e5761081d610c6e565b5b1461082857600080fd5b6000600c60003373ffffffffffffffffffffffffffffffffffffffff1673ffffffffffffffffffffffffffffffffffffffff168152602001908152602001600020541161087457600080fd5b6000600e546005546108869190610b34565b90508047101561089957610898610be1565b5b3373ffffffffffffffffffffffffffffffffffffffff166108fc829081150290604051600060405180830381858888f193505050501580156108df573d6000803e3d6000fd5b5042813373ffffffffffffffffffffffffffffffffffffffff167f052f6685df2f773f854b17db1d82e2352e222010daaf8175761f02ef8782c40360405160405180910390a46000471415610a03576000600460006101000a81548160ff02191690831515021790555042600460009054906101000a900460ff1615157f160914ea27c60aa29a5f3a69d74e6069869de36e38939de1e0a66b921d8623d260405160405180910390a36003600d60006101000a81548160ff021916908360058111156109ae576109ad610c6e565b5b021790555042600d60009054906101000a900460ff1660058111156109d6576109d5610c6e565b5b7faaae373901e745122c2e0925ad006227969c6cd190b7d5ea2fb7fdbd1d955b3560405160405180910390a35b50565b60008183610a149190610ade565b905092915050565b60008183610a2a9190610b34565b905092915050565b60008183610a409190610b65565b905092915050565b600081359050610a5781610ca2565b92915050565b600060208284031215610a7357610a72610c9d565b5b6000610a8184828501610a48565b91505092915050565b610a9381610bab565b82525050565b610aa281610bd7565b82525050565b6000602082019050610abd6000830184610a8a565b92915050565b6000602082019050610ad86000830184610a99565b92915050565b6000610ae982610bd7565b9150610af483610bd7565b9250827fffffffffffffffffffffffffffffffffffffffffffffffffffffffffffffffff03821115610b2957610b28610c10565b5b828201905092915050565b6000610b3f82610bd7565b9150610b4a83610bd7565b925082610b5a57610b59610c3f565b5b828204905092915050565b6000610b7082610bd7565b9150610b7b83610bd7565b925082821015610b8e57610b8d610c10565b5b828203905092915050565b6000610ba482610bb7565b9050919050565b60008115159050919050565b600073ffffffffffffffffffffffffffffffffffffffff82169050919050565b6000819050919050565b7f4e487b7100000000000000000000000000000000000000000000000000000000600052600160045260246000fd5b7f4e487b7100000000000000000000000000000000000000000000000000000000600052601160045260246000fd5b7f4e487b7100000000000000000000000000000000000000000000000000000000600052601260045260246000fd5b7f4e487b7100000000000000000000000000000000000000000000000000000000600052602160045260246000fd5b600080fd5b610cab81610b99565b8114610cb657600080fd5b5056fea2646970667358221220cc60031b6f40602f702db8cf6f7c564ed3f81ee2a5a3392e92e597114cbd212f64736f6c63430008060033a2646970667358221220a07c889f39e5f66cbab82665397b8ce773604fce7ac753e985b7bfedf76b4e6a64736f6c63430008060033",
  "immutableReferences": {},
  "source": "pragma solidity ^0.8.0;\n\nimport \"@openzeppelin/contracts/utils/math/Math.sol\";\n\nimport \"./Loan.sol\";\n\ncontract DynamicCollateralLending {\n\n    using Math for uint;\n\n    struct User {\n        bool fraudStatus;\n        address activeLoan;\n        address activeSupply;\n        address orbitDbIndexHash;\n    }\n\n    // Store all users with their address\n    mapping(address => User) public users;\n    address[] userAddr;\n\n    uint addressRegistryCount;\n\n    /** @dev Events\n    *\n    */\n    event LogLoanRequestedPosted(address indexed _address, uint indexed timestamp);\n\n    function applyForLoan(uint _requestedAmount, uint _repaymentsCount, uint _interest) public {\n\n        // The user not fraudulent\n       /* require(users[msg.sender].fraudStatus == false);\n\n        // The user must not have any loan in progress\n        assert(users[msg.sender].activeLoan == address(0));*/\n\n        address loanAddr = address(new Loan(msg.sender, _requestedAmount, _repaymentsCount, _interest));\n//        address loanAddr = address(0);\n\n        users[msg.sender].activeLoan = loanAddr;\n        users[msg.sender].orbitDbIndexHash = loanAddr;\n\n        emit LogLoanRequestedPosted(msg.sender, block.timestamp);\n    }\n\n    function getHashesOfLoanRequests() public view returns (address[] memory){\n        address[] memory ret = new address[](addressRegistryCount);\n        for (uint i = 0; i < addressRegistryCount; i++) {\n            ret[i] = users[userAddr[i]].orbitDbIndexHash;\n        }\n        return ret;\n    }\n\n    function test() public {\n\n    }\n\n}\n",
  "sourcePath": "/Users/nikitaterekhov/Projects/LiquidityProtocol/contracts/DynamicCollateralLending.sol",
  "compiler": {
    "name": "solc",
    "version": "0.8.6+commit.11564f7e.Emscripten.clang"
  },
  "schemaVersion": "3.4.1",
  "updatedAt": "2021-07-04T22:19:28.399Z",
  "networkType": "ethereum",
  "devdoc": {
    "events": {
      "LogLoanRequestedPosted(address,uint256)": {
        "details": "Events"
      }
    },
    "kind": "dev",
    "methods": {},
    "version": 1
  },
  "userdoc": {
    "kind": "user",
    "methods": {},
    "version": 1
  }
}