{
  "contractName": "Loan",
  "abi": [
    {
      "inputs": [
        {
          "internalType": "uint256",
          "name": "_requestedAmount",
          "type": "uint256"
        },
        {
          "internalType": "uint256",
          "name": "_repaymentsCount",
          "type": "uint256"
        },
        {
          "internalType": "uint256",
          "name": "_interest",
          "type": "uint256"
        },
        {
          "internalType": "bytes32",
          "name": "_loanDescription",
          "type": "bytes32"
        }
      ],
      "stateMutability": "nonpayable",
      "type": "constructor"
    },
    {
      "anonymous": false,
      "inputs": [
        {
          "indexed": true,
          "internalType": "address",
          "name": "_address",
          "type": "address"
        },
        {
          "indexed": true,
          "internalType": "uint256",
          "name": "_amount",
          "type": "uint256"
        },
        {
          "indexed": true,
          "internalType": "uint256",
          "name": "timestamp",
          "type": "uint256"
        }
      ],
      "name": "LogBorrowerChangeReturned",
      "type": "event"
    },
    {
      "anonymous": false,
      "inputs": [
        {
          "indexed": true,
          "internalType": "address",
          "name": "_address",
          "type": "address"
        },
        {
          "indexed": true,
          "internalType": "bool",
          "name": "fraudStatus",
          "type": "bool"
        },
        {
          "indexed": true,
          "internalType": "uint256",
          "name": "timestamp",
          "type": "uint256"
        }
      ],
      "name": "LogBorrowerIsFraud",
      "type": "event"
    },
    {
      "anonymous": false,
      "inputs": [
        {
          "indexed": true,
          "internalType": "address",
          "name": "_address",
          "type": "address"
        },
        {
          "indexed": true,
          "internalType": "uint256",
          "name": "timestamp",
          "type": "uint256"
        }
      ],
      "name": "LogBorrowerRepaymentFinished",
      "type": "event"
    },
    {
      "anonymous": false,
      "inputs": [
        {
          "indexed": true,
          "internalType": "address",
          "name": "_address",
          "type": "address"
        },
        {
          "indexed": true,
          "internalType": "uint256",
          "name": "_amount",
          "type": "uint256"
        },
        {
          "indexed": true,
          "internalType": "uint256",
          "name": "timestamp",
          "type": "uint256"
        }
      ],
      "name": "LogBorrowerRepaymentInstallment",
      "type": "event"
    },
    {
      "anonymous": false,
      "inputs": [
        {
          "indexed": true,
          "internalType": "address",
          "name": "_address",
          "type": "address"
        },
        {
          "indexed": true,
          "internalType": "uint256",
          "name": "_amount",
          "type": "uint256"
        },
        {
          "indexed": true,
          "internalType": "uint256",
          "name": "timestamp",
          "type": "uint256"
        }
      ],
      "name": "LogBorrowerWithdrawal",
      "type": "event"
    },
    {
      "anonymous": false,
      "inputs": [
        {
          "indexed": true,
          "internalType": "address",
          "name": "_address",
          "type": "address"
        },
        {
          "indexed": true,
          "internalType": "uint256",
          "name": "timestamp",
          "type": "uint256"
        }
      ],
      "name": "LogCreditInitialized",
      "type": "event"
    },
    {
      "anonymous": false,
      "inputs": [
        {
          "indexed": true,
          "internalType": "bool",
          "name": "active",
          "type": "bool"
        },
        {
          "indexed": true,
          "internalType": "uint256",
          "name": "timestamp",
          "type": "uint256"
        }
      ],
      "name": "LogCreditStateActiveChanged",
      "type": "event"
    },
    {
      "anonymous": false,
      "inputs": [
        {
          "indexed": true,
          "internalType": "enum Loan.State",
          "name": "state",
          "type": "uint8"
        },
        {
          "indexed": true,
          "internalType": "uint256",
          "name": "timestamp",
          "type": "uint256"
        }
      ],
      "name": "LogCreditStateChanged",
      "type": "event"
    },
    {
      "anonymous": false,
      "inputs": [
        {
          "indexed": true,
          "internalType": "address",
          "name": "_address",
          "type": "address"
        },
        {
          "indexed": true,
          "internalType": "uint256",
          "name": "_amount",
          "type": "uint256"
        },
        {
          "indexed": true,
          "internalType": "uint256",
          "name": "timestamp",
          "type": "uint256"
        }
      ],
      "name": "LogLenderChangeReturned",
      "type": "event"
    },
    {
      "anonymous": false,
      "inputs": [
        {
          "indexed": true,
          "internalType": "address",
          "name": "_address",
          "type": "address"
        },
        {
          "indexed": true,
          "internalType": "uint256",
          "name": "_amount",
          "type": "uint256"
        },
        {
          "indexed": true,
          "internalType": "uint256",
          "name": "timestamp",
          "type": "uint256"
        }
      ],
      "name": "LogLenderInvestment",
      "type": "event"
    },
    {
      "anonymous": false,
      "inputs": [
        {
          "indexed": true,
          "internalType": "address",
          "name": "_address",
          "type": "address"
        },
        {
          "indexed": true,
          "internalType": "uint256",
          "name": "_amount",
          "type": "uint256"
        },
        {
          "indexed": true,
          "internalType": "uint256",
          "name": "timestamp",
          "type": "uint256"
        }
      ],
      "name": "LogLenderRefunded",
      "type": "event"
    },
    {
      "anonymous": false,
      "inputs": [
        {
          "indexed": true,
          "internalType": "address",
          "name": "_address",
          "type": "address"
        },
        {
          "indexed": true,
          "internalType": "uint256",
          "name": "timestamp",
          "type": "uint256"
        }
      ],
      "name": "LogLenderVoteForFraud",
      "type": "event"
    },
    {
      "anonymous": false,
      "inputs": [
        {
          "indexed": true,
          "internalType": "address",
          "name": "_address",
          "type": "address"
        },
        {
          "indexed": true,
          "internalType": "uint256",
          "name": "timestamp",
          "type": "uint256"
        }
      ],
      "name": "LogLenderVoteForRevoking",
      "type": "event"
    },
    {
      "anonymous": false,
      "inputs": [
        {
          "indexed": true,
          "internalType": "address",
          "name": "_address",
          "type": "address"
        },
        {
          "indexed": true,
          "internalType": "uint256",
          "name": "_amount",
          "type": "uint256"
        },
        {
          "indexed": true,
          "internalType": "uint256",
          "name": "timestamp",
          "type": "uint256"
        }
      ],
      "name": "LogLenderWithdrawal",
      "type": "event"
    },
    {
      "inputs": [
        {
          "internalType": "address",
          "name": "",
          "type": "address"
        }
      ],
      "name": "lenders",
      "outputs": [
        {
          "internalType": "bool",
          "name": "",
          "type": "bool"
        }
      ],
      "stateMutability": "view",
      "type": "function"
    },
    {
      "inputs": [],
      "name": "getBalance",
      "outputs": [
        {
          "internalType": "uint256",
          "name": "",
          "type": "uint256"
        }
      ],
      "stateMutability": "view",
      "type": "function"
    },
    {
      "inputs": [],
      "name": "lend",
      "outputs": [],
      "stateMutability": "payable",
      "type": "function"
    },
    {
      "inputs": [],
      "name": "repay",
      "outputs": [],
      "stateMutability": "payable",
      "type": "function"
    },
    {
      "inputs": [],
      "name": "withdraw",
      "outputs": [],
      "stateMutability": "nonpayable",
      "type": "function"
    },
    {
      "inputs": [],
      "name": "requestInterest",
      "outputs": [],
      "stateMutability": "nonpayable",
      "type": "function"
    }
  ],
  "bytecode": "0x60806040526001600b60006101000a81548160ff0219169083151502179055506000600f553480156200003157600080fd5b5060405162001119380380620011198339818101604052810190620000579190620000ee565b8360018190555082600281905550816003819055508060048190555062000091600354600154620000a860201b62000c6f1790919060201c565b60058190555042600681905550505050506200022e565b60008183620000b891906200015a565b905092915050565b600081519050620000d181620001fa565b92915050565b600081519050620000e88162000214565b92915050565b600080600080608085870312156200010557600080fd5b60006200011587828801620000d7565b94505060206200012887828801620000d7565b93505060406200013b87828801620000d7565b92505060606200014e87828801620000c0565b91505092959194509250565b60006200016782620001c1565b91506200017483620001c1565b9250827fffffffffffffffffffffffffffffffffffffffffffffffffffffffffffffffff03821115620001ac57620001ab620001cb565b5b828201905092915050565b6000819050919050565b6000819050919050565b7f4e487b7100000000000000000000000000000000000000000000000000000000600052601160045260246000fd5b6200020581620001b7565b81146200021157600080fd5b50565b6200021f81620001c1565b81146200022b57600080fd5b50565b610edb806200023e6000396000f3fe6080604052600436106100555760003560e01c806312065fe01461005a57806328fd10d7146100855780633ccfd60b146100c2578063402d8883146100d957806397dffc61146100e3578063efd475ab146100ed575b600080fd5b34801561006657600080fd5b5061006f610104565b60405161007c9190610d12565b60405180910390f35b34801561009157600080fd5b506100ac60048036038101906100a79190610cb0565b61010c565b6040516100b99190610cf7565b60405180910390f35b3480156100ce57600080fd5b506100d761012c565b005b6100e16103b3565b005b6100eb610642565b005b3480156100f957600080fd5b50610102610916565b005b600047905090565b600c6020528060005260406000206000915054906101000a900460ff1681565b60011515600b60009054906101000a900460ff1615151461014c57600080fd5b60008054906101000a900473ffffffffffffffffffffffffffffffffffffffff1673ffffffffffffffffffffffffffffffffffffffff163373ffffffffffffffffffffffffffffffffffffffff16146101a457600080fd5b6001544710156101b357600080fd5b6005808111156101ec577f4e487b7100000000000000000000000000000000000000000000000000000000600052602160045260246000fd5b600e60009054906101000a900460ff166005811115610234577f4e487b7100000000000000000000000000000000000000000000000000000000600052602160045260246000fd5b141561023f57600080fd5b6001600e60006101000a81548160ff0219169083600581111561028b577f4e487b7100000000000000000000000000000000000000000000000000000000600052602160045260246000fd5b021790555042600e60009054906101000a900460ff1660058111156102d9577f4e487b7100000000000000000000000000000000000000000000000000000000600052602160045260246000fd5b7faaae373901e745122c2e0925ad006227969c6cd190b7d5ea2fb7fdbd1d955b3560405160405180910390a342473373ffffffffffffffffffffffffffffffffffffffff167f20734f14d107b526674905e470e35d0a474f9fb996a7bdb034c839c8894524e660405160405180910390a460008054906101000a900473ffffffffffffffffffffffffffffffffffffffff1673ffffffffffffffffffffffffffffffffffffffff166108fc479081150290604051600060405180830381858888f193505050501580156103b0573d6000803e3d6000fd5b50565b60008054906101000a900473ffffffffffffffffffffffffffffffffffffffff1673ffffffffffffffffffffffffffffffffffffffff163373ffffffffffffffffffffffffffffffffffffffff161461040b57600080fd5b60016005811115610445577f4e487b7100000000000000000000000000000000000000000000000000000000600052602160045260246000fd5b600e60009054906101000a900460ff16600581111561048d577f4e487b7100000000000000000000000000000000000000000000000000000000600052602160045260246000fd5b1461049757600080fd5b6000600854116104a657600080fd5b6009543410156104b557600080fd5b600554600a54106104ef577f4e487b7100000000000000000000000000000000000000000000000000000000600052600160045260246000fd5b4260078190555060006009543411156105e15761051760095434610c8590919063ffffffff16565b905061052c8134610c8590919063ffffffff16565b60095414610563577f4e487b7100000000000000000000000000000000000000000000000000000000600052600160045260246000fd5b348110610599577f4e487b7100000000000000000000000000000000000000000000000000000000600052600160045260246000fd5b3373ffffffffffffffffffffffffffffffffffffffff166108fc829081150290604051600060405180830381858888f193505050501580156105df573d6000803e3d6000fd5b505b600554600a54141561063f576002600e60006101000a81548160ff02191690836005811115610639577f4e487b7100000000000000000000000000000000000000000000000000000000600052602160045260246000fd5b02179055505b50565b6000600581111561067c577f4e487b7100000000000000000000000000000000000000000000000000000000600052602160045260246000fd5b600e60009054906101000a900460ff1660058111156106c4577f4e487b7100000000000000000000000000000000000000000000000000000000600052602160045260246000fd5b146106ce57600080fd5b60006001544710610814576106ee60015447610c8590919063ffffffff16565b90506107038147610c8590919063ffffffff16565b6001541461073a577f4e487b7100000000000000000000000000000000000000000000000000000000600052600160045260246000fd5b34811115610771577f4e487b7100000000000000000000000000000000000000000000000000000000600052600160045260246000fd5b60008111156107c2573373ffffffffffffffffffffffffffffffffffffffff166108fc829081150290604051600060405180830381858888f193505050501580156107c0573d6000803e3d6000fd5b505b6001600e60006101000a81548160ff0219169083600581111561080e577f4e487b7100000000000000000000000000000000000000000000000000000000600052602160045260246000fd5b02179055505b6001600c60003373ffffffffffffffffffffffffffffffffffffffff1673ffffffffffffffffffffffffffffffffffffffff16815260200190815260200160002060006101000a81548160ff0219169083151502179055506108d06108828234610c8590919063ffffffff16565b600d60003373ffffffffffffffffffffffffffffffffffffffff1673ffffffffffffffffffffffffffffffffffffffff16815260200190815260200160002054610c6f90919063ffffffff16565b600d60003373ffffffffffffffffffffffffffffffffffffffff1673ffffffffffffffffffffffffffffffffffffffff1681526020019081526020016000208190555050565b60011515600b60009054906101000a900460ff1615151461093657600080fd5b60011515600c60003373ffffffffffffffffffffffffffffffffffffffff1673ffffffffffffffffffffffffffffffffffffffff16815260200190815260200160002060009054906101000a900460ff1615151461099357600080fd5b600260058111156109cd577f4e487b7100000000000000000000000000000000000000000000000000000000600052602160045260246000fd5b600e60009054906101000a900460ff166005811115610a15577f4e487b7100000000000000000000000000000000000000000000000000000000600052602160045260246000fd5b14610a1f57600080fd5b6000600d60003373ffffffffffffffffffffffffffffffffffffffff1673ffffffffffffffffffffffffffffffffffffffff1681526020019081526020016000205411610a6b57600080fd5b6000600f54600554610a7d9190610d83565b905080471015610ab6577f4e487b7100000000000000000000000000000000000000000000000000000000600052600160045260246000fd5b3373ffffffffffffffffffffffffffffffffffffffff166108fc829081150290604051600060405180830381858888f19350505050158015610afc573d6000803e3d6000fd5b5042813373ffffffffffffffffffffffffffffffffffffffff167f052f6685df2f773f854b17db1d82e2352e222010daaf8175761f02ef8782c40360405160405180910390a46000471415610c6c576000600b60006101000a81548160ff02191690831515021790555042600b60009054906101000a900460ff1615157f160914ea27c60aa29a5f3a69d74e6069869de36e38939de1e0a66b921d8623d260405160405180910390a36003600e60006101000a81548160ff02191690836005811115610bf1577f4e487b7100000000000000000000000000000000000000000000000000000000600052602160045260246000fd5b021790555042600e60009054906101000a900460ff166005811115610c3f577f4e487b7100000000000000000000000000000000000000000000000000000000600052602160045260246000fd5b7faaae373901e745122c2e0925ad006227969c6cd190b7d5ea2fb7fdbd1d955b3560405160405180910390a35b50565b60008183610c7d9190610d2d565b905092915050565b60008183610c939190610db4565b905092915050565b600081359050610caa81610e8e565b92915050565b600060208284031215610cc257600080fd5b6000610cd084828501610c9b565b91505092915050565b610ce281610dfa565b82525050565b610cf181610e26565b82525050565b6000602082019050610d0c6000830184610cd9565b92915050565b6000602082019050610d276000830184610ce8565b92915050565b6000610d3882610e26565b9150610d4383610e26565b9250827fffffffffffffffffffffffffffffffffffffffffffffffffffffffffffffffff03821115610d7857610d77610e30565b5b828201905092915050565b6000610d8e82610e26565b9150610d9983610e26565b925082610da957610da8610e5f565b5b828204905092915050565b6000610dbf82610e26565b9150610dca83610e26565b925082821015610ddd57610ddc610e30565b5b828203905092915050565b6000610df382610e06565b9050919050565b60008115159050919050565b600073ffffffffffffffffffffffffffffffffffffffff82169050919050565b6000819050919050565b7f4e487b7100000000000000000000000000000000000000000000000000000000600052601160045260246000fd5b7f4e487b7100000000000000000000000000000000000000000000000000000000600052601260045260246000fd5b610e9781610de8565b8114610ea257600080fd5b5056fea264697066735822122019b2f903d33a513b1964656173896c44432b3ca983f64db8dfdd324c3560a85264736f6c63430008000033",
  "immutableReferences": {},
  "source": "pragma solidity ^0.8.0;\n\nimport \"@openzeppelin/contracts/utils/math/SafeMath.sol\";\nimport \"@openzeppelin/contracts/utils/math/Math.sol\";\n\ncontract Loan {\n\n    using SafeMath for uint;\n\n    address borrower;\n\n    // Requested amount for a loan\n    uint requestedAmount;\n\n    // Amount to be returned by the borrower (with an interest)\n    uint repaymentsCount;\n\n    // Loan interest\n    uint interest;\n\n    // Description of a loan\n    bytes32 loanDescription;\n\n    uint returnAmount;\n\n    uint loanCreationDate;\n\n    uint lastRepaymentDate;\n\n    uint remainingPayments;\n\n    uint repaymentInstallment;\n\n    uint repaidAmount;\n\n    // Active state of the credit.\n    bool active = true;\n\n    mapping(address => bool) public lenders;\n\n    mapping(address => uint) lendersInvestedAmount;\n\n    /** Stages that every credit contract gets trough.\n      *   investment - During this state only investments are allowed.\n      *   repayment - During this stage only repayments are allowed.\n      *   interestReturns - This stage gives investors opportunity to request their returns.\n      *   expired - This is the stage when the contract is finished its purpose.\n      *   fraud - The borrower was marked as fraud.\n    */\n    enum State { investment, repayment, interestReturns, expired, revoked, fraud }\n    State state;\n\n    // Store the lenders count, later needed for revoke vote.\n    uint lendersCount = 0;\n\n\n    /** @dev Events\n    *\n    */\n    event LogCreditInitialized(address indexed _address, uint indexed timestamp);\n    event LogCreditStateChanged(State indexed state, uint indexed timestamp);\n    event LogCreditStateActiveChanged(bool indexed active, uint indexed timestamp);\n\n    event LogBorrowerWithdrawal(address indexed _address, uint indexed _amount, uint indexed timestamp);\n    event LogBorrowerRepaymentInstallment(address indexed _address, uint indexed _amount, uint indexed timestamp);\n    event LogBorrowerRepaymentFinished(address indexed _address, uint indexed timestamp);\n    event LogBorrowerChangeReturned(address indexed _address, uint indexed _amount, uint indexed timestamp);\n    event LogBorrowerIsFraud(address indexed _address, bool indexed fraudStatus, uint indexed timestamp);\n\n    event LogLenderInvestment(address indexed _address, uint indexed _amount, uint indexed timestamp);\n    event LogLenderWithdrawal(address indexed _address, uint indexed _amount, uint indexed timestamp);\n    event LogLenderChangeReturned(address indexed _address, uint indexed _amount, uint indexed timestamp);\n    event LogLenderVoteForRevoking(address indexed _address, uint indexed timestamp);\n    event LogLenderVoteForFraud(address indexed _address, uint indexed timestamp);\n    event LogLenderRefunded(address indexed _address, uint indexed _amount, uint indexed timestamp);\n\n    /** @dev Modifiers\n    *\n    */\n    modifier isActive() {\n        require(active == true);\n        _;\n    }\n\n    modifier onlyBorrower() {\n        require(msg.sender == borrower);\n        _;\n    }\n\n    modifier onlyLender() {\n        require(lenders[msg.sender] == true);\n        _;\n    }\n\n    modifier canAskForInterest() {\n        require(state == State.interestReturns);\n        require(lendersInvestedAmount[msg.sender] > 0);\n        _;\n    }\n\n    modifier canInvest() {\n        require(state == State.investment);\n        _;\n    }\n\n    modifier canRepay() {\n        require(state == State.repayment);\n        _;\n    }\n\n    modifier canWithdraw() {\n        require(address(this).balance>= requestedAmount);\n        _;\n    }\n\n    modifier isNotFraud() {\n        require(state != State.fraud);\n        _;\n    }\n\n    modifier isRevokable() {\n        /*require(block.timestamp >= revokeTimeNeeded);*/\n        require(state == State.investment);\n        _;\n    }\n\n    modifier isRevoked() {\n        require(state == State.revoked);\n        _;\n    }\n\n    constructor (uint _requestedAmount, uint _repaymentsCount, uint _interest, bytes32 _loanDescription) public {\n\n\n        requestedAmount = _requestedAmount;\n        repaymentsCount = _repaymentsCount;\n        interest =  _interest;\n        loanDescription = _loanDescription;\n\n        // Calculate the amount to return by the borrower\n        returnAmount = requestedAmount.add(interest);\n\n        loanCreationDate = block.timestamp;\n    }\n\n    function getBalance() public view returns (uint256) {\n        return address(this).balance;\n    }\n\n    /** @dev Invest function.\n      * Provides functionality for person to invest in someone's credit,\n      * incentivised by the return of interest.\n      */\n    function lend() public canInvest payable {\n\n        uint extraMoney = 0;\n\n        if (address(this).balance>= requestedAmount) {\n            extraMoney = address(this).balance.sub(requestedAmount);\n            assert(requestedAmount == address(this).balance.sub(extraMoney));\n\n            // Assert that there is no overflow / underflow\n            assert(extraMoney <= msg.value);\n\n            if (extraMoney > 0) {\n                // return extra money to the sender\n                payable(msg.sender).transfer(extraMoney);\n\n                // TODO event change returned\n            }\n\n            state = State.repayment;\n\n            // TODO event changed state\n\n        }\n\n        lenders[msg.sender] = true;\n        lendersInvestedAmount[msg.sender] = lendersInvestedAmount[msg.sender].add(msg.value.sub(extraMoney));\n\n        // TODO event invested amount\n    }\n\n    /** @dev Repayment function.\n     * Allows borrower to make repayment installments.\n     */\n    function repay() public onlyBorrower canRepay payable {\n        require(remainingPayments > 0);\n        require(msg.value >= repaymentInstallment);\n\n        assert(repaidAmount < returnAmount);\n\n        // Update last repayment date\n        lastRepaymentDate = block.timestamp;\n\n        uint extraMoney = 0;\n\n        if (msg.value > repaymentInstallment) {\n\n            extraMoney = msg.value.sub(repaymentInstallment);\n\n            assert(repaymentInstallment == msg.value.sub(extraMoney));\n\n            // Check the underflow\n            assert(extraMoney < msg.value);\n\n            payable(msg.sender).transfer(extraMoney);\n\n            // TODO return event\n        }\n\n        // TODO event borrower installement received\n\n        if (repaidAmount == returnAmount) {\n\n            // TODO repayment finished event\n\n            state = State.interestReturns;\n\n            // TODO event credit state changed\n        }\n    }\n\n    /** @dev Withdraw function.\n      * It can only be executed while contract is in active state.\n      * It is only accessible to the borrower.\n      * It is only accessible if the needed amount is gathered in the contract.\n      * It can only be executed once.\n      * Transfers the gathered amount to the borrower.\n      */\n    function withdraw() public isActive onlyBorrower canWithdraw isNotFraud {\n        // Set the state to repayment so we can avoid reentrancy.\n        state = State.repayment;\n\n        // Log state change.\n        emit LogCreditStateChanged(state, block.timestamp);\n\n        // Log borrower withdrawal.\n        emit LogBorrowerWithdrawal(msg.sender, address(this).balance, block.timestamp);\n\n        // Transfer the gathered amount to the credit borrower.\n        payable(borrower).transfer(address(this).balance);\n    }\n\n    /** @dev Request interest function.\n      * It can only be executed while contract is in active state.\n      * It is only accessible to lenders.\n      * It is only accessible if lender funded 1 or more wei.\n      * It can only be executed once.\n      * Transfers the lended amount + interest to the lender.\n      */\n    function requestInterest() public isActive onlyLender canAskForInterest {\n\n        // Calculate the amount to be returned to lender.\n        //        uint lenderReturnAmount = lendersInvestedAmount[msg.sender].mul(returnAmount.div(lendersCount).div(lendersInvestedAmount[msg.sender]));\n        uint lenderReturnAmount = returnAmount / lendersCount;\n\n        // Assert the contract has enough balance to pay the lender.\n        assert(address(this).balance >= lenderReturnAmount);\n\n        // Transfer the return amount with interest to the lender.\n        payable(msg.sender).transfer(lenderReturnAmount);\n\n        // Log the transfer to lender.\n        emit LogLenderWithdrawal(msg.sender, lenderReturnAmount, block.timestamp);\n\n        // Check if the contract balance is drawned.\n        if (address(this).balance == 0) {\n\n            // Set the active state to false.\n            active = false;\n\n            // Log active state change.\n            emit LogCreditStateActiveChanged(active, block.timestamp);\n\n            // Set the contract stage to expired e.g. its lifespan is over.\n            state = State.expired;\n\n            // Log state change.\n            emit LogCreditStateChanged(state, block.timestamp);\n        }\n    }\n}\n",
  "sourcePath": "/Users/nikitaterekhov/Projects/LiquidityProtocol/contracts/Loan.sol",
  "compiler": {
    "name": "solc",
    "version": "0.8.0+commit.c7dfd78e.Emscripten.clang"
  },
  "schemaVersion": "3.3.4",
  "updatedAt": "2021-06-17T21:26:38.489Z",
  "devdoc": {
    "events": {
      "LogCreditInitialized(address,uint256)": {
        "details": "Events"
      }
    },
    "kind": "dev",
    "methods": {
      "lend()": {
        "details": "Invest function. Provides functionality for person to invest in someone's credit, incentivised by the return of interest."
      },
      "repay()": {
        "details": "Repayment function. Allows borrower to make repayment installments."
      },
      "requestInterest()": {
        "details": "Request interest function. It can only be executed while contract is in active state. It is only accessible to lenders. It is only accessible if lender funded 1 or more wei. It can only be executed once. Transfers the lended amount + interest to the lender."
      },
      "withdraw()": {
        "details": "Withdraw function. It can only be executed while contract is in active state. It is only accessible to the borrower. It is only accessible if the needed amount is gathered in the contract. It can only be executed once. Transfers the gathered amount to the borrower."
      }
    },
    "version": 1
  },
  "userdoc": {
    "kind": "user",
    "methods": {},
    "version": 1
  }
}