{
  "contractName": "LoanController",
  "abi": [
    {
      "inputs": [],
      "stateMutability": "nonpayable",
      "type": "constructor"
    },
    {
      "anonymous": false,
      "inputs": [
        {
          "indexed": true,
          "internalType": "address",
          "name": "_address",
          "type": "address"
        },
        {
          "indexed": true,
          "internalType": "uint256",
          "name": "timestamp",
          "type": "uint256"
        },
        {
          "indexed": true,
          "internalType": "address",
          "name": "_loanAddress",
          "type": "address"
        },
        {
          "indexed": false,
          "internalType": "address",
          "name": "_userAddress",
          "type": "address"
        }
      ],
      "name": "LoanRequestedPosted",
      "type": "event"
    },
    {
      "anonymous": false,
      "inputs": [
        {
          "indexed": true,
          "internalType": "address",
          "name": "_address",
          "type": "address"
        },
        {
          "indexed": true,
          "internalType": "uint256",
          "name": "timestamp",
          "type": "uint256"
        }
      ],
      "name": "TScoreInitialized",
      "type": "event"
    },
    {
      "inputs": [
        {
          "internalType": "address",
          "name": "",
          "type": "address"
        }
      ],
      "name": "users",
      "outputs": [
        {
          "internalType": "contract User",
          "name": "",
          "type": "address"
        }
      ],
      "stateMutability": "view",
      "type": "function",
      "constant": true
    },
    {
      "inputs": [
        {
          "internalType": "uint256",
          "name": "_requestedAmount",
          "type": "uint256"
        },
        {
          "internalType": "uint256",
          "name": "_repaymentsCount",
          "type": "uint256"
        },
        {
          "internalType": "uint256",
          "name": "_interest",
          "type": "uint256"
        },
        {
          "internalType": "string",
          "name": "_tokenURI",
          "type": "string"
        }
      ],
      "name": "applyForLoan",
      "outputs": [],
      "stateMutability": "nonpayable",
      "type": "function"
    },
    {
      "inputs": [],
      "name": "getHashesOfLoanRequests",
      "outputs": [
        {
          "internalType": "address[]",
          "name": "",
          "type": "address[]"
        }
      ],
      "stateMutability": "view",
      "type": "function",
      "constant": true
    },
    {
      "inputs": [],
      "name": "hasBorrow",
      "outputs": [
        {
          "internalType": "bool",
          "name": "",
          "type": "bool"
        }
      ],
      "stateMutability": "view",
      "type": "function",
      "constant": true
    },
    {
      "inputs": [],
      "name": "getBorrowerInfos",
      "outputs": [
        {
          "internalType": "uint256",
          "name": "",
          "type": "uint256"
        },
        {
          "internalType": "uint256",
          "name": "",
          "type": "uint256"
        },
        {
          "internalType": "uint256",
          "name": "",
          "type": "uint256"
        },
        {
          "internalType": "uint256",
          "name": "",
          "type": "uint256"
        },
        {
          "internalType": "uint256",
          "name": "",
          "type": "uint256"
        },
        {
          "internalType": "uint256",
          "name": "",
          "type": "uint256"
        },
        {
          "internalType": "uint256",
          "name": "",
          "type": "uint256"
        },
        {
          "internalType": "uint256",
          "name": "",
          "type": "uint256"
        },
        {
          "internalType": "string",
          "name": "",
          "type": "string"
        },
        {
          "internalType": "uint256",
          "name": "",
          "type": "uint256"
        },
        {
          "internalType": "address",
          "name": "",
          "type": "address"
        }
      ],
      "stateMutability": "view",
      "type": "function",
      "constant": true
    },
    {
      "inputs": [
        {
          "internalType": "address",
          "name": "loanContract",
          "type": "address"
        }
      ],
      "name": "invest",
      "outputs": [],
      "stateMutability": "payable",
      "type": "function",
      "payable": true
    },
    {
      "inputs": [
        {
          "internalType": "address",
          "name": "loanContract",
          "type": "address"
        },
        {
          "internalType": "uint8",
          "name": "score",
          "type": "uint8"
        }
      ],
      "name": "recommend",
      "outputs": [],
      "stateMutability": "payable",
      "type": "function",
      "payable": true
    },
    {
      "inputs": [],
      "name": "getBalance",
      "outputs": [
        {
          "internalType": "uint256",
          "name": "",
          "type": "uint256"
        }
      ],
      "stateMutability": "view",
      "type": "function",
      "constant": true
    }
  ],
  "bytecode": "0x608060405234801561001057600080fd5b5060405161001d9061007f565b604051809103906000f080158015610039573d6000803e3d6000fd5b50600360006101000a81548173ffffffffffffffffffffffffffffffffffffffff021916908373ffffffffffffffffffffffffffffffffffffffff16021790555061008d565b61108c80620053a683390190565b615309806200009d6000396000f3fe608060405260043610620000865760003560e01c806371909e29116200005557806371909e291462000145578063869b4da51462000173578063a87430ba14620001a3578063abbbe18914620001e75762000086565b806303f9c793146200008b57806312065fe014620000ab57806329c0445214620000db57806353d7c4f61462000115575b600080fd5b620000a96004803603810190620000a3919062001009565b62000207565b005b348015620000b857600080fd5b50620000c36200027a565b604051620000d29190620014ae565b60405180910390f35b348015620000e857600080fd5b50620000f3620003e2565b6040516200010c9b9a99989796959493929190620014cb565b60405180910390f35b3480156200012257600080fd5b506200012d6200057c565b6040516200013c919062001474565b60405180910390f35b3480156200015257600080fd5b506200017160048036038101906200016b9190620010ce565b62000692565b005b3480156200018057600080fd5b506200018b62000b8f565b6040516200019a919062001450565b60405180910390f35b348015620001b057600080fd5b50620001cf6004803603810190620001c9919062001009565b62000ded565b604051620001de919062001491565b60405180910390f35b620002056004803603810190620001ff919062001061565b62000e20565b005b8073ffffffffffffffffffffffffffffffffffffffff1663b656f2e334336040518363ffffffff1660e01b81526004016200024391906200139e565b6000604051808303818588803b1580156200025d57600080fd5b505af115801562000272573d6000803e3d6000fd5b505050505050565b60008060003373ffffffffffffffffffffffffffffffffffffffff1673ffffffffffffffffffffffffffffffffffffffff16815260200190815260200160002060009054906101000a900473ffffffffffffffffffffffffffffffffffffffff1673ffffffffffffffffffffffffffffffffffffffff1663b2700a886040518163ffffffff1660e01b815260040160206040518083038186803b1580156200032157600080fd5b505afa15801562000336573d6000803e3d6000fd5b505050506040513d601f19601f820116820180604052508101906200035c919062001035565b73ffffffffffffffffffffffffffffffffffffffff166312065fe06040518163ffffffff1660e01b815260040160206040518083038186803b158015620003a257600080fd5b505afa158015620003b7573d6000803e3d6000fd5b505050506040513d601f19601f82011682018060405250810190620003dd9190620010a2565b905090565b60008060008060008060008060606000806000803373ffffffffffffffffffffffffffffffffffffffff1673ffffffffffffffffffffffffffffffffffffffff16815260200190815260200160002060009054906101000a900473ffffffffffffffffffffffffffffffffffffffff1673ffffffffffffffffffffffffffffffffffffffff1663b2700a886040518163ffffffff1660e01b815260040160206040518083038186803b1580156200049857600080fd5b505afa158015620004ad573d6000803e3d6000fd5b505050506040513d601f19601f82011682018060405250810190620004d3919062001035565b73ffffffffffffffffffffffffffffffffffffffff1663045853c46040518163ffffffff1660e01b815260040160006040518083038186803b1580156200051957600080fd5b505afa1580156200052e573d6000803e3d6000fd5b505050506040513d6000823e3d601f19601f8201168201806040525081019062000559919062001153565b9a509a509a509a509a509a509a509a509a509a509a50909192939495969798999a565b60008073ffffffffffffffffffffffffffffffffffffffff166000803373ffffffffffffffffffffffffffffffffffffffff1673ffffffffffffffffffffffffffffffffffffffff16815260200190815260200160002060009054906101000a900473ffffffffffffffffffffffffffffffffffffffff1673ffffffffffffffffffffffffffffffffffffffff1663b2700a886040518163ffffffff1660e01b815260040160206040518083038186803b1580156200063a57600080fd5b505afa1580156200064f573d6000803e3d6000fd5b505050506040513d601f19601f8201168201806040525081019062000675919062001035565b73ffffffffffffffffffffffffffffffffffffffff161415905090565b600073ffffffffffffffffffffffffffffffffffffffff166000803373ffffffffffffffffffffffffffffffffffffffff1673ffffffffffffffffffffffffffffffffffffffff16815260200190815260200160002060009054906101000a900473ffffffffffffffffffffffffffffffffffffffff1673ffffffffffffffffffffffffffffffffffffffff16146200072b57620007d4565b604051620007399062000e96565b604051809103906000f08015801562000756573d6000803e3d6000fd5b506000803373ffffffffffffffffffffffffffffffffffffffff1673ffffffffffffffffffffffffffffffffffffffff16815260200190815260200160002060006101000a81548173ffffffffffffffffffffffffffffffffffffffff021916908373ffffffffffffffffffffffffffffffffffffffff1602179055505b600042905060008060003373ffffffffffffffffffffffffffffffffffffffff1673ffffffffffffffffffffffffffffffffffffffff16815260200190815260200160002060009054906101000a900473ffffffffffffffffffffffffffffffffffffffff163387878786600360009054906101000a900473ffffffffffffffffffffffffffffffffffffffff1689604051620008719062000ea4565b62000884989796959493929190620013bb565b604051809103906000f080158015620008a1573d6000803e3d6000fd5b50905060008190506000803373ffffffffffffffffffffffffffffffffffffffff1673ffffffffffffffffffffffffffffffffffffffff16815260200190815260200160002060009054906101000a900473ffffffffffffffffffffffffffffffffffffffff1673ffffffffffffffffffffffffffffffffffffffff1663d977b13b826040518263ffffffff1660e01b81526004016200094291906200139e565b600060405180830381600087803b1580156200095d57600080fd5b505af115801562000972573d6000803e3d6000fd5b505050506000803373ffffffffffffffffffffffffffffffffffffffff1673ffffffffffffffffffffffffffffffffffffffff16815260200190815260200160002060009054906101000a900473ffffffffffffffffffffffffffffffffffffffff1673ffffffffffffffffffffffffffffffffffffffff16633ae317a6826040518263ffffffff1660e01b815260040162000a0f91906200139e565b600060405180830381600087803b15801562000a2a57600080fd5b505af115801562000a3f573d6000803e3d6000fd5b505050506001339080600181540180825580915050600190039060005260206000200160009091909190916101000a81548173ffffffffffffffffffffffffffffffffffffffff021916908373ffffffffffffffffffffffffffffffffffffffff1602179055506002600081548092919062000abb9062001740565b91905055508073ffffffffffffffffffffffffffffffffffffffff16423373ffffffffffffffffffffffffffffffffffffffff167f6ae07efe6fa48fe5dd4b64c9fc0eb489619872a1b7be2b2b2e5f1ef0c3a334246000803373ffffffffffffffffffffffffffffffffffffffff1673ffffffffffffffffffffffffffffffffffffffff16815260200190815260200160002060009054906101000a900473ffffffffffffffffffffffffffffffffffffffff1660405162000b7e91906200139e565b60405180910390a450505050505050565b6060600060025467ffffffffffffffff81111562000bd6577f4e487b7100000000000000000000000000000000000000000000000000000000600052604160045260246000fd5b60405190808252806020026020018201604052801562000c055781602001602082028036833780820191505090505b50905060005b60025481101562000de5576000806001838154811062000c54577f4e487b7100000000000000000000000000000000000000000000000000000000600052603260045260246000fd5b9060005260206000200160009054906101000a900473ffffffffffffffffffffffffffffffffffffffff1673ffffffffffffffffffffffffffffffffffffffff1673ffffffffffffffffffffffffffffffffffffffff16815260200190815260200160002060009054906101000a900473ffffffffffffffffffffffffffffffffffffffff1673ffffffffffffffffffffffffffffffffffffffff1663ee62281a6040518163ffffffff1660e01b815260040160206040518083038186803b15801562000d2057600080fd5b505afa15801562000d35573d6000803e3d6000fd5b505050506040513d601f19601f8201168201806040525081019062000d5b919062001035565b82828151811062000d95577f4e487b7100000000000000000000000000000000000000000000000000000000600052603260045260246000fd5b602002602001019073ffffffffffffffffffffffffffffffffffffffff16908173ffffffffffffffffffffffffffffffffffffffff1681525050808062000ddc9062001740565b91505062000c0b565b508091505090565b60006020528060005260406000206000915054906101000a900473ffffffffffffffffffffffffffffffffffffffff1681565b8173ffffffffffffffffffffffffffffffffffffffff1663963e050d3483336040518463ffffffff1660e01b815260040162000e5e92919062001593565b6000604051808303818588803b15801562000e7857600080fd5b505af115801562000e8d573d6000803e3d6000fd5b50505050505050565b610720806200184c83390190565b6133688062001f6c83390190565b600062000ec962000ec384620015f4565b620015c0565b90508281526020810184848401111562000ee257600080fd5b62000eef848285620016fb565b509392505050565b600062000f0e62000f0884620015f4565b620015c0565b90508281526020810184848401111562000f2757600080fd5b62000f348482856200170a565b509392505050565b60008135905062000f4d81620017fd565b92915050565b60008151905062000f6481620017fd565b92915050565b600082601f83011262000f7c57600080fd5b813562000f8e84826020860162000eb2565b91505092915050565b600082601f83011262000fa957600080fd5b815162000fbb84826020860162000ef7565b91505092915050565b60008135905062000fd58162001817565b92915050565b60008151905062000fec8162001817565b92915050565b600081359050620010038162001831565b92915050565b6000602082840312156200101c57600080fd5b60006200102c8482850162000f3c565b91505092915050565b6000602082840312156200104857600080fd5b6000620010588482850162000f53565b91505092915050565b600080604083850312156200107557600080fd5b6000620010858582860162000f3c565b9250506020620010988582860162000ff2565b9150509250929050565b600060208284031215620010b557600080fd5b6000620010c58482850162000fdb565b91505092915050565b60008060008060808587031215620010e557600080fd5b6000620010f58782880162000fc4565b9450506020620011088782880162000fc4565b93505060406200111b8782880162000fc4565b925050606085013567ffffffffffffffff8111156200113957600080fd5b620011478782880162000f6a565b91505092959194509250565b60008060008060008060008060008060006101608c8e0312156200117657600080fd5b6000620011868e828f0162000fdb565b9b50506020620011998e828f0162000fdb565b9a50506040620011ac8e828f0162000fdb565b9950506060620011bf8e828f0162000fdb565b9850506080620011d28e828f0162000fdb565b97505060a0620011e58e828f0162000fdb565b96505060c0620011f88e828f0162000fdb565b95505060e06200120b8e828f0162000fdb565b9450506101008c015167ffffffffffffffff8111156200122a57600080fd5b620012388e828f0162000f97565b9350506101206200124c8e828f0162000fdb565b925050610140620012608e828f0162000f53565b9150509295989b509295989b9093969950565b60006200128183836200128d565b60208301905092915050565b62001298816200167c565b82525050565b620012a9816200167c565b82525050565b6000620012bc8262001637565b620012c881856200165a565b9350620012d58362001627565b8060005b838110156200130c578151620012f0888262001273565b9750620012fd836200164d565b925050600181019050620012d9565b5085935050505092915050565b620013248162001690565b82525050565b6200133581620016d3565b82525050565b6000620013488262001642565b6200135481856200166b565b9350620013668185602086016200170a565b6200137181620017ec565b840191505092915050565b6200138781620016bc565b82525050565b6200139881620016c6565b82525050565b6000602082019050620013b560008301846200129e565b92915050565b600061010082019050620013d3600083018b6200129e565b620013e2602083018a6200129e565b620013f160408301896200137c565b6200140060608301886200137c565b6200140f60808301876200137c565b6200141e60a08301866200137c565b6200142d60c08301856200129e565b81810360e08301526200144181846200133b565b90509998505050505050505050565b600060208201905081810360008301526200146c8184620012af565b905092915050565b60006020820190506200148b600083018462001319565b92915050565b6000602082019050620014a860008301846200132a565b92915050565b6000602082019050620014c560008301846200137c565b92915050565b600061016082019050620014e3600083018e6200137c565b620014f2602083018d6200137c565b62001501604083018c6200137c565b62001510606083018b6200137c565b6200151f608083018a6200137c565b6200152e60a08301896200137c565b6200153d60c08301886200137c565b6200154c60e08301876200137c565b8181036101008301526200156181866200133b565b9050620015736101208301856200137c565b620015836101408301846200129e565b9c9b505050505050505050505050565b6000604082019050620015aa60008301856200138d565b620015b960208301846200129e565b9392505050565b6000604051905081810181811067ffffffffffffffff82111715620015ea57620015e9620017bd565b5b8060405250919050565b600067ffffffffffffffff821115620016125762001611620017bd565b5b601f19601f8301169050602081019050919050565b6000819050602082019050919050565b600081519050919050565b600081519050919050565b6000602082019050919050565b600082825260208201905092915050565b600082825260208201905092915050565b600062001689826200169c565b9050919050565b60008115159050919050565b600073ffffffffffffffffffffffffffffffffffffffff82169050919050565b6000819050919050565b600060ff82169050919050565b6000620016e082620016e7565b9050919050565b6000620016f4826200169c565b9050919050565b82818337600083830152505050565b60005b838110156200172a5780820151818401526020810190506200170d565b838111156200173a576000848401525b50505050565b60006200174d82620016bc565b91507fffffffffffffffffffffffffffffffffffffffffffffffffffffffffffffffff8214156200178357620017826200178e565b5b600182019050919050565b7f4e487b7100000000000000000000000000000000000000000000000000000000600052601160045260246000fd5b7f4e487b7100000000000000000000000000000000000000000000000000000000600052604160045260246000fd5b6000601f19601f8301169050919050565b62001808816200167c565b81146200181457600080fd5b50565b6200182281620016bc565b81146200182e57600080fd5b50565b6200183c81620016c6565b81146200184857600080fd5b5056fe608060405234801561001057600080fd5b50610700806100206000396000f3fe608060405234801561001057600080fd5b506004361061009e5760003560e01c8063c12c4eb311610066578063c12c4eb314610135578063c361de5f14610153578063d977b13b1461016f578063e682cc7b1461018b578063ee62281a146101ad5761009e565b80632223a858146100a35780633ae317a6146100bf578063436d582f146100db578063b2700a88146100f9578063babd701214610117575b600080fd5b6100bd60048036038101906100b89190610446565b6101cb565b005b6100d960048036038101906100d49190610446565b61020f565b005b6100e3610253565b6040516100f09190610579565b60405180910390f35b610101610260565b60405161010e91906104f0565b60405180910390f35b61011f610286565b60405161012c91906104f0565b60405180910390f35b61013d6102ac565b60405161014a919061050b565b60405180910390f35b61016d6004803603810190610168919061046f565b6102bd565b005b61018960048036038101906101849190610446565b6102e5565b005b610193610329565b6040516101a4959493929190610526565b60405180910390f35b6101b561039d565b6040516101c291906104f0565b60405180910390f35b80600160006101000a81548173ffffffffffffffffffffffffffffffffffffffff021916908373ffffffffffffffffffffffffffffffffffffffff16021790555050565b80600260006101000a81548173ffffffffffffffffffffffffffffffffffffffff021916908373ffffffffffffffffffffffffffffffffffffffff16021790555050565b6000600360040154905090565b600060019054906101000a900473ffffffffffffffffffffffffffffffffffffffff1681565b600160009054906101000a900473ffffffffffffffffffffffffffffffffffffffff1681565b60008054906101000a900460ff1681565b806003600201600082015181600001559050506102d9816103c3565b60036004018190555050565b80600060016101000a81548173ffffffffffffffffffffffffffffffffffffffff021916908373ffffffffffffffffffffffffffffffffffffffff16021790555050565b600380600001604051806020016040529081600082015481525050908060010160405180602001604052908160008201548152505090806002016040518060200160405290816000820154815250509080600301604051806020016040529081600082015481525050908060040154905085565b600260009054906101000a900473ffffffffffffffffffffffffffffffffffffffff1681565b6000670de0b6b3a764000082600001516103dd91906105c5565b9050919050565b6000813590506103f38161069c565b92915050565b60006020828403121561040b57600080fd5b6104156020610594565b9050600061042584828501610431565b60008301525092915050565b600081359050610440816106b3565b92915050565b60006020828403121561045857600080fd5b6000610466848285016103e4565b91505092915050565b60006020828403121561048157600080fd5b600061048f848285016103f9565b91505092915050565b6104a1816105f6565b82525050565b6104b081610608565b82525050565b6020820160008201516104cc60008501826104d2565b50505050565b6104db81610634565b82525050565b6104ea81610634565b82525050565b60006020820190506105056000830184610498565b92915050565b600060208201905061052060008301846104a7565b92915050565b600060a08201905061053b60008301886104b6565b61054860208301876104b6565b61055560408301866104b6565b61056260608301856104b6565b61056f60808301846104e1565b9695505050505050565b600060208201905061058e60008301846104e1565b92915050565b6000604051905081810181811067ffffffffffffffff821117156105bb576105ba61066d565b5b8060405250919050565b60006105d082610634565b91506105db83610634565b9250826105eb576105ea61063e565b5b828204905092915050565b600061060182610614565b9050919050565b60008115159050919050565b600073ffffffffffffffffffffffffffffffffffffffff82169050919050565b6000819050919050565b7f4e487b7100000000000000000000000000000000000000000000000000000000600052601260045260246000fd5b7f4e487b7100000000000000000000000000000000000000000000000000000000600052604160045260246000fd5b6106a5816105f6565b81146106b057600080fd5b50565b6106bc81610634565b81146106c757600080fd5b5056fea2646970667358221220529a3b90554a43eb9cf9d21483b69024f20fe7994446a961adaf7b76ab1391fa64736f6c6343000800003360806040526000600660006101000a81548160ff021916908315150217905550600060175560006018553480156200003657600080fd5b50604051620033683803806200336883398181016040528101906200005c919062000633565b876000806101000a81548173ffffffffffffffffffffffffffffffffffffffff021916908373ffffffffffffffffffffffffffffffffffffffff16021790555086600160006101000a81548173ffffffffffffffffffffffffffffffffffffffff021916908373ffffffffffffffffffffffffffffffffffffffff1602179055508560038190555084600481905550836005819055508260088190555080600e908051906020019062000111929190620004d0565b50620001306005546003546200025760201b62001dfa1790919060201c565b600781905550600060098190555085600d819055506000600f8190555085600a81905550620001976040518060200160405280670de0b6b3a764000089620001799190620007d3565b8152506040518060200160405280888152506200026f60201b60201c565b9050600b600082919050600082015181600001555050506000600c8190555081600260006101000a81548173ffffffffffffffffffffffffffffffffffffffff021916908373ffffffffffffffffffffffffffffffffffffffff1602179055506000601960006101000a81548160ff0219169083600581111562000244577f4e487b7100000000000000000000000000000000000000000000000000000000600052602160045260246000fd5b0217905550505050505050505062000a06565b6000818362000267919062000776565b905092915050565b60006200027b62000561565b6200029584600001518460000151620002a060201b60201c565b915091509250929050565b6000620002ac62000561565b600080620002c986670de0b6b3a76400006200043960201b60201c565b915091506000600381111562000308577f4e487b7100000000000000000000000000000000000000000000000000000000600052602160045260246000fd5b82600381111562000342577f4e487b7100000000000000000000000000000000000000000000000000000000600052602160045260246000fd5b146200036557816040518060200160405280600081525093509350505062000432565b6000806200037a83886200049960201b60201c565b9150915060006003811115620003b9577f4e487b7100000000000000000000000000000000000000000000000000000000600052602160045260246000fd5b826003811115620003f3577f4e487b7100000000000000000000000000000000000000000000000000000000600052602160045260246000fd5b1462000418578160405180602001604052806000815250955095505050505062000432565b600060405180602001604052808381525095509550505050505b9250929050565b600080600084141562000453576000809150915062000492565b600083856200046391906200080b565b9050838582620004749190620007d3565b14620004895760026000925092505062000492565b60008192509250505b9250929050565b6000806000831415620004b4576001600091509150620004c9565b60008385620004c49190620007d3565b915091505b9250929050565b828054620004de90620008e0565b90600052602060002090601f0160209004810192826200050257600085556200054e565b82601f106200051d57805160ff19168380011785556200054e565b828001600101855582156200054e579182015b828111156200054d57825182559160200191906001019062000530565b5b5090506200055d919062000574565b5090565b6040518060200160405280600081525090565b5b808211156200058f57600081600090555060010162000575565b5090565b6000620005aa620005a48462000743565b6200070f565b905082815260208101848484011115620005c357600080fd5b620005d0848285620008aa565b509392505050565b600081519050620005e981620009d2565b92915050565b600082601f8301126200060157600080fd5b81516200061384826020860162000593565b91505092915050565b6000815190506200062d81620009ec565b92915050565b600080600080600080600080610100898b0312156200065157600080fd5b6000620006618b828c01620005d8565b9850506020620006748b828c01620005d8565b9750506040620006878b828c016200061c565b96505060606200069a8b828c016200061c565b9550506080620006ad8b828c016200061c565b94505060a0620006c08b828c016200061c565b93505060c0620006d38b828c01620005d8565b92505060e089015167ffffffffffffffff811115620006f157600080fd5b620006ff8b828c01620005ef565b9150509295985092959890939650565b6000604051905081810181811067ffffffffffffffff82111715620007395762000738620009a3565b5b8060405250919050565b600067ffffffffffffffff821115620007615762000760620009a3565b5b601f19601f8301169050602081019050919050565b60006200078382620008a0565b91506200079083620008a0565b9250827fffffffffffffffffffffffffffffffffffffffffffffffffffffffffffffffff03821115620007c857620007c762000916565b5b828201905092915050565b6000620007e082620008a0565b9150620007ed83620008a0565b9250826200080057620007ff62000945565b5b828204905092915050565b60006200081882620008a0565b91506200082583620008a0565b9250817fffffffffffffffffffffffffffffffffffffffffffffffffffffffffffffffff048311821515161562000861576200086062000916565b5b828202905092915050565b6000620008798262000880565b9050919050565b600073ffffffffffffffffffffffffffffffffffffffff82169050919050565b6000819050919050565b60005b83811015620008ca578082015181840152602081019050620008ad565b83811115620008da576000848401525b50505050565b60006002820490506001821680620008f957607f821691505b6020821081141562000910576200090f62000974565b5b50919050565b7f4e487b7100000000000000000000000000000000000000000000000000000000600052601160045260246000fd5b7f4e487b7100000000000000000000000000000000000000000000000000000000600052601260045260246000fd5b7f4e487b7100000000000000000000000000000000000000000000000000000000600052602260045260246000fd5b7f4e487b7100000000000000000000000000000000000000000000000000000000600052604160045260246000fd5b620009dd816200086c565b8114620009e957600080fd5b50565b620009f781620008a0565b811462000a0357600080fd5b50565b6129528062000a166000396000f3fe6080604052600436106100f35760003560e01c8063788602681161008a578063b656f2e311610059578063b656f2e3146102f0578063c392f7661461030c578063efd475ab14610337578063f74f1dac1461034e576100f3565b8063788602681461024f578063963e050d1461027a578063a78d460814610296578063a89a8515146102c5576100f3565b806328fd10d7116100c657806328fd10d7146101c15780633ccfd60b146101fe5780633f82b8bd14610208578063402d888314610245576100f3565b8063045853c4146100f857806312065fe01461012d57806319dc4b60146101585780632488e68314610195575b600080fd5b34801561010457600080fd5b5061010d61037c565b6040516101249b9a999897969594939291906124b4565b60405180910390f35b34801561013957600080fd5b5061014261045f565b60405161014f91906123f3565b60405180910390f35b34801561016457600080fd5b5061017f600480360381019061017a91906120a9565b610467565b60405161018c91906123b8565b60405180910390f35b3480156101a157600080fd5b506101aa610487565b6040516101b8929190612381565b60405180910390f35b3480156101cd57600080fd5b506101e860048036038101906101e391906120a9565b6107b6565b6040516101f591906123b8565b60405180910390f35b6102066107d6565b005b34801561021457600080fd5b5061022f600480360381019061022a91906120a9565b610a5b565b60405161023c9190612566565b60405180910390f35b61024d610a7b565b005b34801561025b57600080fd5b50610264610ea4565b60405161027191906123f3565b60405180910390f35b610294600480360381019061028f91906120fb565b610eaa565b005b3480156102a257600080fd5b506102ab61142e565b6040516102bc95949392919061245a565b60405180910390f35b3480156102d157600080fd5b506102da6114e7565b6040516102e791906123f3565b60405180910390f35b61030a600480360381019061030591906120a9565b6115b9565b005b34801561031857600080fd5b506103216119ef565b60405161032e91906123f3565b60405180910390f35b34801561034357600080fd5b5061034c6119f5565b005b34801561035a57600080fd5b50610363611d4e565b604051610373949392919061240e565b60405180910390f35b6000806000806000806000806060600080600354600554600454600f546018546103a46114e7565b600d54601054600e600854308280546103bc906127be565b80601f01602080910402602001604051908101604052809291908181526020018280546103e8906127be565b80156104355780601f1061040a57610100808354040283529160200191610435565b820191906000526020600020905b81548152906001019060200180831161041857829003601f168201915b505050505092509a509a509a509a509a509a509a509a509a509a509a50909192939495969798999a565b600047905090565b60136020528060005260406000206000915054906101000a900460ff1681565b606080600060185467ffffffffffffffff8111156104ce577f4e487b7100000000000000000000000000000000000000000000000000000000600052604160045260246000fd5b60405190808252806020026020018201604052801561050757816020015b6104f4612057565b8152602001906001900390816104ec5790505b509050600060185467ffffffffffffffff81111561054e577f4e487b7100000000000000000000000000000000000000000000000000000000600052604160045260246000fd5b60405190808252806020026020018201604052801561057c5781602001602082028036833780820191505090505b50905060005b6018548110156107a9576000601682815481106105c8577f4e487b7100000000000000000000000000000000000000000000000000000000600052603260045260246000fd5b9060005260206000200160009054906101000a900473ffffffffffffffffffffffffffffffffffffffff169050601360008273ffffffffffffffffffffffffffffffffffffffff1673ffffffffffffffffffffffffffffffffffffffff16815260200190815260200160002060009054906101000a900460ff16156107955760006040518060200160405280601560008573ffffffffffffffffffffffffffffffffffffffff1673ffffffffffffffffffffffffffffffffffffffff1681526020019081526020016000205481525090506106b3816040518060200160405280601154815250611e10565b90508584815181106106ee577f4e487b7100000000000000000000000000000000000000000000000000000000600052603260045260246000fd5b6020026020010181905250601460008373ffffffffffffffffffffffffffffffffffffffff1673ffffffffffffffffffffffffffffffffffffffff16815260200190815260200160002060009054906101000a900460ff1684848151811061077f577f4e487b7100000000000000000000000000000000000000000000000000000000600052603260045260246000fd5b602002602001019060ff16908160ff1681525050505b5080806107a1906127f0565b915050610582565b5081819350935050509091565b60126020528060005260406000206000915054906101000a900460ff1681565b600160009054906101000a900473ffffffffffffffffffffffffffffffffffffffff1673ffffffffffffffffffffffffffffffffffffffff163373ffffffffffffffffffffffffffffffffffffffff161461083057600080fd5b60035447101561083f57600080fd5b60786008544261084f91906126f0565b1161085957600080fd5b600580811115610892577f4e487b7100000000000000000000000000000000000000000000000000000000600052602160045260246000fd5b601960009054906101000a900460ff1660058111156108da577f4e487b7100000000000000000000000000000000000000000000000000000000600052602160045260246000fd5b14156108e557600080fd5b6001601960006101000a81548160ff02191690836005811115610931577f4e487b7100000000000000000000000000000000000000000000000000000000600052602160045260246000fd5b021790555042601960009054906101000a900460ff16600581111561097f577f4e487b7100000000000000000000000000000000000000000000000000000000600052602160045260246000fd5b7fe04b3979215729564ee00ff629e5f6e9a70fbf40d24b969dd4be1ada22bb486d60405160405180910390a342473373ffffffffffffffffffffffffffffffffffffffff167f20734f14d107b526674905e470e35d0a474f9fb996a7bdb034c839c8894524e660405160405180910390a4600160009054906101000a900473ffffffffffffffffffffffffffffffffffffffff1673ffffffffffffffffffffffffffffffffffffffff166108fc479081150290604051600060405180830381858888f19350505050158015610a58573d6000803e3d6000fd5b50565b60146020528060005260406000206000915054906101000a900460ff1681565b600160009054906101000a900473ffffffffffffffffffffffffffffffffffffffff1673ffffffffffffffffffffffffffffffffffffffff163373ffffffffffffffffffffffffffffffffffffffff1614610ad557600080fd5b60016005811115610b0f577f4e487b7100000000000000000000000000000000000000000000000000000000600052602160045260246000fd5b601960009054906101000a900460ff166005811115610b57577f4e487b7100000000000000000000000000000000000000000000000000000000600052602160045260246000fd5b14610b6157600080fd5b607860085442610b7191906126f0565b11610b7b57600080fd5b6000600a5411610b8a57600080fd5b600b60000154341015610b9c57600080fd5b600754600c5410610bd6577f4e487b7100000000000000000000000000000000000000000000000000000000600052600160045260246000fd5b426009819055506000600b60000154341115610d1657610c04600b6000015434611e3790919063ffffffff16565b9050610c198134611e3790919063ffffffff16565b600b6000015414610c53577f4e487b7100000000000000000000000000000000000000000000000000000000600052600160045260246000fd5b348110610c89577f4e487b7100000000000000000000000000000000000000000000000000000000600052600160045260246000fd5b3373ffffffffffffffffffffffffffffffffffffffff166108fc829081150290604051600060405180830381858888f19350505050158015610ccf573d6000803e3d6000fd5b5042813373ffffffffffffffffffffffffffffffffffffffff167fa39a95c51a8eda9ac097faced5d7b26121bc7341634beed450754a13d7b4718a60405160405180910390a45b8034610d2291906126f0565b600c6000828254610d33919061260f565b92505081905550428134610d4791906126f0565b3373ffffffffffffffffffffffffffffffffffffffff167f350a09487d622378c6efbda255f996387696319f803a2e53eee64f7aa70be85a60405160405180910390a4600754600c541415610ea157423373ffffffffffffffffffffffffffffffffffffffff167f25630de45a38a90cbca3a2eb35a8197e51b56d6d912581711e5e3773fe77cabc60405160405180910390a36002601960006101000a81548160ff02191690836005811115610e26577f4e487b7100000000000000000000000000000000000000000000000000000000600052602160045260246000fd5b021790555042601960009054906101000a900460ff166005811115610e74577f4e487b7100000000000000000000000000000000000000000000000000000000600052602160045260246000fd5b7fe04b3979215729564ee00ff629e5f6e9a70fbf40d24b969dd4be1ada22bb486d60405160405180910390a35b50565b60035481565b60006005811115610ee4577f4e487b7100000000000000000000000000000000000000000000000000000000600052602160045260246000fd5b601960009054906101000a900460ff166005811115610f2c577f4e487b7100000000000000000000000000000000000000000000000000000000600052602160045260246000fd5b148015610f3b57506000600d54115b610f4457600080fd5b607860085442610f5491906126f0565b10610f5e57600080fd5b60328260ff16118015610f75575060648260ff1611155b610f7e57600080fd5b601360008273ffffffffffffffffffffffffffffffffffffffff1673ffffffffffffffffffffffffffffffffffffffff16815260200190815260200160002060009054906101000a900460ff161561100b576040517f08c379a0000000000000000000000000000000000000000000000000000000008152600401611002906123d3565b60405180910390fd5b6000600d5434106111515761102b600d5434611e3790919063ffffffff16565b90506110408134611e3790919063ffffffff16565b600d5414611077577f4e487b7100000000000000000000000000000000000000000000000000000000600052600160045260246000fd5b348111156110ae577f4e487b7100000000000000000000000000000000000000000000000000000000600052600160045260246000fd5b6000811115611144578173ffffffffffffffffffffffffffffffffffffffff166108fc829081150290604051600060405180830381858888f193505050501580156110fd573d6000803e3d6000fd5b5042818373ffffffffffffffffffffffffffffffffffffffff167fa39a95c51a8eda9ac097faced5d7b26121bc7341634beed450754a13d7b4718a60405160405180910390a45b6000600d81905550611176565b803461115d91906126f0565b600d600082825461116e91906126f0565b925050819055505b6000813461118491906126f0565b90508060116000828254611198919061260f565b925050819055506001601360008573ffffffffffffffffffffffffffffffffffffffff1673ffffffffffffffffffffffffffffffffffffffff16815260200190815260200160002060006101000a81548160ff02191690831515021790555080601560008573ffffffffffffffffffffffffffffffffffffffff1673ffffffffffffffffffffffffffffffffffffffff1681526020019081526020016000208190555083601460008573ffffffffffffffffffffffffffffffffffffffff1673ffffffffffffffffffffffffffffffffffffffff16815260200190815260200160002060006101000a81548160ff021916908360ff1602179055506016839080600181540180825580915050600190039060005260206000200160009091909190916101000a81548173ffffffffffffffffffffffffffffffffffffffff021916908373ffffffffffffffffffffffffffffffffffffffff16021790555060186000815480929190611309906127f0565b9190505550600260009054906101000a900473ffffffffffffffffffffffffffffffffffffffff1673ffffffffffffffffffffffffffffffffffffffff166334bac6c53060008054906101000a900473ffffffffffffffffffffffffffffffffffffffff166000806040518563ffffffff1660e01b8152600401611390949392919061233c565b602060405180830381600087803b1580156113aa57600080fd5b505af11580156113be573d6000803e3d6000fd5b505050506040513d601f19601f820116820180604052508101906113e291906120d2565b5042818473ffffffffffffffffffffffffffffffffffffffff167f82d58b52dd2dfba7faa5635e75ad63a94470c74b2aa39449ed457f505899462960405160405180910390a450505050565b6000806000606060006005546003546114456114e7565b600e600854818054611456906127be565b80601f0160208091040260200160405190810160405280929190818152602001828054611482906127be565b80156114cf5780601f106114a4576101008083540402835291602001916114cf565b820191906000526020600020905b8154815290600101906020018083116114b257829003601f168201915b50505050509150945094509450945094509091929394565b6000600260009054906101000a900473ffffffffffffffffffffffffffffffffffffffff1673ffffffffffffffffffffffffffffffffffffffff1663fa1d784660008054906101000a900473ffffffffffffffffffffffffffffffffffffffff166040518263ffffffff1660e01b81526004016115649190612321565b60206040518083038186803b15801561157c57600080fd5b505afa158015611590573d6000803e3d6000fd5b505050506040513d601f19601f820116820180604052508101906115b491906120d2565b905090565b600060058111156115f3577f4e487b7100000000000000000000000000000000000000000000000000000000600052602160045260246000fd5b601960009054906101000a900460ff16600581111561163b577f4e487b7100000000000000000000000000000000000000000000000000000000600052602160045260246000fd5b1461164557600080fd5b60786008544261165591906126f0565b1061165f57600080fd5b60008047905060035447106118635761168360035447611e3790919063ffffffff16565b91506116988247611e3790919063ffffffff16565b600354146116cf577f4e487b7100000000000000000000000000000000000000000000000000000000600052600160045260246000fd5b34821115611706577f4e487b7100000000000000000000000000000000000000000000000000000000600052600160045260246000fd5b6000821115611862578273ffffffffffffffffffffffffffffffffffffffff166108fc839081150290604051600060405180830381858888f19350505050158015611755573d6000803e3d6000fd5b5042828473ffffffffffffffffffffffffffffffffffffffff167fa39a95c51a8eda9ac097faced5d7b26121bc7341634beed450754a13d7b4718a60405160405180910390a46001601960006101000a81548160ff021916908360058111156117e7577f4e487b7100000000000000000000000000000000000000000000000000000000600052602160045260246000fd5b021790555042601960009054906101000a900460ff166005811115611835577f4e487b7100000000000000000000000000000000000000000000000000000000600052602160045260246000fd5b7fe04b3979215729564ee00ff629e5f6e9a70fbf40d24b969dd4be1ada22bb486d60405160405180910390a35b5b3460106000828254611875919061260f565b92505081905550600f600081548092919061188f906127f0565b91905055506001601260008573ffffffffffffffffffffffffffffffffffffffff1673ffffffffffffffffffffffffffffffffffffffff16815260200190815260200160002060006101000a81548160ff0219169083151502179055506119506119028334611e3790919063ffffffff16565b601560008673ffffffffffffffffffffffffffffffffffffffff1673ffffffffffffffffffffffffffffffffffffffff16815260200190815260200160002054611dfa90919063ffffffff16565b601560008573ffffffffffffffffffffffffffffffffffffffff1673ffffffffffffffffffffffffffffffffffffffff16815260200190815260200160002081905550426119a78334611e3790919063ffffffff16565b8473ffffffffffffffffffffffffffffffffffffffff167f9e9d071824fd57d062ca63fd8b786d8da48a6807eebbcb2d83f9e8d21398e28c60405160405180910390a4505050565b60055481565b60011515600660009054906101000a900460ff16151514611a1557600080fd5b60011515601260003373ffffffffffffffffffffffffffffffffffffffff1673ffffffffffffffffffffffffffffffffffffffff16815260200190815260200160002060009054906101000a900460ff16151514611a7257600080fd5b60026005811115611aac577f4e487b7100000000000000000000000000000000000000000000000000000000600052602160045260246000fd5b601960009054906101000a900460ff166005811115611af4577f4e487b7100000000000000000000000000000000000000000000000000000000600052602160045260246000fd5b14611afe57600080fd5b6000601560003373ffffffffffffffffffffffffffffffffffffffff1673ffffffffffffffffffffffffffffffffffffffff1681526020019081526020016000205411611b4a57600080fd5b6000601754600754611b5c9190612665565b905080471015611b95577f4e487b7100000000000000000000000000000000000000000000000000000000600052600160045260246000fd5b3373ffffffffffffffffffffffffffffffffffffffff166108fc829081150290604051600060405180830381858888f19350505050158015611bdb573d6000803e3d6000fd5b5042813373ffffffffffffffffffffffffffffffffffffffff167f052f6685df2f773f854b17db1d82e2352e222010daaf8175761f02ef8782c40360405160405180910390a46000471415611d4b576000600660006101000a81548160ff02191690831515021790555042600660009054906101000a900460ff1615157f160914ea27c60aa29a5f3a69d74e6069869de36e38939de1e0a66b921d8623d260405160405180910390a36003601960006101000a81548160ff02191690836005811115611cd0577f4e487b7100000000000000000000000000000000000000000000000000000000600052602160045260246000fd5b021790555042601960009054906101000a900460ff166005811115611d1e577f4e487b7100000000000000000000000000000000000000000000000000000000600052602160045260246000fd5b7fe04b3979215729564ee00ff629e5f6e9a70fbf40d24b969dd4be1ada22bb486d60405160405180910390a35b50565b60008060606000600554600354600e600854818054611d6c906127be565b80601f0160208091040260200160405190810160405280929190818152602001828054611d98906127be565b8015611de55780601f10611dba57610100808354040283529160200191611de5565b820191906000526020600020905b815481529060010190602001808311611dc857829003601f168201915b50505050509150935093509350935090919293565b60008183611e08919061260f565b905092915050565b6000611e1a612057565b611e2c84600001518460000151611e4d565b915091509250929050565b60008183611e4591906126f0565b905092915050565b6000611e57612057565b600080611e6c86670de0b6b3a7640000611fcc565b9150915060006003811115611eaa577f4e487b7100000000000000000000000000000000000000000000000000000000600052602160045260246000fd5b826003811115611ee3577f4e487b7100000000000000000000000000000000000000000000000000000000600052602160045260246000fd5b14611f04578160405180602001604052806000815250935093505050611fc5565b600080611f118388612024565b9150915060006003811115611f4f577f4e487b7100000000000000000000000000000000000000000000000000000000600052602160045260246000fd5b826003811115611f88577f4e487b7100000000000000000000000000000000000000000000000000000000600052602160045260246000fd5b14611fab5781604051806020016040528060008152509550955050505050611fc5565b600060405180602001604052808381525095509550505050505b9250929050565b6000806000841415611fe4576000809150915061201d565b60008385611ff29190612696565b90508385826120019190612665565b146120145760026000925092505061201d565b60008192509250505b9250929050565b600080600083141561203d576001600091509150612050565b6000838561204b9190612665565b915091505b9250929050565b6040518060200160405280600081525090565b600081359050612079816128d7565b92915050565b60008151905061208e816128ee565b92915050565b6000813590506120a381612905565b92915050565b6000602082840312156120bb57600080fd5b60006120c98482850161206a565b91505092915050565b6000602082840312156120e457600080fd5b60006120f28482850161207f565b91505092915050565b6000806040838503121561210e57600080fd5b600061211c85828601612094565b925050602061212d8582860161206a565b9150509250929050565b600061214383836122c9565b60208301905092915050565b600061215b8383612303565b60208301905092915050565b61217081612724565b82525050565b6000612181826125a1565b61218b81856125dc565b935061219683612581565b8060005b838110156121c75781516121ae8882612137565b97506121b9836125c2565b92505060018101905061219a565b5085935050505092915050565b60006121df826125ac565b6121e981856125ed565b93506121f483612591565b8060005b8381101561222557815161220c888261214f565b9750612217836125cf565b9250506001810190506121f8565b5085935050505092915050565b61223b81612736565b82525050565b61224a81612779565b82525050565b600061225b826125b7565b61226581856125fe565b935061227581856020860161278b565b61227e816128c6565b840191505092915050565b6000612296601c836125fe565b91507f596f75206861766520616c7265616479207265636f6d6d656e646564000000006000830152602082019050919050565b6020820160008201516122df60008501826122e5565b50505050565b6122ee81612762565b82525050565b6122fd81612762565b82525050565b61230c8161276c565b82525050565b61231b8161276c565b82525050565b60006020820190506123366000830184612167565b92915050565b60006080820190506123516000830187612167565b61235e6020830186612167565b61236b6040830185612241565b6123786060830184612241565b95945050505050565b6000604082019050818103600083015261239b8185612176565b905081810360208301526123af81846121d4565b90509392505050565b60006020820190506123cd6000830184612232565b92915050565b600060208201905081810360008301526123ec81612289565b9050919050565b600060208201905061240860008301846122f4565b92915050565b600060808201905061242360008301876122f4565b61243060208301866122f4565b81810360408301526124428185612250565b905061245160608301846122f4565b95945050505050565b600060a08201905061246f60008301886122f4565b61247c60208301876122f4565b61248960408301866122f4565b818103606083015261249b8185612250565b90506124aa60808301846122f4565b9695505050505050565b6000610160820190506124ca600083018e6122f4565b6124d7602083018d6122f4565b6124e4604083018c6122f4565b6124f1606083018b6122f4565b6124fe608083018a6122f4565b61250b60a08301896122f4565b61251860c08301886122f4565b61252560e08301876122f4565b8181036101008301526125388186612250565b90506125486101208301856122f4565b612556610140830184612167565b9c9b505050505050505050505050565b600060208201905061257b6000830184612312565b92915050565b6000819050602082019050919050565b6000819050602082019050919050565b600081519050919050565b600081519050919050565b600081519050919050565b6000602082019050919050565b6000602082019050919050565b600082825260208201905092915050565b600082825260208201905092915050565b600082825260208201905092915050565b600061261a82612762565b915061262583612762565b9250827fffffffffffffffffffffffffffffffffffffffffffffffffffffffffffffffff0382111561265a57612659612839565b5b828201905092915050565b600061267082612762565b915061267b83612762565b92508261268b5761268a612868565b5b828204905092915050565b60006126a182612762565b91506126ac83612762565b9250817fffffffffffffffffffffffffffffffffffffffffffffffffffffffffffffffff04831182151516156126e5576126e4612839565b5b828202905092915050565b60006126fb82612762565b915061270683612762565b92508282101561271957612718612839565b5b828203905092915050565b600061272f82612742565b9050919050565b60008115159050919050565b600073ffffffffffffffffffffffffffffffffffffffff82169050919050565b6000819050919050565b600060ff82169050919050565b600061278482612762565b9050919050565b60005b838110156127a957808201518184015260208101905061278e565b838111156127b8576000848401525b50505050565b600060028204905060018216806127d657607f821691505b602082108114156127ea576127e9612897565b5b50919050565b60006127fb82612762565b91507fffffffffffffffffffffffffffffffffffffffffffffffffffffffffffffffff82141561282e5761282d612839565b5b600182019050919050565b7f4e487b7100000000000000000000000000000000000000000000000000000000600052601160045260246000fd5b7f4e487b7100000000000000000000000000000000000000000000000000000000600052601260045260246000fd5b7f4e487b7100000000000000000000000000000000000000000000000000000000600052602260045260246000fd5b6000601f19601f8301169050919050565b6128e081612724565b81146128eb57600080fd5b50565b6128f781612762565b811461290257600080fd5b50565b61290e8161276c565b811461291957600080fd5b5056fea2646970667358221220299e3074c4543408ad01f94e1897354fae214387065042f16c526c7a626292fe64736f6c63430008000033a2646970667358221220fb10ba4f099ea70b128aecbaab552b2b28b6e432df968e19b13e5645c4d57b1a64736f6c63430008000033608060405234801561001057600080fd5b50336000806101000a81548173ffffffffffffffffffffffffffffffffffffffff021916908373ffffffffffffffffffffffffffffffffffffffff16021790555061102c806100606000396000f3fe608060405234801561001057600080fd5b506004361061007d5760003560e01c8063e14602b71161005b578063e14602b714610112578063eccc475e14610142578063f851a44014610172578063fa1d7846146101905761007d565b806312606aab146100825780632bc6f127146100b257806334bac6c5146100e2575b600080fd5b61009c60048036038101906100979190610adb565b6101c0565b6040516100a99190610cad565b60405180910390f35b6100cc60048036038101906100c79190610adb565b61024f565b6040516100d99190610cad565b60405180910390f35b6100fc60048036038101906100f79190610adb565b6102de565b6040516101099190610cad565b60405180910390f35b61012c60048036038101906101279190610adb565b61053b565b6040516101399190610cad565b60405180910390f35b61015c60048036038101906101579190610adb565b6105ca565b6040516101699190610cad565b60405180910390f35b61017a610659565b6040516101879190610c55565b60405180910390f35b6101aa60048036038101906101a59190610ab2565b61067d565b6040516101b79190610cad565b60405180910390f35b6000808490508073ffffffffffffffffffffffffffffffffffffffff1663436d582f6040518163ffffffff1660e01b815260040160206040518083038186803b15801561020c57600080fd5b505afa158015610220573d6000803e3d6000fd5b505050506040513d601f19601f820116820180604052508101906102449190610baa565b915050949350505050565b6000808490508073ffffffffffffffffffffffffffffffffffffffff1663436d582f6040518163ffffffff1660e01b815260040160206040518083038186803b15801561029b57600080fd5b505afa1580156102af573d6000803e3d6000fd5b505050506040513d601f19601f820116820180604052508101906102d39190610baa565b915050949350505050565b600080849050600086905060006040518060200160405280600081525090506060808373ffffffffffffffffffffffffffffffffffffffff16632488e6836040518163ffffffff1660e01b815260040160006040518083038186803b15801561034657600080fd5b505afa15801561035a573d6000803e3d6000fd5b505050506040513d6000823e3d601f19601f820116820180604052508101906103839190610b3e565b809250819350505060005b82518110156104425761042d6104278483815181106103d6577f4e487b7100000000000000000000000000000000000000000000000000000000600052603260045260246000fd5b6020026020010151848481518110610417577f4e487b7100000000000000000000000000000000000000000000000000000000600052603260045260246000fd5b602002602001015160ff16610709565b85610735565b9350808061043a90610eca565b91505061038e565b508473ffffffffffffffffffffffffffffffffffffffff1663c361de5f846040518263ffffffff1660e01b815260040161047c9190610c92565b600060405180830381600087803b15801561049657600080fd5b505af11580156104aa573d6000803e3d6000fd5b505050508473ffffffffffffffffffffffffffffffffffffffff1663436d582f6040518163ffffffff1660e01b815260040160206040518083038186803b1580156104f457600080fd5b505afa158015610508573d6000803e3d6000fd5b505050506040513d601f19601f8201168201806040525081019061052c9190610baa565b95505050505050949350505050565b6000808490508073ffffffffffffffffffffffffffffffffffffffff1663436d582f6040518163ffffffff1660e01b815260040160206040518083038186803b15801561058757600080fd5b505afa15801561059b573d6000803e3d6000fd5b505050506040513d601f19601f820116820180604052508101906105bf9190610baa565b915050949350505050565b6000808490508073ffffffffffffffffffffffffffffffffffffffff1663436d582f6040518163ffffffff1660e01b815260040160206040518083038186803b15801561061657600080fd5b505afa15801561062a573d6000803e3d6000fd5b505050506040513d601f19601f8201168201806040525081019061064e9190610baa565b915050949350505050565b60008054906101000a900473ffffffffffffffffffffffffffffffffffffffff1681565b6000808290508073ffffffffffffffffffffffffffffffffffffffff1663436d582f6040518163ffffffff1660e01b815260040160206040518083038186803b1580156106c957600080fd5b505afa1580156106dd573d6000803e3d6000fd5b505050506040513d601f19601f820116820180604052508101906107019190610baa565b915050919050565b6107116108e7565b604051806020016040528061072a856000015185610765565b815250905092915050565b61073d6108e7565b604051806020016040528061075a856000015185600001516107af565b815250905092915050565b60006107a783836040518060400160405280601781526020017f6d756c7469706c69636174696f6e206f766572666c6f770000000000000000008152506107f9565b905092915050565b60006107f183836040518060400160405280601181526020017f6164646974696f6e206f766572666c6f77000000000000000000000000000000815250610884565b905092915050565b6000808414806108095750600083145b15610817576000905061087d565b600083856108259190610df4565b90508385826108349190610dc3565b148390610877576040517f08c379a000000000000000000000000000000000000000000000000000000000815260040161086e9190610c70565b60405180910390fd5b50809150505b9392505050565b60008083856108939190610d6d565b90508481101583906108db576040517f08c379a00000000000000000000000000000000000000000000000000000000081526004016108d29190610c70565b60405180910390fd5b50809150509392505050565b6040518060200160405280600081525090565b600061090d61090884610cf9565b610cc8565b9050808382526020820190508285602086028201111561092c57600080fd5b60005b8581101561095c57816109428882610a3b565b84526020840193506020830192505060018101905061092f565b5050509392505050565b600061097961097484610d25565b610cc8565b9050808382526020820190508285602086028201111561099857600080fd5b60005b858110156109c857816109ae8882610a9d565b84526020840193506020830192505060018101905061099b565b5050509392505050565b6000813590506109e181610fb1565b92915050565b600082601f8301126109f857600080fd5b8151610a088482602086016108fa565b91505092915050565b600082601f830112610a2257600080fd5b8151610a32848260208601610966565b91505092915050565b600060208284031215610a4d57600080fd5b610a576020610cc8565b90506000610a6784828501610a88565b60008301525092915050565b600081359050610a8281610fc8565b92915050565b600081519050610a9781610fc8565b92915050565b600081519050610aac81610fdf565b92915050565b600060208284031215610ac457600080fd5b6000610ad2848285016109d2565b91505092915050565b60008060008060808587031215610af157600080fd5b6000610aff878288016109d2565b9450506020610b10878288016109d2565b9350506040610b2187828801610a73565b9250506060610b3287828801610a73565b91505092959194509250565b60008060408385031215610b5157600080fd5b600083015167ffffffffffffffff811115610b6b57600080fd5b610b77858286016109e7565b925050602083015167ffffffffffffffff811115610b9457600080fd5b610ba085828601610a11565b9150509250929050565b600060208284031215610bbc57600080fd5b6000610bca84828501610a88565b91505092915050565b610bdc81610e4e565b82525050565b6000610bed82610d51565b610bf78185610d5c565b9350610c07818560208601610e97565b610c1081610fa0565b840191505092915050565b602082016000820151610c316000850182610c37565b50505050565b610c4081610e80565b82525050565b610c4f81610e80565b82525050565b6000602082019050610c6a6000830184610bd3565b92915050565b60006020820190508181036000830152610c8a8184610be2565b905092915050565b6000602082019050610ca76000830184610c1b565b92915050565b6000602082019050610cc26000830184610c46565b92915050565b6000604051905081810181811067ffffffffffffffff82111715610cef57610cee610f71565b5b8060405250919050565b600067ffffffffffffffff821115610d1457610d13610f71565b5b602082029050602081019050919050565b600067ffffffffffffffff821115610d4057610d3f610f71565b5b602082029050602081019050919050565b600081519050919050565b600082825260208201905092915050565b6000610d7882610e80565b9150610d8383610e80565b9250827fffffffffffffffffffffffffffffffffffffffffffffffffffffffffffffffff03821115610db857610db7610f13565b5b828201905092915050565b6000610dce82610e80565b9150610dd983610e80565b925082610de957610de8610f42565b5b828204905092915050565b6000610dff82610e80565b9150610e0a83610e80565b9250817fffffffffffffffffffffffffffffffffffffffffffffffffffffffffffffffff0483118215151615610e4357610e42610f13565b5b828202905092915050565b6000610e5982610e60565b9050919050565b600073ffffffffffffffffffffffffffffffffffffffff82169050919050565b6000819050919050565b600060ff82169050919050565b60005b83811015610eb5578082015181840152602081019050610e9a565b83811115610ec4576000848401525b50505050565b6000610ed582610e80565b91507fffffffffffffffffffffffffffffffffffffffffffffffffffffffffffffffff821415610f0857610f07610f13565b5b600182019050919050565b7f4e487b7100000000000000000000000000000000000000000000000000000000600052601160045260246000fd5b7f4e487b7100000000000000000000000000000000000000000000000000000000600052601260045260246000fd5b7f4e487b7100000000000000000000000000000000000000000000000000000000600052604160045260246000fd5b6000601f19601f8301169050919050565b610fba81610e4e565b8114610fc557600080fd5b50565b610fd181610e80565b8114610fdc57600080fd5b50565b610fe881610e8a565b8114610ff357600080fd5b5056fea264697066735822122008a4f92e65a196ec34da6cc29ee544b08038388f3523338912704bdd1f27deaa64736f6c63430008000033",
  "immutableReferences": {},
  "source": "// SPDX-License-Identifier: MIT\n\npragma solidity ^0.8.0;\n\nimport \"@openzeppelin/contracts/utils/math/Math.sol\";\n\nimport \"./Loan.sol\";\nimport \"./User.sol\";\nimport \"./TScoreController.sol\";\n\ncontract LoanController {\n\n    using Math for uint;\n\n    // Store all users with their address\n    mapping(address => User) public users;\n    address[] userAddr;\n\n    uint addressRegistryCount;\n    address tScoreController;\n\n    constructor() {\n        tScoreController = address(new TScoreController());\n    }\n\n    /** @dev Events\n    *\n    */\n    event LoanRequestedPosted(address indexed _address, uint indexed timestamp, address indexed _loanAddress, address _userAddress);\n    event TScoreInitialized(address indexed _address, uint indexed timestamp);\n\n    function applyForLoan(uint _requestedAmount, uint _repaymentsCount, uint _interest, string memory _tokenURI) public {\n\n        if (users[msg.sender] != User(address(0))) {\n            // The user not fraudulent\n            /* require(users[msg.sender ].fraudStatus == false);\n\n             // The user must not have any loan in progress\n             assert(users[msg.sender].activeLoan == address(0));*/\n        } else {\n            users[msg.sender] = new User();\n        }\n\n        uint creationTime = block.timestamp;\n/*\n        TScore storage tScore;\n        if (users[msg.sender] == address(0x0)) {\n            initTScore();\n        } else {\n            tScore = users[msg.sender];\n        }*/\n\n        Loan loan = new Loan(\n            address(users[msg.sender]),\n            msg.sender,\n            _requestedAmount,\n            _repaymentsCount,\n            _interest,\n            creationTime,\n            tScoreController,\n            _tokenURI\n        );\n\n        address loanAddr = address(loan);\n\n        users[msg.sender].setActiveLoan(loanAddr);\n        users[msg.sender].setOrbitDbIndexHash(loanAddr);\n        userAddr.push(msg.sender);\n        addressRegistryCount++;\n\n        emit LoanRequestedPosted(msg.sender, block.timestamp, loanAddr, address(users[msg.sender]));\n    }\n\n    function getHashesOfLoanRequests() public view returns (address[] memory){\n        address[] memory ret = new address[](addressRegistryCount);\n        for (uint i = 0; i < addressRegistryCount; i++) {\n            ret[i] = users[userAddr[i]].orbitDbIndexHash();\n        }\n        return ret;\n    }\n\n    function hasBorrow() public view returns (bool) {\n        return users[msg.sender].activeLoan() != address(0);\n    }\n\n    function getBorrowerInfos() public view returns (\n        uint256,\n        uint256,\n        uint256,\n        uint256,\n        uint256,\n        uint256,\n        uint256,\n        uint256,\n        string memory,\n        uint256,\n        address\n    ) {\n        return Loan(users[msg.sender].activeLoan()).getInfosForBorrower();\n    }\n\n    function invest(address loanContract) public payable {\n       Loan(loanContract).lend{value: msg.value}(msg.sender);\n    }\n\n    function recommend(address loanContract, uint8 score) public payable {\n       Loan(loanContract).recommend{value: msg.value}(score, msg.sender);\n    }\n\n    function getBalance() public view returns (uint256) {\n        return Loan(users[msg.sender].activeLoan()).getBalance();\n    }\n\n    function initTScore() internal {\n        emit TScoreInitialized(msg.sender, block.timestamp);\n    }\n\n}\n",
  "sourcePath": "/Users/nikitaterekhov/Projects/LiquidityProtocol/contracts/LoanController.sol",
  "compiler": {
    "name": "solc",
    "version": "0.8.0+commit.c7dfd78e.Emscripten.clang"
  },
  "schemaVersion": "3.4.1",
  "updatedAt": "2021-08-30T06:38:45.683Z",
  "networkType": "ethereum",
  "devdoc": {
    "events": {
      "LoanRequestedPosted(address,uint256,address,address)": {
        "details": "Events"
      }
    },
    "kind": "dev",
    "methods": {},
    "version": 1
  },
  "userdoc": {
    "kind": "user",
    "methods": {},
    "version": 1
  }
}