{
  "contractName": "Loan",
  "abi": [
    {
      "inputs": [
        {
          "internalType": "address",
          "name": "_borrower",
          "type": "address"
        },
        {
          "internalType": "uint256",
          "name": "_requestedAmount",
          "type": "uint256"
        },
        {
          "internalType": "uint256",
          "name": "_repaymentsCount",
          "type": "uint256"
        },
        {
          "internalType": "uint256",
          "name": "_interest",
          "type": "uint256"
        },
        {
          "internalType": "uint256",
          "name": "_loanCreationDate",
          "type": "uint256"
        },
        {
          "internalType": "address",
          "name": "_tScoreController",
          "type": "address"
        }
      ],
      "stateMutability": "nonpayable",
      "type": "constructor"
    },
    {
      "anonymous": false,
      "inputs": [
        {
          "indexed": true,
          "internalType": "address",
          "name": "_address",
          "type": "address"
        },
        {
          "indexed": true,
          "internalType": "uint256",
          "name": "_amount",
          "type": "uint256"
        },
        {
          "indexed": true,
          "internalType": "uint256",
          "name": "timestamp",
          "type": "uint256"
        }
      ],
      "name": "ExtraAmountRefunded",
      "type": "event"
    },
    {
      "anonymous": false,
      "inputs": [
        {
          "indexed": true,
          "internalType": "address",
          "name": "_address",
          "type": "address"
        },
        {
          "indexed": true,
          "internalType": "uint256",
          "name": "_amount",
          "type": "uint256"
        },
        {
          "indexed": true,
          "internalType": "uint256",
          "name": "timestamp",
          "type": "uint256"
        }
      ],
      "name": "Invested",
      "type": "event"
    },
    {
      "anonymous": false,
      "inputs": [
        {
          "indexed": true,
          "internalType": "enum Loan.State",
          "name": "state",
          "type": "uint8"
        },
        {
          "indexed": true,
          "internalType": "uint256",
          "name": "timestamp",
          "type": "uint256"
        }
      ],
      "name": "LoanStateChanged",
      "type": "event"
    },
    {
      "anonymous": false,
      "inputs": [
        {
          "indexed": true,
          "internalType": "address",
          "name": "_address",
          "type": "address"
        },
        {
          "indexed": true,
          "internalType": "uint256",
          "name": "_amount",
          "type": "uint256"
        },
        {
          "indexed": true,
          "internalType": "uint256",
          "name": "timestamp",
          "type": "uint256"
        }
      ],
      "name": "LogBorrowerChangeReturned",
      "type": "event"
    },
    {
      "anonymous": false,
      "inputs": [
        {
          "indexed": true,
          "internalType": "address",
          "name": "_address",
          "type": "address"
        },
        {
          "indexed": true,
          "internalType": "bool",
          "name": "fraudStatus",
          "type": "bool"
        },
        {
          "indexed": true,
          "internalType": "uint256",
          "name": "timestamp",
          "type": "uint256"
        }
      ],
      "name": "LogBorrowerIsFraud",
      "type": "event"
    },
    {
      "anonymous": false,
      "inputs": [
        {
          "indexed": true,
          "internalType": "address",
          "name": "_address",
          "type": "address"
        },
        {
          "indexed": true,
          "internalType": "uint256",
          "name": "timestamp",
          "type": "uint256"
        }
      ],
      "name": "LogBorrowerRepaymentFinished",
      "type": "event"
    },
    {
      "anonymous": false,
      "inputs": [
        {
          "indexed": true,
          "internalType": "address",
          "name": "_address",
          "type": "address"
        },
        {
          "indexed": true,
          "internalType": "uint256",
          "name": "_amount",
          "type": "uint256"
        },
        {
          "indexed": true,
          "internalType": "uint256",
          "name": "timestamp",
          "type": "uint256"
        }
      ],
      "name": "LogBorrowerRepaymentInstallment",
      "type": "event"
    },
    {
      "anonymous": false,
      "inputs": [
        {
          "indexed": true,
          "internalType": "address",
          "name": "_address",
          "type": "address"
        },
        {
          "indexed": true,
          "internalType": "uint256",
          "name": "_amount",
          "type": "uint256"
        },
        {
          "indexed": true,
          "internalType": "uint256",
          "name": "timestamp",
          "type": "uint256"
        }
      ],
      "name": "LogBorrowerWithdrawal",
      "type": "event"
    },
    {
      "anonymous": false,
      "inputs": [
        {
          "indexed": true,
          "internalType": "address",
          "name": "_address",
          "type": "address"
        },
        {
          "indexed": true,
          "internalType": "uint256",
          "name": "timestamp",
          "type": "uint256"
        }
      ],
      "name": "LogCreditInitialized",
      "type": "event"
    },
    {
      "anonymous": false,
      "inputs": [
        {
          "indexed": true,
          "internalType": "bool",
          "name": "active",
          "type": "bool"
        },
        {
          "indexed": true,
          "internalType": "uint256",
          "name": "timestamp",
          "type": "uint256"
        }
      ],
      "name": "LogCreditStateActiveChanged",
      "type": "event"
    },
    {
      "anonymous": false,
      "inputs": [
        {
          "indexed": true,
          "internalType": "address",
          "name": "_address",
          "type": "address"
        },
        {
          "indexed": true,
          "internalType": "uint256",
          "name": "_amount",
          "type": "uint256"
        },
        {
          "indexed": true,
          "internalType": "uint256",
          "name": "timestamp",
          "type": "uint256"
        }
      ],
      "name": "LogLenderChangeReturned",
      "type": "event"
    },
    {
      "anonymous": false,
      "inputs": [
        {
          "indexed": true,
          "internalType": "address",
          "name": "_address",
          "type": "address"
        },
        {
          "indexed": true,
          "internalType": "uint256",
          "name": "timestamp",
          "type": "uint256"
        }
      ],
      "name": "LogLenderVoteForFraud",
      "type": "event"
    },
    {
      "anonymous": false,
      "inputs": [
        {
          "indexed": true,
          "internalType": "address",
          "name": "_address",
          "type": "address"
        },
        {
          "indexed": true,
          "internalType": "uint256",
          "name": "timestamp",
          "type": "uint256"
        }
      ],
      "name": "LogLenderVoteForRevoking",
      "type": "event"
    },
    {
      "anonymous": false,
      "inputs": [
        {
          "indexed": true,
          "internalType": "address",
          "name": "_address",
          "type": "address"
        },
        {
          "indexed": true,
          "internalType": "uint256",
          "name": "_amount",
          "type": "uint256"
        },
        {
          "indexed": true,
          "internalType": "uint256",
          "name": "timestamp",
          "type": "uint256"
        }
      ],
      "name": "LogLenderWithdrawal",
      "type": "event"
    },
    {
      "anonymous": false,
      "inputs": [
        {
          "indexed": true,
          "internalType": "address",
          "name": "_address",
          "type": "address"
        },
        {
          "indexed": true,
          "internalType": "uint256",
          "name": "_amount",
          "type": "uint256"
        },
        {
          "indexed": true,
          "internalType": "uint256",
          "name": "timestamp",
          "type": "uint256"
        }
      ],
      "name": "LogRecommenderWithdrawal",
      "type": "event"
    },
    {
      "anonymous": false,
      "inputs": [
        {
          "indexed": true,
          "internalType": "address",
          "name": "_address",
          "type": "address"
        },
        {
          "indexed": true,
          "internalType": "uint256",
          "name": "_amount",
          "type": "uint256"
        },
        {
          "indexed": true,
          "internalType": "uint256",
          "name": "timestamp",
          "type": "uint256"
        }
      ],
      "name": "Recommended",
      "type": "event"
    },
    {
      "inputs": [],
      "name": "interest",
      "outputs": [
        {
          "internalType": "uint256",
          "name": "",
          "type": "uint256"
        }
      ],
      "stateMutability": "view",
      "type": "function"
    },
    {
      "inputs": [
        {
          "internalType": "address",
          "name": "",
          "type": "address"
        }
      ],
      "name": "lenders",
      "outputs": [
        {
          "internalType": "bool",
          "name": "",
          "type": "bool"
        }
      ],
      "stateMutability": "view",
      "type": "function"
    },
    {
      "inputs": [
        {
          "internalType": "address",
          "name": "",
          "type": "address"
        }
      ],
      "name": "recommendedScore",
      "outputs": [
        {
          "internalType": "uint8",
          "name": "",
          "type": "uint8"
        }
      ],
      "stateMutability": "view",
      "type": "function"
    },
    {
      "inputs": [
        {
          "internalType": "address",
          "name": "",
          "type": "address"
        }
      ],
      "name": "recommenders",
      "outputs": [
        {
          "internalType": "bool",
          "name": "",
          "type": "bool"
        }
      ],
      "stateMutability": "view",
      "type": "function"
    },
    {
      "inputs": [],
      "name": "requestedAmount",
      "outputs": [
        {
          "internalType": "uint256",
          "name": "",
          "type": "uint256"
        }
      ],
      "stateMutability": "view",
      "type": "function"
    },
    {
      "inputs": [],
      "name": "getBalance",
      "outputs": [
        {
          "internalType": "uint256",
          "name": "",
          "type": "uint256"
        }
      ],
      "stateMutability": "view",
      "type": "function"
    },
    {
      "inputs": [],
      "name": "getProjectInfos",
      "outputs": [
        {
          "internalType": "uint256",
          "name": "",
          "type": "uint256"
        },
        {
          "internalType": "uint256",
          "name": "",
          "type": "uint256"
        }
      ],
      "stateMutability": "view",
      "type": "function"
    },
    {
      "inputs": [],
      "name": "getInfosForBorrower",
      "outputs": [
        {
          "internalType": "uint256",
          "name": "",
          "type": "uint256"
        },
        {
          "internalType": "uint256",
          "name": "",
          "type": "uint256"
        },
        {
          "internalType": "uint256",
          "name": "",
          "type": "uint256"
        },
        {
          "internalType": "uint256",
          "name": "",
          "type": "uint256"
        },
        {
          "internalType": "uint256",
          "name": "",
          "type": "uint256"
        },
        {
          "internalType": "uint256",
          "name": "",
          "type": "uint256"
        },
        {
          "internalType": "uint256",
          "name": "",
          "type": "uint256"
        },
        {
          "internalType": "uint256",
          "name": "",
          "type": "uint256"
        }
      ],
      "stateMutability": "view",
      "type": "function"
    },
    {
      "inputs": [],
      "name": "requestTScore",
      "outputs": [
        {
          "internalType": "uint256",
          "name": "",
          "type": "uint256"
        }
      ],
      "stateMutability": "view",
      "type": "function"
    },
    {
      "inputs": [
        {
          "internalType": "uint8",
          "name": "score",
          "type": "uint8"
        },
        {
          "internalType": "address",
          "name": "recommenderAddress",
          "type": "address"
        }
      ],
      "name": "recommend",
      "outputs": [],
      "stateMutability": "payable",
      "type": "function"
    },
    {
      "inputs": [
        {
          "internalType": "address",
          "name": "investorAddress",
          "type": "address"
        }
      ],
      "name": "lend",
      "outputs": [],
      "stateMutability": "payable",
      "type": "function"
    },
    {
      "inputs": [],
      "name": "repay",
      "outputs": [],
      "stateMutability": "payable",
      "type": "function"
    },
    {
      "inputs": [],
      "name": "withdraw",
      "outputs": [],
      "stateMutability": "nonpayable",
      "type": "function"
    },
    {
      "inputs": [],
      "name": "requestInterest",
      "outputs": [],
      "stateMutability": "nonpayable",
      "type": "function"
    },
    {
      "inputs": [],
      "name": "getRecommendersWeightsAndValues",
      "outputs": [
        {
          "components": [
            {
              "internalType": "uint256",
              "name": "mantissa",
              "type": "uint256"
            }
          ],
          "internalType": "struct ExponentialNoError.Exp[]",
          "name": "",
          "type": "tuple[]"
        },
        {
          "internalType": "uint8[]",
          "name": "",
          "type": "uint8[]"
        }
      ],
      "stateMutability": "view",
      "type": "function"
    }
  ],
  "bytecode": "0x60806040526000600560006101000a81548160ff021916908315150217905550600060155560006016553480156200003657600080fd5b506040516200260e3803806200260e83398181016040528101906200005c9190620001dd565b856000806101000a81548173ffffffffffffffffffffffffffffffffffffffff021916908373ffffffffffffffffffffffffffffffffffffffff16021790555084600281905550836003819055508260048190555081600781905550620000d66004546002546200019760201b620018cf1790919060201c565b60068190555060006002600c819055506000600d819055506000869050600083600160006101000a81548173ffffffffffffffffffffffffffffffffffffffff021916908373ffffffffffffffffffffffffffffffffffffffff1602179055506000601760006101000a81548160ff0219169083600581111562000183577f4e487b7100000000000000000000000000000000000000000000000000000000600052602160045260246000fd5b021790555050505050505050505062000371565b60008183620001a7919062000273565b905092915050565b600081519050620001c0816200033d565b92915050565b600081519050620001d78162000357565b92915050565b60008060008060008060c08789031215620001f757600080fd5b60006200020789828a01620001af565b96505060206200021a89828a01620001c6565b95505060406200022d89828a01620001c6565b94505060606200024089828a01620001c6565b93505060806200025389828a01620001c6565b92505060a06200026689828a01620001af565b9150509295509295509295565b6000620002808262000304565b91506200028d8362000304565b9250827fffffffffffffffffffffffffffffffffffffffffffffffffffffffffffffffff03821115620002c557620002c46200030e565b5b828201905092915050565b6000620002dd82620002e4565b9050919050565b600073ffffffffffffffffffffffffffffffffffffffff82169050919050565b6000819050919050565b7f4e487b7100000000000000000000000000000000000000000000000000000000600052601160045260246000fd5b6200034881620002d0565b81146200035457600080fd5b50565b620003628162000304565b81146200036e57600080fd5b50565b61228d80620003816000396000f3fe6080604052600436106100e85760003560e01c8063402d88831161008a578063b656f2e311610059578063b656f2e3146102c0578063c392f766146102dc578063e0cf9fea14610307578063efd475ab14610333576100e8565b8063402d888314610244578063788602681461024e578063963e050d14610279578063a89a851514610295576100e8565b80632488e683116100c65780632488e6831461018757806328fd10d7146101b35780633ccfd60b146101f05780633f82b8bd14610207576100e8565b8063045853c4146100ed57806312065fe01461011f57806319dc4b601461014a575b600080fd5b3480156100f957600080fd5b5061010261034a565b604051610116989796959493929190611ed3565b60405180910390f35b34801561012b57600080fd5b5061013461038d565b6040516101419190611e8f565b60405180910390f35b34801561015657600080fd5b50610171600480360381019061016c9190611b7e565b610395565b60405161017e9190611e54565b60405180910390f35b34801561019357600080fd5b5061019c6103b5565b6040516101aa929190611e1d565b60405180910390f35b3480156101bf57600080fd5b506101da60048036038101906101d59190611b7e565b6106e4565b6040516101e79190611e54565b60405180910390f35b3480156101fc57600080fd5b50610205610704565b005b34801561021357600080fd5b5061022e60048036038101906102299190611b7e565b61098b565b60405161023b9190611f51565b60405180910390f35b61024c6109ab565b005b34801561025a57600080fd5b50610263610c7e565b6040516102709190611e8f565b60405180910390f35b610293600480360381019061028e9190611bd0565b610c84565b005b3480156102a157600080fd5b506102aa611071565b6040516102b79190611e8f565b60405180910390f35b6102da60048036038101906102d59190611b7e565b611143565b005b3480156102e857600080fd5b506102f161155f565b6040516102fe9190611e8f565b60405180910390f35b34801561031357600080fd5b5061031c611565565b60405161032a929190611eaa565b60405180910390f35b34801561033f57600080fd5b50610348611576565b005b600080600080600080600080600254600454600354600d5460165461036d611071565b600c54600e54975097509750975097509750975097509091929394959697565b600047905090565b60116020528060005260406000206000915054906101000a900460ff1681565b606080600060165467ffffffffffffffff8111156103fc577f4e487b7100000000000000000000000000000000000000000000000000000000600052604160045260246000fd5b60405190808252806020026020018201604052801561043557816020015b610422611b2c565b81526020019060019003908161041a5790505b509050600060165467ffffffffffffffff81111561047c577f4e487b7100000000000000000000000000000000000000000000000000000000600052604160045260246000fd5b6040519080825280602002602001820160405280156104aa5781602001602082028036833780820191505090505b50905060005b6016548110156106d7576000601482815481106104f6577f4e487b7100000000000000000000000000000000000000000000000000000000600052603260045260246000fd5b9060005260206000200160009054906101000a900473ffffffffffffffffffffffffffffffffffffffff169050601160008273ffffffffffffffffffffffffffffffffffffffff1673ffffffffffffffffffffffffffffffffffffffff16815260200190815260200160002060009054906101000a900460ff16156106c35760006040518060200160405280601360008573ffffffffffffffffffffffffffffffffffffffff1673ffffffffffffffffffffffffffffffffffffffff1681526020019081526020016000205481525090506105e1816040518060200160405280600f548152506118e5565b905085848151811061061c577f4e487b7100000000000000000000000000000000000000000000000000000000600052603260045260246000fd5b6020026020010181905250601260008373ffffffffffffffffffffffffffffffffffffffff1673ffffffffffffffffffffffffffffffffffffffff16815260200190815260200160002060009054906101000a900460ff168484815181106106ad577f4e487b7100000000000000000000000000000000000000000000000000000000600052603260045260246000fd5b602002602001019060ff16908160ff1681525050505b5080806106cf9061216b565b9150506104b0565b5081819350935050509091565b60106020528060005260406000206000915054906101000a900460ff1681565b60011515600560009054906101000a900460ff1615151461072457600080fd5b60008054906101000a900473ffffffffffffffffffffffffffffffffffffffff1673ffffffffffffffffffffffffffffffffffffffff163373ffffffffffffffffffffffffffffffffffffffff161461077c57600080fd5b60025447101561078b57600080fd5b6005808111156107c4577f4e487b7100000000000000000000000000000000000000000000000000000000600052602160045260246000fd5b601760009054906101000a900460ff16600581111561080c577f4e487b7100000000000000000000000000000000000000000000000000000000600052602160045260246000fd5b141561081757600080fd5b6001601760006101000a81548160ff02191690836005811115610863577f4e487b7100000000000000000000000000000000000000000000000000000000600052602160045260246000fd5b021790555042601760009054906101000a900460ff1660058111156108b1577f4e487b7100000000000000000000000000000000000000000000000000000000600052602160045260246000fd5b7fe04b3979215729564ee00ff629e5f6e9a70fbf40d24b969dd4be1ada22bb486d60405160405180910390a342473373ffffffffffffffffffffffffffffffffffffffff167f20734f14d107b526674905e470e35d0a474f9fb996a7bdb034c839c8894524e660405160405180910390a460008054906101000a900473ffffffffffffffffffffffffffffffffffffffff1673ffffffffffffffffffffffffffffffffffffffff166108fc479081150290604051600060405180830381858888f19350505050158015610988573d6000803e3d6000fd5b50565b60126020528060005260406000206000915054906101000a900460ff1681565b60008054906101000a900473ffffffffffffffffffffffffffffffffffffffff1673ffffffffffffffffffffffffffffffffffffffff163373ffffffffffffffffffffffffffffffffffffffff1614610a0357600080fd5b60016005811115610a3d577f4e487b7100000000000000000000000000000000000000000000000000000000600052602160045260246000fd5b601760009054906101000a900460ff166005811115610a85577f4e487b7100000000000000000000000000000000000000000000000000000000600052602160045260246000fd5b14610a8f57600080fd5b600060095411610a9e57600080fd5b600a54341015610aad57600080fd5b600654600b5410610ae7577f4e487b7100000000000000000000000000000000000000000000000000000000600052600160045260246000fd5b426008819055506000600a54341115610bd957610b0f600a543461190c90919063ffffffff16565b9050610b24813461190c90919063ffffffff16565b600a5414610b5b577f4e487b7100000000000000000000000000000000000000000000000000000000600052600160045260246000fd5b348110610b91577f4e487b7100000000000000000000000000000000000000000000000000000000600052600160045260246000fd5b3373ffffffffffffffffffffffffffffffffffffffff166108fc829081150290604051600060405180830381858888f19350505050158015610bd7573d6000803e3d6000fd5b505b600654600b541415610c7b57423373ffffffffffffffffffffffffffffffffffffffff167f25630de45a38a90cbca3a2eb35a8197e51b56d6d912581711e5e3773fe77cabc60405160405180910390a36002601760006101000a81548160ff02191690836005811115610c75577f4e487b7100000000000000000000000000000000000000000000000000000000600052602160045260246000fd5b02179055505b50565b60025481565b60006005811115610cbe577f4e487b7100000000000000000000000000000000000000000000000000000000600052602160045260246000fd5b601760009054906101000a900460ff166005811115610d06577f4e487b7100000000000000000000000000000000000000000000000000000000600052602160045260246000fd5b148015610d1557506000600c54115b610d1e57600080fd5b60008260ff16118015610d35575060648260ff1611155b610d3e57600080fd5b601160008273ffffffffffffffffffffffffffffffffffffffff1673ffffffffffffffffffffffffffffffffffffffff16815260200190815260200160002060009054906101000a900460ff1615610dcb576040517f08c379a0000000000000000000000000000000000000000000000000000000008152600401610dc290611e6f565b60405180910390fd5b34600f6000828254610ddd9190611fef565b925050819055506001601160008373ffffffffffffffffffffffffffffffffffffffff1673ffffffffffffffffffffffffffffffffffffffff16815260200190815260200160002060006101000a81548160ff02191690831515021790555034601360008373ffffffffffffffffffffffffffffffffffffffff1673ffffffffffffffffffffffffffffffffffffffff1681526020019081526020016000208190555081601260008373ffffffffffffffffffffffffffffffffffffffff1673ffffffffffffffffffffffffffffffffffffffff16815260200190815260200160002060006101000a81548160ff021916908360ff1602179055506014819080600181540180825580915050600190039060005260206000200160009091909190916101000a81548173ffffffffffffffffffffffffffffffffffffffff021916908373ffffffffffffffffffffffffffffffffffffffff16021790555060166000815480929190610f4e9061216b565b9190505550600160009054906101000a900473ffffffffffffffffffffffffffffffffffffffff1673ffffffffffffffffffffffffffffffffffffffff166334bac6c53060008054906101000a900473ffffffffffffffffffffffffffffffffffffffff166000806040518563ffffffff1660e01b8152600401610fd59493929190611dd8565b602060405180830381600087803b158015610fef57600080fd5b505af1158015611003573d6000803e3d6000fd5b505050506040513d601f19601f820116820180604052508101906110279190611ba7565b5042348273ffffffffffffffffffffffffffffffffffffffff167f82d58b52dd2dfba7faa5635e75ad63a94470c74b2aa39449ed457f505899462960405160405180910390a45050565b6000600160009054906101000a900473ffffffffffffffffffffffffffffffffffffffff1673ffffffffffffffffffffffffffffffffffffffff1663fa1d784660008054906101000a900473ffffffffffffffffffffffffffffffffffffffff166040518263ffffffff1660e01b81526004016110ee9190611dbd565b60206040518083038186803b15801561110657600080fd5b505afa15801561111a573d6000803e3d6000fd5b505050506040513d601f19601f8201168201806040525081019061113e9190611ba7565b905090565b6000600581111561117d577f4e487b7100000000000000000000000000000000000000000000000000000000600052602160045260246000fd5b601760009054906101000a900460ff1660058111156111c5577f4e487b7100000000000000000000000000000000000000000000000000000000600052602160045260246000fd5b146111cf57600080fd5b60008047905060025447106113d3576111f36002544761190c90919063ffffffff16565b9150611208824761190c90919063ffffffff16565b6002541461123f577f4e487b7100000000000000000000000000000000000000000000000000000000600052600160045260246000fd5b34821115611276577f4e487b7100000000000000000000000000000000000000000000000000000000600052600160045260246000fd5b60008211156113d2578273ffffffffffffffffffffffffffffffffffffffff166108fc839081150290604051600060405180830381858888f193505050501580156112c5573d6000803e3d6000fd5b5042828473ffffffffffffffffffffffffffffffffffffffff167fa39a95c51a8eda9ac097faced5d7b26121bc7341634beed450754a13d7b4718a60405160405180910390a46001601760006101000a81548160ff02191690836005811115611357577f4e487b7100000000000000000000000000000000000000000000000000000000600052602160045260246000fd5b021790555042601760009054906101000a900460ff1660058111156113a5577f4e487b7100000000000000000000000000000000000000000000000000000000600052602160045260246000fd5b7fe04b3979215729564ee00ff629e5f6e9a70fbf40d24b969dd4be1ada22bb486d60405160405180910390a35b5b34600e60008282546113e59190611fef565b92505081905550600d60008154809291906113ff9061216b565b91905055506001601060008573ffffffffffffffffffffffffffffffffffffffff1673ffffffffffffffffffffffffffffffffffffffff16815260200190815260200160002060006101000a81548160ff0219169083151502179055506114c0611472833461190c90919063ffffffff16565b601360008673ffffffffffffffffffffffffffffffffffffffff1673ffffffffffffffffffffffffffffffffffffffff168152602001908152602001600020546118cf90919063ffffffff16565b601360008573ffffffffffffffffffffffffffffffffffffffff1673ffffffffffffffffffffffffffffffffffffffff1681526020019081526020016000208190555042611517833461190c90919063ffffffff16565b8473ffffffffffffffffffffffffffffffffffffffff167f9e9d071824fd57d062ca63fd8b786d8da48a6807eebbcb2d83f9e8d21398e28c60405160405180910390a4505050565b60045481565b600080600454600254915091509091565b60011515600560009054906101000a900460ff1615151461159657600080fd5b60011515601060003373ffffffffffffffffffffffffffffffffffffffff1673ffffffffffffffffffffffffffffffffffffffff16815260200190815260200160002060009054906101000a900460ff161515146115f357600080fd5b6002600581111561162d577f4e487b7100000000000000000000000000000000000000000000000000000000600052602160045260246000fd5b601760009054906101000a900460ff166005811115611675577f4e487b7100000000000000000000000000000000000000000000000000000000600052602160045260246000fd5b1461167f57600080fd5b6000601360003373ffffffffffffffffffffffffffffffffffffffff1673ffffffffffffffffffffffffffffffffffffffff16815260200190815260200160002054116116cb57600080fd5b60006015546006546116dd9190612045565b905080471015611716577f4e487b7100000000000000000000000000000000000000000000000000000000600052600160045260246000fd5b3373ffffffffffffffffffffffffffffffffffffffff166108fc829081150290604051600060405180830381858888f1935050505015801561175c573d6000803e3d6000fd5b5042813373ffffffffffffffffffffffffffffffffffffffff167f052f6685df2f773f854b17db1d82e2352e222010daaf8175761f02ef8782c40360405160405180910390a460004714156118cc576000600560006101000a81548160ff02191690831515021790555042600560009054906101000a900460ff1615157f160914ea27c60aa29a5f3a69d74e6069869de36e38939de1e0a66b921d8623d260405160405180910390a36003601760006101000a81548160ff02191690836005811115611851577f4e487b7100000000000000000000000000000000000000000000000000000000600052602160045260246000fd5b021790555042601760009054906101000a900460ff16600581111561189f577f4e487b7100000000000000000000000000000000000000000000000000000000600052602160045260246000fd5b7fe04b3979215729564ee00ff629e5f6e9a70fbf40d24b969dd4be1ada22bb486d60405160405180910390a35b50565b600081836118dd9190611fef565b905092915050565b60006118ef611b2c565b61190184600001518460000151611922565b915091509250929050565b6000818361191a91906120d0565b905092915050565b600061192c611b2c565b60008061194186670de0b6b3a7640000611aa1565b915091506000600381111561197f577f4e487b7100000000000000000000000000000000000000000000000000000000600052602160045260246000fd5b8260038111156119b8577f4e487b7100000000000000000000000000000000000000000000000000000000600052602160045260246000fd5b146119d9578160405180602001604052806000815250935093505050611a9a565b6000806119e68388611af9565b9150915060006003811115611a24577f4e487b7100000000000000000000000000000000000000000000000000000000600052602160045260246000fd5b826003811115611a5d577f4e487b7100000000000000000000000000000000000000000000000000000000600052602160045260246000fd5b14611a805781604051806020016040528060008152509550955050505050611a9a565b600060405180602001604052808381525095509550505050505b9250929050565b6000806000841415611ab95760008091509150611af2565b60008385611ac79190612076565b9050838582611ad69190612045565b14611ae957600260009250925050611af2565b60008192509250505b9250929050565b6000806000831415611b12576001600091509150611b25565b60008385611b209190612045565b915091505b9250929050565b6040518060200160405280600081525090565b600081359050611b4e81612212565b92915050565b600081519050611b6381612229565b92915050565b600081359050611b7881612240565b92915050565b600060208284031215611b9057600080fd5b6000611b9e84828501611b3f565b91505092915050565b600060208284031215611bb957600080fd5b6000611bc784828501611b54565b91505092915050565b60008060408385031215611be357600080fd5b6000611bf185828601611b69565b9250506020611c0285828601611b3f565b9150509250929050565b6000611c188383611d65565b60208301905092915050565b6000611c308383611d9f565b60208301905092915050565b611c4581612104565b82525050565b6000611c5682611f8c565b611c608185611fbc565b9350611c6b83611f6c565b8060005b83811015611c9c578151611c838882611c0c565b9750611c8e83611fa2565b925050600181019050611c6f565b5085935050505092915050565b6000611cb482611f97565b611cbe8185611fcd565b9350611cc983611f7c565b8060005b83811015611cfa578151611ce18882611c24565b9750611cec83611faf565b925050600181019050611ccd565b5085935050505092915050565b611d1081612116565b82525050565b611d1f81612159565b82525050565b6000611d32601c83611fde565b91507f596f75206861766520616c7265616479207265636f6d6d656e646564000000006000830152602082019050919050565b602082016000820151611d7b6000850182611d81565b50505050565b611d8a81612142565b82525050565b611d9981612142565b82525050565b611da88161214c565b82525050565b611db78161214c565b82525050565b6000602082019050611dd26000830184611c3c565b92915050565b6000608082019050611ded6000830187611c3c565b611dfa6020830186611c3c565b611e076040830185611d16565b611e146060830184611d16565b95945050505050565b60006040820190508181036000830152611e378185611c4b565b90508181036020830152611e4b8184611ca9565b90509392505050565b6000602082019050611e696000830184611d07565b92915050565b60006020820190508181036000830152611e8881611d25565b9050919050565b6000602082019050611ea46000830184611d90565b92915050565b6000604082019050611ebf6000830185611d90565b611ecc6020830184611d90565b9392505050565b600061010082019050611ee9600083018b611d90565b611ef6602083018a611d90565b611f036040830189611d90565b611f106060830188611d90565b611f1d6080830187611d90565b611f2a60a0830186611d90565b611f3760c0830185611d90565b611f4460e0830184611d90565b9998505050505050505050565b6000602082019050611f666000830184611dae565b92915050565b6000819050602082019050919050565b6000819050602082019050919050565b600081519050919050565b600081519050919050565b6000602082019050919050565b6000602082019050919050565b600082825260208201905092915050565b600082825260208201905092915050565b600082825260208201905092915050565b6000611ffa82612142565b915061200583612142565b9250827fffffffffffffffffffffffffffffffffffffffffffffffffffffffffffffffff0382111561203a576120396121b4565b5b828201905092915050565b600061205082612142565b915061205b83612142565b92508261206b5761206a6121e3565b5b828204905092915050565b600061208182612142565b915061208c83612142565b9250817fffffffffffffffffffffffffffffffffffffffffffffffffffffffffffffffff04831182151516156120c5576120c46121b4565b5b828202905092915050565b60006120db82612142565b91506120e683612142565b9250828210156120f9576120f86121b4565b5b828203905092915050565b600061210f82612122565b9050919050565b60008115159050919050565b600073ffffffffffffffffffffffffffffffffffffffff82169050919050565b6000819050919050565b600060ff82169050919050565b600061216482612142565b9050919050565b600061217682612142565b91507fffffffffffffffffffffffffffffffffffffffffffffffffffffffffffffffff8214156121a9576121a86121b4565b5b600182019050919050565b7f4e487b7100000000000000000000000000000000000000000000000000000000600052601160045260246000fd5b7f4e487b7100000000000000000000000000000000000000000000000000000000600052601260045260246000fd5b61221b81612104565b811461222657600080fd5b50565b61223281612142565b811461223d57600080fd5b50565b6122498161214c565b811461225457600080fd5b5056fea2646970667358221220fbf7049fdf46d112cd5589ee74f603976923aba8a3f7bad301d52335e5b5b9ff64736f6c63430008000033",
  "immutableReferences": {},
  "source": "pragma solidity ^0.8.0;\n\nimport \"@openzeppelin/contracts/utils/math/SafeMath.sol\";\nimport \"@openzeppelin/contracts/utils/math/Math.sol\";\nimport \"./DynamicCollateralLending.sol\";\nimport \"./User.sol\";\nimport \"./Exponential.sol\";\nimport \"./TScoreController.sol\";\n\ncontract Loan is Exponential{\n\n    using SafeMath for uint;\n\n    /** @dev Loan related infos\n    *\n    */\n    address borrower;\n    address tScoreController;\n    // Requested amount for a loan\n    uint public requestedAmount;\n    // Amount to be returned by the borrower (with an interest)\n    uint repaymentsCount;\n    // Loan interest\n    uint public interest;\n    // The money is sent to the user only when the loan is started\n    bool active = false;\n\n    uint returnAmount;\n    uint256 loanCreationDate;\n    uint lastRepaymentDate;\n    uint remainingPayments;\n    uint repaymentInstallment;\n    uint repaidAmount;\n    uint collateral; // percentage of a requested amount\n    uint constant loanExpirationInterval = 86400; // 1 DAY\n\n    /** @dev Investors and Recommenders infos\n    *\n    */\n    uint investorsCount;\n    uint totalInvestedAmount;\n    uint totalRecommendedAmount;\n\n    mapping(address => bool) public lenders;\n    mapping(address => bool) public recommenders;\n    mapping(address => uint8) public recommendedScore;\n    mapping(address => uint) investedOrRecommendedAmount;\n    address[] recommenderAddr;\n\n    // Store the lenders count, later needed for revoke vote.\n    uint lendersCount = 0;\n    uint recommendersCount = 0;\n\n\n    /** Stages that every credit contract gets trough.\n      *   investment - During this state only investments are allowed.\n      *   repayment - During this stage only repayments are allowed.\n      *   interestReturns - This stage gives investors opportunity to request their returns.\n      *   expired - If the contract does not accumulate the necessary amount on the\n      *             balance over the time interval, it expires.\n      *   fraud - The borrower was marked as fraud.\n    */\n    enum State { investment, repayment, interestReturns, expired, revoked, fraud }\n    State state;\n\n\n    /** @dev Events\n    *\n    */\n    event LogCreditInitialized(address indexed _address, uint indexed timestamp);\n    event LoanStateChanged(State indexed state, uint indexed timestamp);\n    event LogCreditStateActiveChanged(bool indexed active, uint indexed timestamp);\n\n    event LogBorrowerWithdrawal(address indexed _address, uint indexed _amount, uint indexed timestamp);\n    event LogBorrowerRepaymentInstallment(address indexed _address, uint indexed _amount, uint indexed timestamp);\n    event LogBorrowerRepaymentFinished(address indexed _address, uint indexed timestamp);\n    event LogBorrowerChangeReturned(address indexed _address, uint indexed _amount, uint indexed timestamp);\n    event LogBorrowerIsFraud(address indexed _address, bool indexed fraudStatus, uint indexed timestamp);\n\n    event Invested(address indexed _address, uint indexed _amount, uint indexed timestamp);\n    event Recommended(address indexed _address, uint indexed _amount, uint indexed timestamp);\n\n    event LogLenderWithdrawal(address indexed _address, uint indexed _amount, uint indexed timestamp);\n    event LogRecommenderWithdrawal(address indexed _address, uint indexed _amount, uint indexed timestamp);\n    event LogLenderChangeReturned(address indexed _address, uint indexed _amount, uint indexed timestamp);\n    event LogLenderVoteForRevoking(address indexed _address, uint indexed timestamp);\n    event LogLenderVoteForFraud(address indexed _address, uint indexed timestamp);\n    event ExtraAmountRefunded(address indexed _address, uint indexed _amount, uint indexed timestamp);\n\n    /** @dev Modifiers\n    *\n    */\n\n    // used for a withdraw function\n    modifier isActive() {\n        require(active == true);\n        _;\n    }\n\n    // crowdfunding process cannot exceed an interval of expiration\n    modifier notExpired() {\n        require(block.timestamp - loanCreationDate < loanExpirationInterval);\n        _;\n    }\n\n    // used for a withdraw function\n    modifier onlyBorrower() {\n        require(msg.sender == borrower);\n        _;\n    }\n\n    modifier onlyLender() {\n        require(lenders[msg.sender] == true);\n        _;\n    }\n\n    modifier canAskForInterest() {\n        require(state == State.interestReturns);\n        require(investedOrRecommendedAmount[msg.sender] > 0);\n        _;\n    }\n\n    modifier canInvest() {\n        require(state == State.investment);\n        _;\n    }\n\n    modifier canRecommend() {\n        require(state == State.investment && collateral > 0);\n        _;\n    }\n\n    modifier canRepay() {\n        require(state == State.repayment);\n        _;\n    }\n\n    modifier canWithdraw() {\n        require(address(this).balance>= requestedAmount);\n        _;\n    }\n\n    modifier isNotFraud() {\n        require(state != State.fraud);\n        _;\n    }\n\n    modifier isRevokable() {\n        /*require(block.timestamp >= revokeTimeNeeded);*/\n        require(state == State.investment);\n        _;\n    }\n\n    modifier isRevoked() {\n        require(state == State.revoked);\n        _;\n    }\n\n    constructor (\n        address _borrower,\n        uint _requestedAmount,\n        uint _repaymentsCount,\n        uint _interest,\n        uint _loanCreationDate,\n        address _tScoreController\n    ) public {\n\n        borrower = _borrower;\n        requestedAmount = _requestedAmount;\n        repaymentsCount = _repaymentsCount;\n        interest =  _interest;\n        loanCreationDate = _loanCreationDate;\n\n        // Calculate the amount to return by the borrower\n        returnAmount = requestedAmount.add(interest);\n\n        // Loan can only start when sufficient funds are invested\n\n        uint lastRepaymentDate = 0;\n        collateral = 2;\n        investorsCount = 0;\n        uint remainingPayments = _requestedAmount;\n        /*uint repaymentInstallment = remainingPayments.div(_repaymentsCount);*/\n        uint repaidAmount = 0;\n\n        tScoreController = _tScoreController;\n\n        // 1 state of a loan\n        state = State.investment;\n    }\n\n    function getBalance() public view returns (uint256) {\n        return address(this).balance;\n    }\n\n    function getProjectInfos() public view returns (uint256, uint256) {\n        return (interest, requestedAmount);\n    }\n\n    function getInfosForBorrower() public view returns (\n        uint256,\n        uint256,\n        uint256,\n        uint256,\n        uint256,\n        uint256,\n        uint256,\n        uint256)\n    {\n        return (\n        requestedAmount,\n        interest,\n        repaymentsCount,\n        investorsCount,\n        recommendersCount,\n        requestTScore(),\n        collateral,\n        totalInvestedAmount);\n    }\n\n    /** @dev Trustworthiness score calculation function\n      * Calculates trustworthiness score based on\n      * borrower's attributes\n      */\n    function requestTScore() public view returns (uint) {\n        return TScoreController(tScoreController).getTScore(borrower);\n    }\n\n    /** @dev Recommend function.\n      * Provides functionality for person to recommend someone's project,\n      * incentivized by the return of interest.\n      */\n    function recommend(uint8 score, address recommenderAddress) public canRecommend payable {\n\n        require(score > 0 && score <= 100);\n        require(!recommenders[recommenderAddress], \"You have already recommended\");\n\n        totalRecommendedAmount += msg.value;\n        recommenders[recommenderAddress] = true;\n        investedOrRecommendedAmount[recommenderAddress] = msg.value;\n        recommendedScore[recommenderAddress] = score;\n\n        recommenderAddr.push(recommenderAddress);\n        recommendersCount++;\n\n        TScoreController(tScoreController).updateSocialRecommendationScore(address(this), borrower, 0, 0);\n\n        emit Recommended(recommenderAddress, msg.value, block.timestamp);\n\n    }\n\n    /** @dev Invest function.\n      * Provides functionality for person to invest in someone's project,\n      * incentivized by the return of interest.\n      */\n    function lend(address investorAddress) public canInvest payable {\n\n        uint extraMoney = 0;\n        uint balance = address(this).balance;\n\n        if (address(this).balance >= requestedAmount) {\n             extraMoney = address(this).balance.sub(requestedAmount);\n             assert(requestedAmount == address(this).balance.sub(extraMoney));\n\n             // Assert that there is no overflow / underflow\n             assert(extraMoney <= msg.value);\n\n             if (extraMoney > 0) {\n                 // return extra money to the sender\n                 payable(investorAddress).transfer(extraMoney);\n                 emit ExtraAmountRefunded(investorAddress, extraMoney, block.timestamp);\n\n                 state = State.repayment;\n                 emit LoanStateChanged(state, block.timestamp);\n\n             }\n        }\n\n        totalInvestedAmount += msg.value;\n\n        investorsCount++;\n        lenders[investorAddress] = true;\n        investedOrRecommendedAmount[investorAddress] = investedOrRecommendedAmount[investorAddress].add(msg.value.sub(extraMoney));\n\n        emit Invested(investorAddress, msg.value.sub(extraMoney), block.timestamp);\n\n    }\n\n    // TODO recheck this function\n    /** @dev Repayment function.\n     * Allows borrower to make repayment installments.\n     */\n    function repay() public onlyBorrower canRepay payable {\n        require(remainingPayments > 0);\n        require(msg.value >= repaymentInstallment);\n\n        assert(repaidAmount < returnAmount);\n\n        // Update last repayment date\n        lastRepaymentDate = block.timestamp;\n\n        uint extraMoney = 0;\n\n        if (msg.value > repaymentInstallment) {\n\n            extraMoney = msg.value.sub(repaymentInstallment);\n\n            assert(repaymentInstallment == msg.value.sub(extraMoney));\n\n            // Check the underflow\n            assert(extraMoney < msg.value);\n\n            payable(msg.sender).transfer(extraMoney);\n\n            // TODO return event\n        }\n\n        // TODO event borrower installement received\n\n        if (repaidAmount == returnAmount) {\n\n            emit LogBorrowerRepaymentFinished(msg.sender, block.timestamp);\n\n            state = State.interestReturns;\n\n            // TODO event credit state changed\n        }\n    }\n\n    // TODO recheck and rewrite this function\n    /** @dev Withdraw function.\n      * It can only be executed while contract is in active state.\n      * It is only accessible to the borrower.\n      * It is only accessible if the needed amount is gathered in the contract.\n      * It can only be executed once.\n      * Transfers the gathered amount to the borrower.\n      */\n    function withdraw() public isActive onlyBorrower canWithdraw isNotFraud {\n        // Set the state to repayment so we can avoid reentrancy.\n        state = State.repayment;\n\n        // Log state change.\n        emit LoanStateChanged(state, block.timestamp);\n\n        // Log borrower withdrawal.\n        emit LogBorrowerWithdrawal(msg.sender, address(this).balance, block.timestamp);\n\n        // Transfer the gathered amount to the loan borrower.\n        payable(borrower).transfer(address(this).balance);\n    }\n\n    /** @dev Request interest function.\n      * It can only be executed while contract is in active state.\n      * It is only accessible to lenders.\n      * It is only accessible if lender funded 1 or more wei.\n      * It can only be executed once.\n      * Transfers the lended amount + interest to the lender.\n      */\n    function requestInterest() public isActive onlyLender canAskForInterest {\n\n        // Calculate the amount to be returned to lender.\n        //        uint lenderReturnAmount = lendersInvestedAmount[msg.sender].mul(returnAmount.div(lendersCount).div(lendersInvestedAmount[msg.sender]));\n        uint lenderReturnAmount = returnAmount / lendersCount;\n\n        // Assert the contract has enough balance to pay the lender.\n        assert(address(this).balance >= lenderReturnAmount);\n\n        // Transfer the return amount with interest to the lender.\n        payable(msg.sender).transfer(lenderReturnAmount);\n\n        // Log the transfer to lender.\n        emit LogLenderWithdrawal(msg.sender, lenderReturnAmount, block.timestamp);\n\n        // Check if the contract balance is drawned.\n        if (address(this).balance == 0) {\n\n            // Set the active state to false.\n            active = false;\n\n            // Log active state change.\n            emit LogCreditStateActiveChanged(active, block.timestamp);\n\n            // Set the contract stage to expired e.g. its lifespan is over.\n            state = State.expired;\n\n            // Log state change.\n            emit LoanStateChanged(state, block.timestamp);\n        }\n    }\n\n    /** @dev Values and Weights function\n      * calculates weights for each recommender's score and returns an array\n      */\n    function getRecommendersWeightsAndValues() public view returns (Exp[] memory, uint8[] memory){\n\n        Exp[] memory weights = new Exp[](recommendersCount);\n        uint8[] memory scores = new uint8[](recommendersCount);\n\n        for (uint i = 0; i < recommendersCount; i++) {\n\n            address recommender = recommenderAddr[i];\n\n            if (recommenders[recommender]) {\n\n                Exp memory recommendedAmount = Exp({mantissa: investedOrRecommendedAmount[recommender]});\n\n                (,weights[i]) = divExp(recommendedAmount, Exp({mantissa: totalRecommendedAmount}));\n                scores[i] = recommendedScore[recommender];\n            }\n        }\n        return (weights, scores);\n    }\n}\n",
  "sourcePath": "/Users/nikitaterekhov/Projects/LiquidityProtocol/contracts/Loan.sol",
  "compiler": {
    "name": "solc",
    "version": "0.8.0+commit.c7dfd78e.Emscripten.clang"
  },
  "schemaVersion": "3.4.1",
  "updatedAt": "2021-08-24T06:14:43.060Z",
  "devdoc": {
    "events": {
      "LogCreditInitialized(address,uint256)": {
        "details": "Events"
      }
    },
    "kind": "dev",
    "methods": {
      "getRecommendersWeightsAndValues()": {
        "details": "Values and Weights function calculates weights for each recommender's score and returns an array"
      },
      "lend(address)": {
        "details": "Invest function. Provides functionality for person to invest in someone's project, incentivized by the return of interest."
      },
      "recommend(uint8,address)": {
        "details": "Recommend function. Provides functionality for person to recommend someone's project, incentivized by the return of interest."
      },
      "repay()": {
        "details": "Repayment function. Allows borrower to make repayment installments."
      },
      "requestInterest()": {
        "details": "Request interest function. It can only be executed while contract is in active state. It is only accessible to lenders. It is only accessible if lender funded 1 or more wei. It can only be executed once. Transfers the lended amount + interest to the lender."
      },
      "requestTScore()": {
        "details": "Trustworthiness score calculation function Calculates trustworthiness score based on borrower's attributes"
      },
      "withdraw()": {
        "details": "Withdraw function. It can only be executed while contract is in active state. It is only accessible to the borrower. It is only accessible if the needed amount is gathered in the contract. It can only be executed once. Transfers the gathered amount to the borrower."
      }
    },
    "stateVariables": {
      "borrower": {
        "details": "Loan related infos"
      },
      "investorsCount": {
        "details": "Investors and Recommenders infos"
      }
    },
    "version": 1
  },
  "userdoc": {
    "kind": "user",
    "methods": {},
    "version": 1
  }
}