{
  "contractName": "TScoreController",
  "abi": [
    {
      "inputs": [],
      "stateMutability": "nonpayable",
      "type": "constructor"
    },
    {
      "inputs": [],
      "name": "admin",
      "outputs": [
        {
          "internalType": "address",
          "name": "",
          "type": "address"
        }
      ],
      "stateMutability": "view",
      "type": "function"
    },
    {
      "inputs": [
        {
          "internalType": "address",
          "name": "_loanAddr",
          "type": "address"
        },
        {
          "internalType": "address",
          "name": "_userAddr",
          "type": "address"
        },
        {
          "internalType": "uint256",
          "name": "_recommenderWeight",
          "type": "uint256"
        },
        {
          "internalType": "uint256",
          "name": "_givenScore",
          "type": "uint256"
        }
      ],
      "name": "updateSocialRecommendationScore",
      "outputs": [
        {
          "internalType": "uint256",
          "name": "",
          "type": "uint256"
        }
      ],
      "stateMutability": "nonpayable",
      "type": "function"
    },
    {
      "inputs": [
        {
          "internalType": "address",
          "name": "_loanAddr",
          "type": "address"
        },
        {
          "internalType": "address",
          "name": "_userAddr",
          "type": "address"
        },
        {
          "internalType": "uint256",
          "name": "_recommenderWeight",
          "type": "uint256"
        },
        {
          "internalType": "uint256",
          "name": "_givenScore",
          "type": "uint256"
        }
      ],
      "name": "updateActivityScore",
      "outputs": [
        {
          "internalType": "uint256",
          "name": "",
          "type": "uint256"
        }
      ],
      "stateMutability": "nonpayable",
      "type": "function"
    },
    {
      "inputs": [
        {
          "internalType": "address",
          "name": "_loanAddr",
          "type": "address"
        },
        {
          "internalType": "address",
          "name": "_userAddr",
          "type": "address"
        },
        {
          "internalType": "uint256",
          "name": "_recommenderWeight",
          "type": "uint256"
        },
        {
          "internalType": "uint256",
          "name": "_givenScore",
          "type": "uint256"
        }
      ],
      "name": "updateProfileScore",
      "outputs": [
        {
          "internalType": "uint256",
          "name": "",
          "type": "uint256"
        }
      ],
      "stateMutability": "nonpayable",
      "type": "function"
    },
    {
      "inputs": [
        {
          "internalType": "address",
          "name": "_loanAddr",
          "type": "address"
        },
        {
          "internalType": "address",
          "name": "_userAddr",
          "type": "address"
        },
        {
          "internalType": "uint256",
          "name": "_recommenderWeight",
          "type": "uint256"
        },
        {
          "internalType": "uint256",
          "name": "_givenScore",
          "type": "uint256"
        }
      ],
      "name": "updateLoanRiskScore",
      "outputs": [
        {
          "internalType": "uint256",
          "name": "",
          "type": "uint256"
        }
      ],
      "stateMutability": "nonpayable",
      "type": "function"
    },
    {
      "inputs": [
        {
          "internalType": "address",
          "name": "_loanAddr",
          "type": "address"
        },
        {
          "internalType": "address",
          "name": "_userAddr",
          "type": "address"
        },
        {
          "internalType": "uint256",
          "name": "_recommenderWeight",
          "type": "uint256"
        },
        {
          "internalType": "uint256",
          "name": "_givenScore",
          "type": "uint256"
        }
      ],
      "name": "updateTScore",
      "outputs": [
        {
          "internalType": "uint256",
          "name": "",
          "type": "uint256"
        }
      ],
      "stateMutability": "nonpayable",
      "type": "function"
    },
    {
      "inputs": [
        {
          "internalType": "address",
          "name": "_userAddr",
          "type": "address"
        }
      ],
      "name": "getTScore",
      "outputs": [
        {
          "internalType": "uint256",
          "name": "",
          "type": "uint256"
        }
      ],
      "stateMutability": "view",
      "type": "function"
    }
  ],
  "bytecode": "0x608060405234801561001057600080fd5b50336000806101000a81548173ffffffffffffffffffffffffffffffffffffffff021916908373ffffffffffffffffffffffffffffffffffffffff16021790555061102c806100606000396000f3fe608060405234801561001057600080fd5b506004361061007d5760003560e01c8063e14602b71161005b578063e14602b714610112578063eccc475e14610142578063f851a44014610172578063fa1d7846146101905761007d565b806312606aab146100825780632bc6f127146100b257806334bac6c5146100e2575b600080fd5b61009c60048036038101906100979190610adb565b6101c0565b6040516100a99190610cad565b60405180910390f35b6100cc60048036038101906100c79190610adb565b61024f565b6040516100d99190610cad565b60405180910390f35b6100fc60048036038101906100f79190610adb565b6102de565b6040516101099190610cad565b60405180910390f35b61012c60048036038101906101279190610adb565b61053b565b6040516101399190610cad565b60405180910390f35b61015c60048036038101906101579190610adb565b6105ca565b6040516101699190610cad565b60405180910390f35b61017a610659565b6040516101879190610c55565b60405180910390f35b6101aa60048036038101906101a59190610ab2565b61067d565b6040516101b79190610cad565b60405180910390f35b6000808490508073ffffffffffffffffffffffffffffffffffffffff1663436d582f6040518163ffffffff1660e01b815260040160206040518083038186803b15801561020c57600080fd5b505afa158015610220573d6000803e3d6000fd5b505050506040513d601f19601f820116820180604052508101906102449190610baa565b915050949350505050565b6000808490508073ffffffffffffffffffffffffffffffffffffffff1663436d582f6040518163ffffffff1660e01b815260040160206040518083038186803b15801561029b57600080fd5b505afa1580156102af573d6000803e3d6000fd5b505050506040513d601f19601f820116820180604052508101906102d39190610baa565b915050949350505050565b600080849050600086905060006040518060200160405280600081525090506060808373ffffffffffffffffffffffffffffffffffffffff16632488e6836040518163ffffffff1660e01b815260040160006040518083038186803b15801561034657600080fd5b505afa15801561035a573d6000803e3d6000fd5b505050506040513d6000823e3d601f19601f820116820180604052508101906103839190610b3e565b809250819350505060005b82518110156104425761042d6104278483815181106103d6577f4e487b7100000000000000000000000000000000000000000000000000000000600052603260045260246000fd5b6020026020010151848481518110610417577f4e487b7100000000000000000000000000000000000000000000000000000000600052603260045260246000fd5b602002602001015160ff16610709565b85610735565b9350808061043a90610eca565b91505061038e565b508473ffffffffffffffffffffffffffffffffffffffff1663c361de5f846040518263ffffffff1660e01b815260040161047c9190610c92565b600060405180830381600087803b15801561049657600080fd5b505af11580156104aa573d6000803e3d6000fd5b505050508473ffffffffffffffffffffffffffffffffffffffff1663436d582f6040518163ffffffff1660e01b815260040160206040518083038186803b1580156104f457600080fd5b505afa158015610508573d6000803e3d6000fd5b505050506040513d601f19601f8201168201806040525081019061052c9190610baa565b95505050505050949350505050565b6000808490508073ffffffffffffffffffffffffffffffffffffffff1663436d582f6040518163ffffffff1660e01b815260040160206040518083038186803b15801561058757600080fd5b505afa15801561059b573d6000803e3d6000fd5b505050506040513d601f19601f820116820180604052508101906105bf9190610baa565b915050949350505050565b6000808490508073ffffffffffffffffffffffffffffffffffffffff1663436d582f6040518163ffffffff1660e01b815260040160206040518083038186803b15801561061657600080fd5b505afa15801561062a573d6000803e3d6000fd5b505050506040513d601f19601f8201168201806040525081019061064e9190610baa565b915050949350505050565b60008054906101000a900473ffffffffffffffffffffffffffffffffffffffff1681565b6000808290508073ffffffffffffffffffffffffffffffffffffffff1663436d582f6040518163ffffffff1660e01b815260040160206040518083038186803b1580156106c957600080fd5b505afa1580156106dd573d6000803e3d6000fd5b505050506040513d601f19601f820116820180604052508101906107019190610baa565b915050919050565b6107116108e7565b604051806020016040528061072a856000015185610765565b815250905092915050565b61073d6108e7565b604051806020016040528061075a856000015185600001516107af565b815250905092915050565b60006107a783836040518060400160405280601781526020017f6d756c7469706c69636174696f6e206f766572666c6f770000000000000000008152506107f9565b905092915050565b60006107f183836040518060400160405280601181526020017f6164646974696f6e206f766572666c6f77000000000000000000000000000000815250610884565b905092915050565b6000808414806108095750600083145b15610817576000905061087d565b600083856108259190610df4565b90508385826108349190610dc3565b148390610877576040517f08c379a000000000000000000000000000000000000000000000000000000000815260040161086e9190610c70565b60405180910390fd5b50809150505b9392505050565b60008083856108939190610d6d565b90508481101583906108db576040517f08c379a00000000000000000000000000000000000000000000000000000000081526004016108d29190610c70565b60405180910390fd5b50809150509392505050565b6040518060200160405280600081525090565b600061090d61090884610cf9565b610cc8565b9050808382526020820190508285602086028201111561092c57600080fd5b60005b8581101561095c57816109428882610a3b565b84526020840193506020830192505060018101905061092f565b5050509392505050565b600061097961097484610d25565b610cc8565b9050808382526020820190508285602086028201111561099857600080fd5b60005b858110156109c857816109ae8882610a9d565b84526020840193506020830192505060018101905061099b565b5050509392505050565b6000813590506109e181610fb1565b92915050565b600082601f8301126109f857600080fd5b8151610a088482602086016108fa565b91505092915050565b600082601f830112610a2257600080fd5b8151610a32848260208601610966565b91505092915050565b600060208284031215610a4d57600080fd5b610a576020610cc8565b90506000610a6784828501610a88565b60008301525092915050565b600081359050610a8281610fc8565b92915050565b600081519050610a9781610fc8565b92915050565b600081519050610aac81610fdf565b92915050565b600060208284031215610ac457600080fd5b6000610ad2848285016109d2565b91505092915050565b60008060008060808587031215610af157600080fd5b6000610aff878288016109d2565b9450506020610b10878288016109d2565b9350506040610b2187828801610a73565b9250506060610b3287828801610a73565b91505092959194509250565b60008060408385031215610b5157600080fd5b600083015167ffffffffffffffff811115610b6b57600080fd5b610b77858286016109e7565b925050602083015167ffffffffffffffff811115610b9457600080fd5b610ba085828601610a11565b9150509250929050565b600060208284031215610bbc57600080fd5b6000610bca84828501610a88565b91505092915050565b610bdc81610e4e565b82525050565b6000610bed82610d51565b610bf78185610d5c565b9350610c07818560208601610e97565b610c1081610fa0565b840191505092915050565b602082016000820151610c316000850182610c37565b50505050565b610c4081610e80565b82525050565b610c4f81610e80565b82525050565b6000602082019050610c6a6000830184610bd3565b92915050565b60006020820190508181036000830152610c8a8184610be2565b905092915050565b6000602082019050610ca76000830184610c1b565b92915050565b6000602082019050610cc26000830184610c46565b92915050565b6000604051905081810181811067ffffffffffffffff82111715610cef57610cee610f71565b5b8060405250919050565b600067ffffffffffffffff821115610d1457610d13610f71565b5b602082029050602081019050919050565b600067ffffffffffffffff821115610d4057610d3f610f71565b5b602082029050602081019050919050565b600081519050919050565b600082825260208201905092915050565b6000610d7882610e80565b9150610d8383610e80565b9250827fffffffffffffffffffffffffffffffffffffffffffffffffffffffffffffffff03821115610db857610db7610f13565b5b828201905092915050565b6000610dce82610e80565b9150610dd983610e80565b925082610de957610de8610f42565b5b828204905092915050565b6000610dff82610e80565b9150610e0a83610e80565b9250817fffffffffffffffffffffffffffffffffffffffffffffffffffffffffffffffff0483118215151615610e4357610e42610f13565b5b828202905092915050565b6000610e5982610e60565b9050919050565b600073ffffffffffffffffffffffffffffffffffffffff82169050919050565b6000819050919050565b600060ff82169050919050565b60005b83811015610eb5578082015181840152602081019050610e9a565b83811115610ec4576000848401525b50505050565b6000610ed582610e80565b91507fffffffffffffffffffffffffffffffffffffffffffffffffffffffffffffffff821415610f0857610f07610f13565b5b600182019050919050565b7f4e487b7100000000000000000000000000000000000000000000000000000000600052601160045260246000fd5b7f4e487b7100000000000000000000000000000000000000000000000000000000600052601260045260246000fd5b7f4e487b7100000000000000000000000000000000000000000000000000000000600052604160045260246000fd5b6000601f19601f8301169050919050565b610fba81610e4e565b8114610fc557600080fd5b50565b610fd181610e80565b8114610fdc57600080fd5b50565b610fe881610e8a565b8114610ff357600080fd5b5056fea26469706673582212200146840799acf44d88535b5dc401531bd06ae806aee8f7e95c371fc1079885f064736f6c63430008000033",
  "immutableReferences": {},
  "source": "pragma solidity ^0.8.0;\n\nimport \"./TScoreControllerInterface.sol\";\nimport \"./User.sol\";\nimport \"./Loan.sol\";\n\ncontract TScoreController is TScoreControllerInterface, ExponentialNoError {\n\n    // only admin contract can call controller's functions\n    address public admin;\n\n    constructor() {\n        admin = msg.sender;\n    }\n\n    function updateSocialRecommendationScore(address _loanAddr, address _userAddr, uint _recommenderWeight, uint _givenScore) external override returns (uint) {\n\n        User user = User(_userAddr);\n        Loan loan = Loan(_loanAddr);\n\n        Exp memory weightedScore = Exp({mantissa: 0});\n\n        Exp[] memory weights;\n        uint8[] memory scores;\n\n        (weights, scores) = loan.getRecommendersWeightsAndValues();\n        for (uint i = 0; i < weights.length; i++) {\n            weightedScore = add_(mul_(weights[i], scores[i]), weightedScore);\n        }\n\n        user.setSocialRecommendationScore(weightedScore);\n\n        return user.getTScore();\n    }\n\n    function updateActivityScore(address _loanAddr, address _userAddr, uint _recommenderWeight, uint _givenScore) external override returns (uint) {\n        User user = User(_userAddr);\n\n        return user.getTScore();\n    }\n\n    function updateProfileScore(address _loanAddr, address _userAddr, uint _recommenderWeight, uint _givenScore)  external override returns (uint) {\n        User user = User(_userAddr);\n\n        return user.getTScore();\n    }\n\n    function updateLoanRiskScore(address _loanAddr, address _userAddr, uint _recommenderWeight, uint _givenScore) external override returns (uint) {\n        User user = User(_userAddr);\n\n        return user.getTScore();\n    }\n\n    function updateTScore(address _loanAddr, address _userAddr, uint _recommenderWeight, uint _givenScore) external override returns (uint) {\n        User user = User(_userAddr);\n\n        return user.getTScore();\n    }\n\n    function getTScore(address _userAddr) external view override returns (uint) {\n        User user = User(_userAddr);\n\n        return user.getTScore();\n    }\n}\n",
  "sourcePath": "/Users/nikitaterekhov/Projects/LiquidityProtocol/contracts/TScoreController.sol",
  "compiler": {
    "name": "solc",
    "version": "0.8.0+commit.c7dfd78e.Emscripten.clang"
  },
  "schemaVersion": "3.4.1",
  "updatedAt": "2021-08-24T06:14:43.138Z",
  "devdoc": {
    "kind": "dev",
    "methods": {},
    "version": 1
  },
  "userdoc": {
    "kind": "user",
    "methods": {},
    "version": 1
  }
}