{
  "contractName": "User",
  "abi": [
    {
      "inputs": [],
      "name": "activeLoan",
      "outputs": [
        {
          "internalType": "address",
          "name": "",
          "type": "address"
        }
      ],
      "stateMutability": "view",
      "type": "function"
    },
    {
      "inputs": [],
      "name": "activeSupply",
      "outputs": [
        {
          "internalType": "address",
          "name": "",
          "type": "address"
        }
      ],
      "stateMutability": "view",
      "type": "function"
    },
    {
      "inputs": [],
      "name": "fraudStatus",
      "outputs": [
        {
          "internalType": "bool",
          "name": "",
          "type": "bool"
        }
      ],
      "stateMutability": "view",
      "type": "function"
    },
    {
      "inputs": [],
      "name": "orbitDbIndexHash",
      "outputs": [
        {
          "internalType": "address",
          "name": "",
          "type": "address"
        }
      ],
      "stateMutability": "view",
      "type": "function"
    },
    {
      "inputs": [],
      "name": "tScore",
      "outputs": [
        {
          "components": [
            {
              "internalType": "uint256",
              "name": "mantissa",
              "type": "uint256"
            }
          ],
          "internalType": "struct ExponentialNoError.Exp",
          "name": "profileScore",
          "type": "tuple"
        },
        {
          "components": [
            {
              "internalType": "uint256",
              "name": "mantissa",
              "type": "uint256"
            }
          ],
          "internalType": "struct ExponentialNoError.Exp",
          "name": "activityScore",
          "type": "tuple"
        },
        {
          "components": [
            {
              "internalType": "uint256",
              "name": "mantissa",
              "type": "uint256"
            }
          ],
          "internalType": "struct ExponentialNoError.Exp",
          "name": "socialRecommendationScore",
          "type": "tuple"
        },
        {
          "components": [
            {
              "internalType": "uint256",
              "name": "mantissa",
              "type": "uint256"
            }
          ],
          "internalType": "struct ExponentialNoError.Exp",
          "name": "loanRiskScore",
          "type": "tuple"
        },
        {
          "internalType": "uint256",
          "name": "totalScore",
          "type": "uint256"
        }
      ],
      "stateMutability": "view",
      "type": "function"
    },
    {
      "inputs": [
        {
          "internalType": "address",
          "name": "_loanAddr",
          "type": "address"
        }
      ],
      "name": "setActiveLoan",
      "outputs": [],
      "stateMutability": "nonpayable",
      "type": "function"
    },
    {
      "inputs": [
        {
          "internalType": "address",
          "name": "_supplyAddr",
          "type": "address"
        }
      ],
      "name": "setActiveSupply",
      "outputs": [],
      "stateMutability": "nonpayable",
      "type": "function"
    },
    {
      "inputs": [
        {
          "internalType": "address",
          "name": "_orbitHash",
          "type": "address"
        }
      ],
      "name": "setOrbitDbIndexHash",
      "outputs": [],
      "stateMutability": "nonpayable",
      "type": "function"
    },
    {
      "inputs": [
        {
          "components": [
            {
              "internalType": "uint256",
              "name": "mantissa",
              "type": "uint256"
            }
          ],
          "internalType": "struct ExponentialNoError.Exp",
          "name": "socialScore",
          "type": "tuple"
        }
      ],
      "name": "setSocialRecommendationScore",
      "outputs": [],
      "stateMutability": "nonpayable",
      "type": "function"
    },
    {
      "inputs": [],
      "name": "getTScore",
      "outputs": [
        {
          "internalType": "uint256",
          "name": "",
          "type": "uint256"
        }
      ],
      "stateMutability": "view",
      "type": "function"
    }
  ],
  "bytecode": "0x608060405234801561001057600080fd5b50610700806100206000396000f3fe608060405234801561001057600080fd5b506004361061009e5760003560e01c8063c12c4eb311610066578063c12c4eb314610135578063c361de5f14610153578063d977b13b1461016f578063e682cc7b1461018b578063ee62281a146101ad5761009e565b80632223a858146100a35780633ae317a6146100bf578063436d582f146100db578063b2700a88146100f9578063babd701214610117575b600080fd5b6100bd60048036038101906100b89190610446565b6101cb565b005b6100d960048036038101906100d49190610446565b61020f565b005b6100e3610253565b6040516100f09190610579565b60405180910390f35b610101610260565b60405161010e91906104f0565b60405180910390f35b61011f610286565b60405161012c91906104f0565b60405180910390f35b61013d6102ac565b60405161014a919061050b565b60405180910390f35b61016d6004803603810190610168919061046f565b6102bd565b005b61018960048036038101906101849190610446565b6102e5565b005b610193610329565b6040516101a4959493929190610526565b60405180910390f35b6101b561039d565b6040516101c291906104f0565b60405180910390f35b80600160006101000a81548173ffffffffffffffffffffffffffffffffffffffff021916908373ffffffffffffffffffffffffffffffffffffffff16021790555050565b80600260006101000a81548173ffffffffffffffffffffffffffffffffffffffff021916908373ffffffffffffffffffffffffffffffffffffffff16021790555050565b6000600360040154905090565b600060019054906101000a900473ffffffffffffffffffffffffffffffffffffffff1681565b600160009054906101000a900473ffffffffffffffffffffffffffffffffffffffff1681565b60008054906101000a900460ff1681565b806003600201600082015181600001559050506102d9816103c3565b60036004018190555050565b80600060016101000a81548173ffffffffffffffffffffffffffffffffffffffff021916908373ffffffffffffffffffffffffffffffffffffffff16021790555050565b600380600001604051806020016040529081600082015481525050908060010160405180602001604052908160008201548152505090806002016040518060200160405290816000820154815250509080600301604051806020016040529081600082015481525050908060040154905085565b600260009054906101000a900473ffffffffffffffffffffffffffffffffffffffff1681565b6000670de0b6b3a764000082600001516103dd91906105c5565b9050919050565b6000813590506103f38161069c565b92915050565b60006020828403121561040b57600080fd5b6104156020610594565b9050600061042584828501610431565b60008301525092915050565b600081359050610440816106b3565b92915050565b60006020828403121561045857600080fd5b6000610466848285016103e4565b91505092915050565b60006020828403121561048157600080fd5b600061048f848285016103f9565b91505092915050565b6104a1816105f6565b82525050565b6104b081610608565b82525050565b6020820160008201516104cc60008501826104d2565b50505050565b6104db81610634565b82525050565b6104ea81610634565b82525050565b60006020820190506105056000830184610498565b92915050565b600060208201905061052060008301846104a7565b92915050565b600060a08201905061053b60008301886104b6565b61054860208301876104b6565b61055560408301866104b6565b61056260608301856104b6565b61056f60808301846104e1565b9695505050505050565b600060208201905061058e60008301846104e1565b92915050565b6000604051905081810181811067ffffffffffffffff821117156105bb576105ba61066d565b5b8060405250919050565b60006105d082610634565b91506105db83610634565b9250826105eb576105ea61063e565b5b828204905092915050565b600061060182610614565b9050919050565b60008115159050919050565b600073ffffffffffffffffffffffffffffffffffffffff82169050919050565b6000819050919050565b7f4e487b7100000000000000000000000000000000000000000000000000000000600052601260045260246000fd5b7f4e487b7100000000000000000000000000000000000000000000000000000000600052604160045260246000fd5b6106a5816105f6565b81146106b057600080fd5b50565b6106bc81610634565b81146106c757600080fd5b5056fea2646970667358221220863edf5f2ebdbcced33f37193c6e17474a07bc2669b238743c8d0d47eff8810e64736f6c63430008000033",
  "immutableReferences": {},
  "source": "pragma solidity ^0.8.0;\n\nimport \"./ExponentialNoError.sol\";\n\ncontract User is ExponentialNoError {\n\n    struct TScore {\n        Exp profileScore;\n        Exp activityScore;\n        Exp socialRecommendationScore;\n        Exp loanRiskScore;\n        uint totalScore;\n    }\n\n    bool public fraudStatus;\n    address public activeLoan;\n    address public activeSupply;\n    address public orbitDbIndexHash;\n\n    TScore public tScore;\n\n    function setActiveLoan(address _loanAddr) external {\n        activeLoan = _loanAddr;\n    }\n\n    function setActiveSupply(address _supplyAddr) external {\n        activeSupply = _supplyAddr;\n    }\n\n    function setOrbitDbIndexHash(address _orbitHash) external {\n        orbitDbIndexHash = _orbitHash;\n    }\n\n    function setSocialRecommendationScore(Exp memory socialScore) external {\n        tScore.socialRecommendationScore = socialScore;\n\n        // temporary\n        tScore.totalScore = truncate(socialScore);\n    }\n\n    function getTScore() public view returns (uint) {\n        return tScore.totalScore;\n    }\n}\n",
  "sourcePath": "/Users/nikitaterekhov/Projects/LiquidityProtocol/contracts/User.sol",
  "compiler": {
    "name": "solc",
    "version": "0.8.0+commit.c7dfd78e.Emscripten.clang"
  },
  "schemaVersion": "3.4.1",
  "updatedAt": "2021-08-09T16:34:49.150Z",
  "devdoc": {
    "kind": "dev",
    "methods": {},
    "version": 1
  },
  "userdoc": {
    "kind": "user",
    "methods": {},
    "version": 1
  }
}